{
	"Code/WaterCoinRules.sol": {
		"WaterCoinRules": {
			"abi": [
				{
					"inputs": [],
					"stateMutability": "nonpayable",
					"type": "constructor"
				},
				{
					"inputs": [
						{
							"internalType": "uint256",
							"name": "a_supply_",
							"type": "uint256"
						},
						{
							"internalType": "uint256",
							"name": "b_supply_",
							"type": "uint256"
						},
						{
							"internalType": "uint256",
							"name": "c_supply_",
							"type": "uint256"
						}
					],
					"name": "newSeason",
					"outputs": [],
					"stateMutability": "nonpayable",
					"type": "function"
				}
			],
			"devdoc": {
				"kind": "dev",
				"methods": {},
				"version": 1
			},
			"evm": {
				"assembly": "    /* \"Code/WaterCoinRules.sol\":25:389  contract WaterCoinRules {... */\n  mstore(0x40, 0x80)\n    /* \"Code/WaterCoinRules.sol\":235:285  constructor() {... */\n  callvalue\n  dup1\n  iszero\n  tag_1\n  jumpi\n  0x00\n  dup1\n  revert\ntag_1:\n  pop\n    /* \"Code/WaterCoinRules.sol\":268:278  msg.sender */\n  caller\n    /* \"Code/WaterCoinRules.sol\":259:265  _owner */\n  0x04\n  0x00\n    /* \"Code/WaterCoinRules.sol\":259:278  _owner = msg.sender */\n  0x0100\n  exp\n  dup2\n  sload\n  dup2\n  0xffffffffffffffffffffffffffffffffffffffff\n  mul\n  not\n  and\n  swap1\n  dup4\n  0xffffffffffffffffffffffffffffffffffffffff\n  and\n  mul\n  or\n  swap1\n  sstore\n  pop\n    /* \"Code/WaterCoinRules.sol\":25:389  contract WaterCoinRules {... */\n  dataSize(sub_0)\n  dup1\n  dataOffset(sub_0)\n  0x00\n  codecopy\n  0x00\n  return\nstop\n\nsub_0: assembly {\n        /* \"Code/WaterCoinRules.sol\":25:389  contract WaterCoinRules {... */\n      mstore(0x40, 0x80)\n      callvalue\n      dup1\n      iszero\n      tag_1\n      jumpi\n      0x00\n      dup1\n      revert\n    tag_1:\n      pop\n      jumpi(tag_2, lt(calldatasize, 0x04))\n      shr(0xe0, calldataload(0x00))\n      dup1\n      0x235eed60\n      eq\n      tag_3\n      jumpi\n    tag_2:\n      0x00\n      dup1\n      revert\n        /* \"Code/WaterCoinRules.sol\":293:386  function newSeason(uint256 a_supply_, uint256 b_supply_, uint256 c_supply_) external {... */\n    tag_3:\n      tag_4\n      0x04\n      dup1\n      calldatasize\n      sub\n      dup2\n      add\n      swap1\n      tag_5\n      swap2\n      swap1\n      tag_6\n      jump\t// in\n    tag_5:\n      tag_7\n      jump\t// in\n    tag_4:\n      stop\n    tag_7:\n      pop\n      pop\n      pop\n      jump\t// out\n        /* \"#utility.yul\":7:146   */\n    tag_10:\n        /* \"#utility.yul\":53:58   */\n      0x00\n        /* \"#utility.yul\":91:97   */\n      dup2\n        /* \"#utility.yul\":78:98   */\n      calldataload\n        /* \"#utility.yul\":69:98   */\n      swap1\n      pop\n        /* \"#utility.yul\":107:140   */\n      tag_12\n        /* \"#utility.yul\":134:139   */\n      dup2\n        /* \"#utility.yul\":107:140   */\n      tag_13\n      jump\t// in\n    tag_12:\n        /* \"#utility.yul\":7:146   */\n      swap3\n      swap2\n      pop\n      pop\n      jump\t// out\n        /* \"#utility.yul\":152:771   */\n    tag_6:\n        /* \"#utility.yul\":229:235   */\n      0x00\n        /* \"#utility.yul\":237:243   */\n      dup1\n        /* \"#utility.yul\":245:251   */\n      0x00\n        /* \"#utility.yul\":294:296   */\n      0x60\n        /* \"#utility.yul\":282:291   */\n      dup5\n        /* \"#utility.yul\":273:280   */\n      dup7\n        /* \"#utility.yul\":269:292   */\n      sub\n        /* \"#utility.yul\":265:297   */\n      slt\n        /* \"#utility.yul\":262:381   */\n      iszero\n      tag_15\n      jumpi\n        /* \"#utility.yul\":300:379   */\n      tag_16\n      tag_17\n      jump\t// in\n    tag_16:\n        /* \"#utility.yul\":262:381   */\n    tag_15:\n        /* \"#utility.yul\":420:421   */\n      0x00\n        /* \"#utility.yul\":445:498   */\n      tag_18\n        /* \"#utility.yul\":490:497   */\n      dup7\n        /* \"#utility.yul\":481:487   */\n      dup3\n        /* \"#utility.yul\":470:479   */\n      dup8\n        /* \"#utility.yul\":466:488   */\n      add\n        /* \"#utility.yul\":445:498   */\n      tag_10\n      jump\t// in\n    tag_18:\n        /* \"#utility.yul\":435:498   */\n      swap4\n      pop\n        /* \"#utility.yul\":391:508   */\n      pop\n        /* \"#utility.yul\":547:549   */\n      0x20\n        /* \"#utility.yul\":573:626   */\n      tag_19\n        /* \"#utility.yul\":618:625   */\n      dup7\n        /* \"#utility.yul\":609:615   */\n      dup3\n        /* \"#utility.yul\":598:607   */\n      dup8\n        /* \"#utility.yul\":594:616   */\n      add\n        /* \"#utility.yul\":573:626   */\n      tag_10\n      jump\t// in\n    tag_19:\n        /* \"#utility.yul\":563:626   */\n      swap3\n      pop\n        /* \"#utility.yul\":518:636   */\n      pop\n        /* \"#utility.yul\":675:677   */\n      0x40\n        /* \"#utility.yul\":701:754   */\n      tag_20\n        /* \"#utility.yul\":746:753   */\n      dup7\n        /* \"#utility.yul\":737:743   */\n      dup3\n        /* \"#utility.yul\":726:735   */\n      dup8\n        /* \"#utility.yul\":722:744   */\n      add\n        /* \"#utility.yul\":701:754   */\n      tag_10\n      jump\t// in\n    tag_20:\n        /* \"#utility.yul\":691:754   */\n      swap2\n      pop\n        /* \"#utility.yul\":646:764   */\n      pop\n        /* \"#utility.yul\":152:771   */\n      swap3\n      pop\n      swap3\n      pop\n      swap3\n      jump\t// out\n        /* \"#utility.yul\":858:935   */\n    tag_23:\n        /* \"#utility.yul\":895:902   */\n      0x00\n        /* \"#utility.yul\":924:929   */\n      dup2\n        /* \"#utility.yul\":913:929   */\n      swap1\n      pop\n        /* \"#utility.yul\":858:935   */\n      swap2\n      swap1\n      pop\n      jump\t// out\n        /* \"#utility.yul\":1064:1181   */\n    tag_17:\n        /* \"#utility.yul\":1173:1174   */\n      0x00\n        /* \"#utility.yul\":1170:1171   */\n      dup1\n        /* \"#utility.yul\":1163:1175   */\n      revert\n        /* \"#utility.yul\":1187:1309   */\n    tag_13:\n        /* \"#utility.yul\":1260:1284   */\n      tag_29\n        /* \"#utility.yul\":1278:1283   */\n      dup2\n        /* \"#utility.yul\":1260:1284   */\n      tag_23\n      jump\t// in\n    tag_29:\n        /* \"#utility.yul\":1253:1258   */\n      dup2\n        /* \"#utility.yul\":1250:1285   */\n      eq\n        /* \"#utility.yul\":1240:1303   */\n      tag_30\n      jumpi\n        /* \"#utility.yul\":1299:1300   */\n      0x00\n        /* \"#utility.yul\":1296:1297   */\n      dup1\n        /* \"#utility.yul\":1289:1301   */\n      revert\n        /* \"#utility.yul\":1240:1303   */\n    tag_30:\n        /* \"#utility.yul\":1187:1309   */\n      pop\n      jump\t// out\n\n    auxdata: 0xa264697066735822122023773abda345f90f5a2c02a92082b39d8e814f8e5d90bad4ab2216091fb36a6164736f6c63430008070033\n}\n",
				"bytecode": {
					"linkReferences": {},
					"object": "608060405234801561001057600080fd5b5033600460006101000a81548173ffffffffffffffffffffffffffffffffffffffff021916908373ffffffffffffffffffffffffffffffffffffffff160217905550610100806100616000396000f3fe6080604052348015600f57600080fd5b506004361060285760003560e01c8063235eed6014602d575b600080fd5b60436004803603810190603f9190605d565b6045565b005b505050565b60008135905060578160b6565b92915050565b600080600060608486031215607357607260b1565b5b6000607f86828701604a565b9350506020608e86828701604a565b9250506040609d86828701604a565b9150509250925092565b6000819050919050565b600080fd5b60bd8160a7565b811460c757600080fd5b5056fea264697066735822122023773abda345f90f5a2c02a92082b39d8e814f8e5d90bad4ab2216091fb36a6164736f6c63430008070033",
					"opcodes": "PUSH1 0x80 PUSH1 0x40 MSTORE CALLVALUE DUP1 ISZERO PUSH2 0x10 JUMPI PUSH1 0x0 DUP1 REVERT JUMPDEST POP CALLER PUSH1 0x4 PUSH1 0x0 PUSH2 0x100 EXP DUP2 SLOAD DUP2 PUSH20 0xFFFFFFFFFFFFFFFFFFFFFFFFFFFFFFFFFFFFFFFF MUL NOT AND SWAP1 DUP4 PUSH20 0xFFFFFFFFFFFFFFFFFFFFFFFFFFFFFFFFFFFFFFFF AND MUL OR SWAP1 SSTORE POP PUSH2 0x100 DUP1 PUSH2 0x61 PUSH1 0x0 CODECOPY PUSH1 0x0 RETURN INVALID PUSH1 0x80 PUSH1 0x40 MSTORE CALLVALUE DUP1 ISZERO PUSH1 0xF JUMPI PUSH1 0x0 DUP1 REVERT JUMPDEST POP PUSH1 0x4 CALLDATASIZE LT PUSH1 0x28 JUMPI PUSH1 0x0 CALLDATALOAD PUSH1 0xE0 SHR DUP1 PUSH4 0x235EED60 EQ PUSH1 0x2D JUMPI JUMPDEST PUSH1 0x0 DUP1 REVERT JUMPDEST PUSH1 0x43 PUSH1 0x4 DUP1 CALLDATASIZE SUB DUP2 ADD SWAP1 PUSH1 0x3F SWAP2 SWAP1 PUSH1 0x5D JUMP JUMPDEST PUSH1 0x45 JUMP JUMPDEST STOP JUMPDEST POP POP POP JUMP JUMPDEST PUSH1 0x0 DUP2 CALLDATALOAD SWAP1 POP PUSH1 0x57 DUP2 PUSH1 0xB6 JUMP JUMPDEST SWAP3 SWAP2 POP POP JUMP JUMPDEST PUSH1 0x0 DUP1 PUSH1 0x0 PUSH1 0x60 DUP5 DUP7 SUB SLT ISZERO PUSH1 0x73 JUMPI PUSH1 0x72 PUSH1 0xB1 JUMP JUMPDEST JUMPDEST PUSH1 0x0 PUSH1 0x7F DUP7 DUP3 DUP8 ADD PUSH1 0x4A JUMP JUMPDEST SWAP4 POP POP PUSH1 0x20 PUSH1 0x8E DUP7 DUP3 DUP8 ADD PUSH1 0x4A JUMP JUMPDEST SWAP3 POP POP PUSH1 0x40 PUSH1 0x9D DUP7 DUP3 DUP8 ADD PUSH1 0x4A JUMP JUMPDEST SWAP2 POP POP SWAP3 POP SWAP3 POP SWAP3 JUMP JUMPDEST PUSH1 0x0 DUP2 SWAP1 POP SWAP2 SWAP1 POP JUMP JUMPDEST PUSH1 0x0 DUP1 REVERT JUMPDEST PUSH1 0xBD DUP2 PUSH1 0xA7 JUMP JUMPDEST DUP2 EQ PUSH1 0xC7 JUMPI PUSH1 0x0 DUP1 REVERT JUMPDEST POP JUMP INVALID LOG2 PUSH5 0x6970667358 0x22 SLT KECCAK256 0x23 PUSH24 0x3ABDA345F90F5A2C02A92082B39D8E814F8E5D90BAD4AB22 AND MULMOD 0x1F 0xB3 PUSH11 0x6164736F6C634300080700 CALLER "
				},
				"gasEstimates": {
					"creation": {
						"codeDepositCost": "51200",
						"executionCost": "24365",
						"totalCost": "75565"
					},
					"external": {
						"newSeason(uint256,uint256,uint256)": "infinite"
					}
				},
				"methodIdentifiers": {
					"newSeason(uint256,uint256,uint256)": "235eed60"
				}
			},
			"storageLayout": {
				"storage": [
					{
						"astId": 7,
						"contract": "Code/WaterCoinRules.sol:WaterCoinRules",
						"label": "A_supply",
						"offset": 0,
						"slot": "0",
						"type": "t_uint256"
					},
					{
						"astId": 9,
						"contract": "Code/WaterCoinRules.sol:WaterCoinRules",
						"label": "B_supply",
						"offset": 0,
						"slot": "1",
						"type": "t_uint256"
					},
					{
						"astId": 11,
						"contract": "Code/WaterCoinRules.sol:WaterCoinRules",
						"label": "C_supply",
						"offset": 0,
						"slot": "2",
						"type": "t_uint256"
					},
					{
						"astId": 17,
						"contract": "Code/WaterCoinRules.sol:WaterCoinRules",
						"label": "brackTradeAllowance",
						"offset": 0,
						"slot": "3",
						"type": "t_mapping(t_enum(CoinTypes)5,t_enum(CoinTypes)5)"
					},
					{
						"astId": 19,
						"contract": "Code/WaterCoinRules.sol:WaterCoinRules",
						"label": "_owner",
						"offset": 0,
						"slot": "4",
						"type": "t_address"
					}
				],
				"types": {
					"t_address": {
						"encoding": "inplace",
						"label": "address",
						"numberOfBytes": "20"
					},
					"t_enum(CoinTypes)5": {
						"encoding": "inplace",
						"label": "enum WaterCoinRules.CoinTypes",
						"numberOfBytes": "1"
					},
					"t_mapping(t_enum(CoinTypes)5,t_enum(CoinTypes)5)": {
						"encoding": "mapping",
						"key": "t_enum(CoinTypes)5",
						"label": "mapping(enum WaterCoinRules.CoinTypes => enum WaterCoinRules.CoinTypes)",
						"numberOfBytes": "32",
						"value": "t_enum(CoinTypes)5"
					},
					"t_uint256": {
						"encoding": "inplace",
						"label": "uint256",
						"numberOfBytes": "32"
					}
				}
			},
			"userdoc": {
				"kind": "user",
				"methods": {},
				"version": 1
			}
		}
	}
}