{
	"Code/WaterCoinRules.sol": {
		"WaterCoinRules": {
			"abi": [
				{
					"inputs": [],
					"stateMutability": "nonpayable",
					"type": "constructor"
				},
				{
					"inputs": [
						{
							"internalType": "uint256",
							"name": "a_supply_",
							"type": "uint256"
						},
						{
							"internalType": "uint256",
							"name": "b_supply_",
							"type": "uint256"
						},
						{
							"internalType": "uint256",
							"name": "c_supply_",
							"type": "uint256"
						}
					],
					"name": "newSeason",
					"outputs": [],
					"stateMutability": "nonpayable",
					"type": "function"
				}
			],
			"devdoc": {
				"kind": "dev",
				"methods": {},
				"version": 1
			},
			"evm": {
				"assembly": "    /* \"Code/WaterCoinRules.sol\":25:583  contract WaterCoinRules {... */\n  mstore(0x40, 0x80)\n    /* \"Code/WaterCoinRules.sol\":233:283  constructor() {... */\n  callvalue\n  dup1\n  iszero\n  tag_1\n  jumpi\n  0x00\n  dup1\n  revert\ntag_1:\n  pop\n    /* \"Code/WaterCoinRules.sol\":266:276  msg.sender */\n  caller\n    /* \"Code/WaterCoinRules.sol\":257:263  _owner */\n  0x04\n  0x00\n    /* \"Code/WaterCoinRules.sol\":257:276  _owner = msg.sender */\n  0x0100\n  exp\n  dup2\n  sload\n  dup2\n  0xffffffffffffffffffffffffffffffffffffffff\n  mul\n  not\n  and\n  swap1\n  dup4\n  0xffffffffffffffffffffffffffffffffffffffff\n  and\n  mul\n  or\n  swap1\n  sstore\n  pop\n    /* \"Code/WaterCoinRules.sol\":25:583  contract WaterCoinRules {... */\n  dataSize(sub_0)\n  dup1\n  dataOffset(sub_0)\n  0x00\n  codecopy\n  0x00\n  return\nstop\n\nsub_0: assembly {\n        /* \"Code/WaterCoinRules.sol\":25:583  contract WaterCoinRules {... */\n      mstore(0x40, 0x80)\n      callvalue\n      dup1\n      iszero\n      tag_1\n      jumpi\n      0x00\n      dup1\n      revert\n    tag_1:\n      pop\n      jumpi(tag_2, lt(calldatasize, 0x04))\n      shr(0xe0, calldataload(0x00))\n      dup1\n      0x235eed60\n      eq\n      tag_3\n      jumpi\n    tag_2:\n      0x00\n      dup1\n      revert\n        /* \"Code/WaterCoinRules.sol\":291:580  function newSeason(uint256 a_supply_, uint256 b_supply_, uint256 c_supply_) external {... */\n    tag_3:\n      tag_4\n      0x04\n      dup1\n      calldatasize\n      sub\n      dup2\n      add\n      swap1\n      tag_5\n      swap2\n      swap1\n      tag_6\n      jump\t// in\n    tag_5:\n      tag_7\n      jump\t// in\n    tag_4:\n      stop\n    tag_7:\n        /* \"Code/WaterCoinRules.sol\":386:398  address from */\n      0x00\n        /* \"Code/WaterCoinRules.sol\":401:411  msg.sender */\n      caller\n        /* \"Code/WaterCoinRules.sol\":386:411  address from = msg.sender */\n      swap1\n      pop\n        /* \"Code/WaterCoinRules.sol\":438:444  _owner */\n      0x04\n      0x00\n      swap1\n      sload\n      swap1\n      0x0100\n      exp\n      swap1\n      div\n      0xffffffffffffffffffffffffffffffffffffffff\n      and\n        /* \"Code/WaterCoinRules.sol\":430:444  from == _owner */\n      0xffffffffffffffffffffffffffffffffffffffff\n      and\n        /* \"Code/WaterCoinRules.sol\":430:434  from */\n      dup2\n        /* \"Code/WaterCoinRules.sol\":430:444  from == _owner */\n      0xffffffffffffffffffffffffffffffffffffffff\n      and\n      eq\n        /* \"Code/WaterCoinRules.sol\":422:480  require(from == _owner, \"Only owner can start new season\") */\n      tag_9\n      jumpi\n      mload(0x40)\n      0x08c379a000000000000000000000000000000000000000000000000000000000\n      dup2\n      mstore\n      0x04\n      add\n      tag_10\n      swap1\n      tag_11\n      jump\t// in\n    tag_10:\n      mload(0x40)\n      dup1\n      swap2\n      sub\n      swap1\n      revert\n    tag_9:\n        /* \"Code/WaterCoinRules.sol\":502:511  a_supply_ */\n      dup4\n        /* \"Code/WaterCoinRules.sol\":491:499  A_supply */\n      0x00\n        /* \"Code/WaterCoinRules.sol\":491:511  A_supply = a_supply_ */\n      dup2\n      swap1\n      sstore\n      pop\n        /* \"Code/WaterCoinRules.sol\":532:541  b_supply_ */\n      dup3\n        /* \"Code/WaterCoinRules.sol\":521:529  B_supply */\n      0x01\n        /* \"Code/WaterCoinRules.sol\":521:541  B_supply = b_supply_ */\n      dup2\n      swap1\n      sstore\n      pop\n        /* \"Code/WaterCoinRules.sol\":562:571  c_supply_ */\n      dup2\n        /* \"Code/WaterCoinRules.sol\":551:559  C_supply */\n      0x02\n        /* \"Code/WaterCoinRules.sol\":551:571  C_supply = c_supply_ */\n      dup2\n      swap1\n      sstore\n      pop\n        /* \"Code/WaterCoinRules.sol\":376:580  {... */\n      pop\n        /* \"Code/WaterCoinRules.sol\":291:580  function newSeason(uint256 a_supply_, uint256 b_supply_, uint256 c_supply_) external {... */\n      pop\n      pop\n      pop\n      jump\t// out\n        /* \"#utility.yul\":7:146   */\n    tag_13:\n        /* \"#utility.yul\":53:58   */\n      0x00\n        /* \"#utility.yul\":91:97   */\n      dup2\n        /* \"#utility.yul\":78:98   */\n      calldataload\n        /* \"#utility.yul\":69:98   */\n      swap1\n      pop\n        /* \"#utility.yul\":107:140   */\n      tag_15\n        /* \"#utility.yul\":134:139   */\n      dup2\n        /* \"#utility.yul\":107:140   */\n      tag_16\n      jump\t// in\n    tag_15:\n        /* \"#utility.yul\":7:146   */\n      swap3\n      swap2\n      pop\n      pop\n      jump\t// out\n        /* \"#utility.yul\":152:771   */\n    tag_6:\n        /* \"#utility.yul\":229:235   */\n      0x00\n        /* \"#utility.yul\":237:243   */\n      dup1\n        /* \"#utility.yul\":245:251   */\n      0x00\n        /* \"#utility.yul\":294:296   */\n      0x60\n        /* \"#utility.yul\":282:291   */\n      dup5\n        /* \"#utility.yul\":273:280   */\n      dup7\n        /* \"#utility.yul\":269:292   */\n      sub\n        /* \"#utility.yul\":265:297   */\n      slt\n        /* \"#utility.yul\":262:381   */\n      iszero\n      tag_18\n      jumpi\n        /* \"#utility.yul\":300:379   */\n      tag_19\n      tag_20\n      jump\t// in\n    tag_19:\n        /* \"#utility.yul\":262:381   */\n    tag_18:\n        /* \"#utility.yul\":420:421   */\n      0x00\n        /* \"#utility.yul\":445:498   */\n      tag_21\n        /* \"#utility.yul\":490:497   */\n      dup7\n        /* \"#utility.yul\":481:487   */\n      dup3\n        /* \"#utility.yul\":470:479   */\n      dup8\n        /* \"#utility.yul\":466:488   */\n      add\n        /* \"#utility.yul\":445:498   */\n      tag_13\n      jump\t// in\n    tag_21:\n        /* \"#utility.yul\":435:498   */\n      swap4\n      pop\n        /* \"#utility.yul\":391:508   */\n      pop\n        /* \"#utility.yul\":547:549   */\n      0x20\n        /* \"#utility.yul\":573:626   */\n      tag_22\n        /* \"#utility.yul\":618:625   */\n      dup7\n        /* \"#utility.yul\":609:615   */\n      dup3\n        /* \"#utility.yul\":598:607   */\n      dup8\n        /* \"#utility.yul\":594:616   */\n      add\n        /* \"#utility.yul\":573:626   */\n      tag_13\n      jump\t// in\n    tag_22:\n        /* \"#utility.yul\":563:626   */\n      swap3\n      pop\n        /* \"#utility.yul\":518:636   */\n      pop\n        /* \"#utility.yul\":675:677   */\n      0x40\n        /* \"#utility.yul\":701:754   */\n      tag_23\n        /* \"#utility.yul\":746:753   */\n      dup7\n        /* \"#utility.yul\":737:743   */\n      dup3\n        /* \"#utility.yul\":726:735   */\n      dup8\n        /* \"#utility.yul\":722:744   */\n      add\n        /* \"#utility.yul\":701:754   */\n      tag_13\n      jump\t// in\n    tag_23:\n        /* \"#utility.yul\":691:754   */\n      swap2\n      pop\n        /* \"#utility.yul\":646:764   */\n      pop\n        /* \"#utility.yul\":152:771   */\n      swap3\n      pop\n      swap3\n      pop\n      swap3\n      jump\t// out\n        /* \"#utility.yul\":777:1143   */\n    tag_24:\n        /* \"#utility.yul\":919:922   */\n      0x00\n        /* \"#utility.yul\":940:1007   */\n      tag_26\n        /* \"#utility.yul\":1004:1006   */\n      0x1f\n        /* \"#utility.yul\":999:1002   */\n      dup4\n        /* \"#utility.yul\":940:1007   */\n      tag_27\n      jump\t// in\n    tag_26:\n        /* \"#utility.yul\":933:1007   */\n      swap2\n      pop\n        /* \"#utility.yul\":1016:1109   */\n      tag_28\n        /* \"#utility.yul\":1105:1108   */\n      dup3\n        /* \"#utility.yul\":1016:1109   */\n      tag_29\n      jump\t// in\n    tag_28:\n        /* \"#utility.yul\":1134:1136   */\n      0x20\n        /* \"#utility.yul\":1129:1132   */\n      dup3\n        /* \"#utility.yul\":1125:1137   */\n      add\n        /* \"#utility.yul\":1118:1137   */\n      swap1\n      pop\n        /* \"#utility.yul\":777:1143   */\n      swap2\n      swap1\n      pop\n      jump\t// out\n        /* \"#utility.yul\":1149:1568   */\n    tag_11:\n        /* \"#utility.yul\":1315:1319   */\n      0x00\n        /* \"#utility.yul\":1353:1355   */\n      0x20\n        /* \"#utility.yul\":1342:1351   */\n      dup3\n        /* \"#utility.yul\":1338:1356   */\n      add\n        /* \"#utility.yul\":1330:1356   */\n      swap1\n      pop\n        /* \"#utility.yul\":1402:1411   */\n      dup2\n        /* \"#utility.yul\":1396:1400   */\n      dup2\n        /* \"#utility.yul\":1392:1412   */\n      sub\n        /* \"#utility.yul\":1388:1389   */\n      0x00\n        /* \"#utility.yul\":1377:1386   */\n      dup4\n        /* \"#utility.yul\":1373:1390   */\n      add\n        /* \"#utility.yul\":1366:1413   */\n      mstore\n        /* \"#utility.yul\":1430:1561   */\n      tag_31\n        /* \"#utility.yul\":1556:1560   */\n      dup2\n        /* \"#utility.yul\":1430:1561   */\n      tag_24\n      jump\t// in\n    tag_31:\n        /* \"#utility.yul\":1422:1561   */\n      swap1\n      pop\n        /* \"#utility.yul\":1149:1568   */\n      swap2\n      swap1\n      pop\n      jump\t// out\n        /* \"#utility.yul\":1655:1824   */\n    tag_27:\n        /* \"#utility.yul\":1739:1750   */\n      0x00\n        /* \"#utility.yul\":1773:1779   */\n      dup3\n        /* \"#utility.yul\":1768:1771   */\n      dup3\n        /* \"#utility.yul\":1761:1780   */\n      mstore\n        /* \"#utility.yul\":1813:1817   */\n      0x20\n        /* \"#utility.yul\":1808:1811   */\n      dup3\n        /* \"#utility.yul\":1804:1818   */\n      add\n        /* \"#utility.yul\":1789:1818   */\n      swap1\n      pop\n        /* \"#utility.yul\":1655:1824   */\n      swap3\n      swap2\n      pop\n      pop\n      jump\t// out\n        /* \"#utility.yul\":1830:1907   */\n    tag_35:\n        /* \"#utility.yul\":1867:1874   */\n      0x00\n        /* \"#utility.yul\":1896:1901   */\n      dup2\n        /* \"#utility.yul\":1885:1901   */\n      swap1\n      pop\n        /* \"#utility.yul\":1830:1907   */\n      swap2\n      swap1\n      pop\n      jump\t// out\n        /* \"#utility.yul\":2036:2153   */\n    tag_20:\n        /* \"#utility.yul\":2145:2146   */\n      0x00\n        /* \"#utility.yul\":2142:2143   */\n      dup1\n        /* \"#utility.yul\":2135:2147   */\n      revert\n        /* \"#utility.yul\":2159:2340   */\n    tag_29:\n        /* \"#utility.yul\":2299:2332   */\n      0x4f6e6c79206f776e65722063616e207374617274206e657720736561736f6e00\n        /* \"#utility.yul\":2295:2296   */\n      0x00\n        /* \"#utility.yul\":2287:2293   */\n      dup3\n        /* \"#utility.yul\":2283:2297   */\n      add\n        /* \"#utility.yul\":2276:2333   */\n      mstore\n        /* \"#utility.yul\":2159:2340   */\n      pop\n      jump\t// out\n        /* \"#utility.yul\":2346:2468   */\n    tag_16:\n        /* \"#utility.yul\":2419:2443   */\n      tag_42\n        /* \"#utility.yul\":2437:2442   */\n      dup2\n        /* \"#utility.yul\":2419:2443   */\n      tag_35\n      jump\t// in\n    tag_42:\n        /* \"#utility.yul\":2412:2417   */\n      dup2\n        /* \"#utility.yul\":2409:2444   */\n      eq\n        /* \"#utility.yul\":2399:2462   */\n      tag_43\n      jumpi\n        /* \"#utility.yul\":2458:2459   */\n      0x00\n        /* \"#utility.yul\":2455:2456   */\n      dup1\n        /* \"#utility.yul\":2448:2460   */\n      revert\n        /* \"#utility.yul\":2399:2462   */\n    tag_43:\n        /* \"#utility.yul\":2346:2468   */\n      pop\n      jump\t// out\n\n    auxdata: 0xa264697066735822122082c964eebfa1085c9889c74912d8955d0854c4c603c4ec8191b0004ce1493eef64736f6c63430008070033\n}\n",
				"bytecode": {
					"linkReferences": {},
					"object": "608060405234801561001057600080fd5b5033600460006101000a81548173ffffffffffffffffffffffffffffffffffffffff021916908373ffffffffffffffffffffffffffffffffffffffff16021790555061023d806100616000396000f3fe608060405234801561001057600080fd5b506004361061002b5760003560e01c8063235eed6014610030575b600080fd5b61004a60048036038101906100459190610111565b61004c565b005b6000339050600460009054906101000a900473ffffffffffffffffffffffffffffffffffffffff1673ffffffffffffffffffffffffffffffffffffffff168173ffffffffffffffffffffffffffffffffffffffff16146100e1576040517f08c379a00000000000000000000000000000000000000000000000000000000081526004016100d890610187565b60405180910390fd5b83600081905550826001819055508160028190555050505050565b60008135905061010b816101f0565b92915050565b60008060006060848603121561012a576101296101c2565b5b6000610138868287016100fc565b9350506020610149868287016100fc565b925050604061015a868287016100fc565b9150509250925092565b6000610171601f836101a7565b915061017c826101c7565b602082019050919050565b600060208201905081810360008301526101a081610164565b9050919050565b600082825260208201905092915050565b6000819050919050565b600080fd5b7f4f6e6c79206f776e65722063616e207374617274206e657720736561736f6e00600082015250565b6101f9816101b8565b811461020457600080fd5b5056fea264697066735822122082c964eebfa1085c9889c74912d8955d0854c4c603c4ec8191b0004ce1493eef64736f6c63430008070033",
					"opcodes": "PUSH1 0x80 PUSH1 0x40 MSTORE CALLVALUE DUP1 ISZERO PUSH2 0x10 JUMPI PUSH1 0x0 DUP1 REVERT JUMPDEST POP CALLER PUSH1 0x4 PUSH1 0x0 PUSH2 0x100 EXP DUP2 SLOAD DUP2 PUSH20 0xFFFFFFFFFFFFFFFFFFFFFFFFFFFFFFFFFFFFFFFF MUL NOT AND SWAP1 DUP4 PUSH20 0xFFFFFFFFFFFFFFFFFFFFFFFFFFFFFFFFFFFFFFFF AND MUL OR SWAP1 SSTORE POP PUSH2 0x23D DUP1 PUSH2 0x61 PUSH1 0x0 CODECOPY PUSH1 0x0 RETURN INVALID PUSH1 0x80 PUSH1 0x40 MSTORE CALLVALUE DUP1 ISZERO PUSH2 0x10 JUMPI PUSH1 0x0 DUP1 REVERT JUMPDEST POP PUSH1 0x4 CALLDATASIZE LT PUSH2 0x2B JUMPI PUSH1 0x0 CALLDATALOAD PUSH1 0xE0 SHR DUP1 PUSH4 0x235EED60 EQ PUSH2 0x30 JUMPI JUMPDEST PUSH1 0x0 DUP1 REVERT JUMPDEST PUSH2 0x4A PUSH1 0x4 DUP1 CALLDATASIZE SUB DUP2 ADD SWAP1 PUSH2 0x45 SWAP2 SWAP1 PUSH2 0x111 JUMP JUMPDEST PUSH2 0x4C JUMP JUMPDEST STOP JUMPDEST PUSH1 0x0 CALLER SWAP1 POP PUSH1 0x4 PUSH1 0x0 SWAP1 SLOAD SWAP1 PUSH2 0x100 EXP SWAP1 DIV PUSH20 0xFFFFFFFFFFFFFFFFFFFFFFFFFFFFFFFFFFFFFFFF AND PUSH20 0xFFFFFFFFFFFFFFFFFFFFFFFFFFFFFFFFFFFFFFFF AND DUP2 PUSH20 0xFFFFFFFFFFFFFFFFFFFFFFFFFFFFFFFFFFFFFFFF AND EQ PUSH2 0xE1 JUMPI PUSH1 0x40 MLOAD PUSH32 0x8C379A000000000000000000000000000000000000000000000000000000000 DUP2 MSTORE PUSH1 0x4 ADD PUSH2 0xD8 SWAP1 PUSH2 0x187 JUMP JUMPDEST PUSH1 0x40 MLOAD DUP1 SWAP2 SUB SWAP1 REVERT JUMPDEST DUP4 PUSH1 0x0 DUP2 SWAP1 SSTORE POP DUP3 PUSH1 0x1 DUP2 SWAP1 SSTORE POP DUP2 PUSH1 0x2 DUP2 SWAP1 SSTORE POP POP POP POP POP JUMP JUMPDEST PUSH1 0x0 DUP2 CALLDATALOAD SWAP1 POP PUSH2 0x10B DUP2 PUSH2 0x1F0 JUMP JUMPDEST SWAP3 SWAP2 POP POP JUMP JUMPDEST PUSH1 0x0 DUP1 PUSH1 0x0 PUSH1 0x60 DUP5 DUP7 SUB SLT ISZERO PUSH2 0x12A JUMPI PUSH2 0x129 PUSH2 0x1C2 JUMP JUMPDEST JUMPDEST PUSH1 0x0 PUSH2 0x138 DUP7 DUP3 DUP8 ADD PUSH2 0xFC JUMP JUMPDEST SWAP4 POP POP PUSH1 0x20 PUSH2 0x149 DUP7 DUP3 DUP8 ADD PUSH2 0xFC JUMP JUMPDEST SWAP3 POP POP PUSH1 0x40 PUSH2 0x15A DUP7 DUP3 DUP8 ADD PUSH2 0xFC JUMP JUMPDEST SWAP2 POP POP SWAP3 POP SWAP3 POP SWAP3 JUMP JUMPDEST PUSH1 0x0 PUSH2 0x171 PUSH1 0x1F DUP4 PUSH2 0x1A7 JUMP JUMPDEST SWAP2 POP PUSH2 0x17C DUP3 PUSH2 0x1C7 JUMP JUMPDEST PUSH1 0x20 DUP3 ADD SWAP1 POP SWAP2 SWAP1 POP JUMP JUMPDEST PUSH1 0x0 PUSH1 0x20 DUP3 ADD SWAP1 POP DUP2 DUP2 SUB PUSH1 0x0 DUP4 ADD MSTORE PUSH2 0x1A0 DUP2 PUSH2 0x164 JUMP JUMPDEST SWAP1 POP SWAP2 SWAP1 POP JUMP JUMPDEST PUSH1 0x0 DUP3 DUP3 MSTORE PUSH1 0x20 DUP3 ADD SWAP1 POP SWAP3 SWAP2 POP POP JUMP JUMPDEST PUSH1 0x0 DUP2 SWAP1 POP SWAP2 SWAP1 POP JUMP JUMPDEST PUSH1 0x0 DUP1 REVERT JUMPDEST PUSH32 0x4F6E6C79206F776E65722063616E207374617274206E657720736561736F6E00 PUSH1 0x0 DUP3 ADD MSTORE POP JUMP JUMPDEST PUSH2 0x1F9 DUP2 PUSH2 0x1B8 JUMP JUMPDEST DUP2 EQ PUSH2 0x204 JUMPI PUSH1 0x0 DUP1 REVERT JUMPDEST POP JUMP INVALID LOG2 PUSH5 0x6970667358 0x22 SLT KECCAK256 DUP3 0xC9 PUSH5 0xEEBFA1085C SWAP9 DUP10 0xC7 0x49 SLT 0xD8 SWAP6 0x5D ADDMOD SLOAD 0xC4 0xC6 SUB 0xC4 0xEC DUP2 SWAP2 0xB0 STOP 0x4C 0xE1 0x49 RETURNDATACOPY 0xEF PUSH5 0x736F6C6343 STOP ADDMOD SMOD STOP CALLER "
				},
				"gasEstimates": {
					"creation": {
						"codeDepositCost": "114600",
						"executionCost": "24425",
						"totalCost": "139025"
					},
					"external": {
						"newSeason(uint256,uint256,uint256)": "infinite"
					}
				},
				"methodIdentifiers": {
					"newSeason(uint256,uint256,uint256)": "235eed60"
				}
			},
			"storageLayout": {
				"storage": [
					{
						"astId": 7,
						"contract": "Code/WaterCoinRules.sol:WaterCoinRules",
						"label": "A_supply",
						"offset": 0,
						"slot": "0",
						"type": "t_uint256"
					},
					{
						"astId": 9,
						"contract": "Code/WaterCoinRules.sol:WaterCoinRules",
						"label": "B_supply",
						"offset": 0,
						"slot": "1",
						"type": "t_uint256"
					},
					{
						"astId": 11,
						"contract": "Code/WaterCoinRules.sol:WaterCoinRules",
						"label": "C_supply",
						"offset": 0,
						"slot": "2",
						"type": "t_uint256"
					},
					{
						"astId": 17,
						"contract": "Code/WaterCoinRules.sol:WaterCoinRules",
						"label": "brackTradeAllowance",
						"offset": 0,
						"slot": "3",
						"type": "t_mapping(t_enum(CoinTypes)5,t_enum(CoinTypes)5)"
					},
					{
						"astId": 19,
						"contract": "Code/WaterCoinRules.sol:WaterCoinRules",
						"label": "_owner",
						"offset": 0,
						"slot": "4",
						"type": "t_address"
					}
				],
				"types": {
					"t_address": {
						"encoding": "inplace",
						"label": "address",
						"numberOfBytes": "20"
					},
					"t_enum(CoinTypes)5": {
						"encoding": "inplace",
						"label": "enum WaterCoinRules.CoinTypes",
						"numberOfBytes": "1"
					},
					"t_mapping(t_enum(CoinTypes)5,t_enum(CoinTypes)5)": {
						"encoding": "mapping",
						"key": "t_enum(CoinTypes)5",
						"label": "mapping(enum WaterCoinRules.CoinTypes => enum WaterCoinRules.CoinTypes)",
						"numberOfBytes": "32",
						"value": "t_enum(CoinTypes)5"
					},
					"t_uint256": {
						"encoding": "inplace",
						"label": "uint256",
						"numberOfBytes": "32"
					}
				}
			},
			"userdoc": {
				"kind": "user",
				"methods": {},
				"version": 1
			}
		}
	}
}