{
	"Code/CoinA.sol": {
		"ERC20": {
			"abi": [
				{
					"inputs": [],
					"stateMutability": "nonpayable",
					"type": "constructor"
				},
				{
					"anonymous": false,
					"inputs": [
						{
							"indexed": false,
							"internalType": "enum ERC20.CoinTypes",
							"name": "coin",
							"type": "uint8"
						},
						{
							"indexed": true,
							"internalType": "address",
							"name": "from",
							"type": "address"
						},
						{
							"indexed": true,
							"internalType": "address",
							"name": "to",
							"type": "address"
						},
						{
							"indexed": false,
							"internalType": "uint256",
							"name": "value",
							"type": "uint256"
						}
					],
					"name": "Transfer",
					"type": "event"
				},
				{
					"inputs": [
						{
							"internalType": "enum ERC20.CoinTypes",
							"name": "coin",
							"type": "uint8"
						},
						{
							"internalType": "address",
							"name": "_person",
							"type": "address"
						}
					],
					"name": "balanceOf",
					"outputs": [
						{
							"internalType": "uint256",
							"name": "",
							"type": "uint256"
						}
					],
					"stateMutability": "view",
					"type": "function"
				},
				{
					"inputs": [],
					"name": "decimals",
					"outputs": [
						{
							"internalType": "uint256",
							"name": "",
							"type": "uint256"
						}
					],
					"stateMutability": "pure",
					"type": "function"
				},
				{
					"inputs": [
						{
							"internalType": "enum ERC20.CoinTypes",
							"name": "coin",
							"type": "uint8"
						},
						{
							"internalType": "uint256",
							"name": "_value",
							"type": "uint256"
						}
					],
					"name": "mint",
					"outputs": [
						{
							"internalType": "bool",
							"name": "",
							"type": "bool"
						}
					],
					"stateMutability": "nonpayable",
					"type": "function"
				},
				{
					"inputs": [],
					"name": "name",
					"outputs": [
						{
							"internalType": "string",
							"name": "",
							"type": "string"
						}
					],
					"stateMutability": "pure",
					"type": "function"
				},
				{
					"inputs": [],
					"name": "symbol",
					"outputs": [
						{
							"internalType": "string",
							"name": "",
							"type": "string"
						}
					],
					"stateMutability": "pure",
					"type": "function"
				},
				{
					"inputs": [],
					"name": "totalSupply",
					"outputs": [
						{
							"internalType": "uint256",
							"name": "",
							"type": "uint256"
						}
					],
					"stateMutability": "view",
					"type": "function"
				},
				{
					"inputs": [
						{
							"internalType": "enum ERC20.CoinTypes",
							"name": "coin",
							"type": "uint8"
						},
						{
							"internalType": "address",
							"name": "_to",
							"type": "address"
						},
						{
							"internalType": "uint256",
							"name": "_value",
							"type": "uint256"
						}
					],
					"name": "transfer",
					"outputs": [
						{
							"internalType": "bool",
							"name": "",
							"type": "bool"
						}
					],
					"stateMutability": "nonpayable",
					"type": "function"
				}
			],
			"devdoc": {
				"kind": "dev",
				"methods": {},
				"version": 1
			},
			"evm": {
				"assembly": "    /* \"Code/CoinA.sol\":1:2875  contract ERC20 {... */\n  mstore(0x40, 0x80)\n    /* \"Code/CoinA.sol\":409:459  constructor() {... */\n  callvalue\n  dup1\n  iszero\n  tag_1\n  jumpi\n  0x00\n  dup1\n  revert\ntag_1:\n  pop\n    /* \"Code/CoinA.sol\":442:452  msg.sender */\n  caller\n    /* \"Code/CoinA.sol\":433:439  _owner */\n  0x04\n  0x00\n    /* \"Code/CoinA.sol\":433:452  _owner = msg.sender */\n  0x0100\n  exp\n  dup2\n  sload\n  dup2\n  0xffffffffffffffffffffffffffffffffffffffff\n  mul\n  not\n  and\n  swap1\n  dup4\n  0xffffffffffffffffffffffffffffffffffffffff\n  and\n  mul\n  or\n  swap1\n  sstore\n  pop\n    /* \"Code/CoinA.sol\":1:2875  contract ERC20 {... */\n  dataSize(sub_0)\n  dup1\n  dataOffset(sub_0)\n  0x00\n  codecopy\n  0x00\n  return\nstop\n\nsub_0: assembly {\n        /* \"Code/CoinA.sol\":1:2875  contract ERC20 {... */\n      mstore(0x40, 0x80)\n      callvalue\n      dup1\n      iszero\n      tag_1\n      jumpi\n      0x00\n      dup1\n      revert\n    tag_1:\n      pop\n      jumpi(tag_2, lt(calldatasize, 0x04))\n      shr(0xe0, calldataload(0x00))\n      dup1\n      0x88327863\n      gt\n      tag_10\n      jumpi\n      dup1\n      0x88327863\n      eq\n      tag_6\n      jumpi\n      dup1\n      0x95d89b41\n      eq\n      tag_7\n      jumpi\n      dup1\n      0xb0017321\n      eq\n      tag_8\n      jumpi\n      dup1\n      0xf26748e2\n      eq\n      tag_9\n      jumpi\n      jump(tag_2)\n    tag_10:\n      dup1\n      0x06fdde03\n      eq\n      tag_3\n      jumpi\n      dup1\n      0x18160ddd\n      eq\n      tag_4\n      jumpi\n      dup1\n      0x313ce567\n      eq\n      tag_5\n      jumpi\n    tag_2:\n      0x00\n      dup1\n      revert\n        /* \"Code/CoinA.sol\":784:874  function name() external pure returns (string memory) {... */\n    tag_3:\n      tag_11\n      tag_12\n      jump\t// in\n    tag_11:\n      mload(0x40)\n      tag_13\n      swap2\n      swap1\n      tag_14\n      jump\t// in\n    tag_13:\n      mload(0x40)\n      dup1\n      swap2\n      sub\n      swap1\n      return\n        /* \"Code/CoinA.sol\":1054:1145  function totalSupply() external view returns (uint256) {... */\n    tag_4:\n      tag_15\n      tag_16\n      jump\t// in\n    tag_15:\n      mload(0x40)\n      tag_17\n      swap2\n      swap1\n      tag_18\n      jump\t// in\n    tag_17:\n      mload(0x40)\n      dup1\n      swap2\n      sub\n      swap1\n      return\n        /* \"Code/CoinA.sol\":972:1048  function decimals () external pure returns (uint) {... */\n    tag_5:\n      tag_19\n      tag_20\n      jump\t// in\n    tag_19:\n      mload(0x40)\n      tag_21\n      swap2\n      swap1\n      tag_18\n      jump\t// in\n    tag_21:\n      mload(0x40)\n      dup1\n      swap2\n      sub\n      swap1\n      return\n        /* \"Code/CoinA.sol\":1151:1402  function balanceOf(CoinTypes coin, address _person) external view returns (uint256) {... */\n    tag_6:\n      tag_22\n      0x04\n      dup1\n      calldatasize\n      sub\n      dup2\n      add\n      swap1\n      tag_23\n      swap2\n      swap1\n      tag_24\n      jump\t// in\n    tag_23:\n      tag_25\n      jump\t// in\n    tag_22:\n      mload(0x40)\n      tag_26\n      swap2\n      swap1\n      tag_18\n      jump\t// in\n    tag_26:\n      mload(0x40)\n      dup1\n      swap2\n      sub\n      swap1\n      return\n        /* \"Code/CoinA.sol\":880:966  function symbol() external pure returns (string memory) {... */\n    tag_7:\n      tag_27\n      tag_28\n      jump\t// in\n    tag_27:\n      mload(0x40)\n      tag_29\n      swap2\n      swap1\n      tag_14\n      jump\t// in\n    tag_29:\n      mload(0x40)\n      dup1\n      swap2\n      sub\n      swap1\n      return\n        /* \"Code/CoinA.sol\":1408:2167  function transfer (CoinTypes coin, address _to, uint256 _value) external invariance returns (bool) {... */\n    tag_8:\n      tag_30\n      0x04\n      dup1\n      calldatasize\n      sub\n      dup2\n      add\n      swap1\n      tag_31\n      swap2\n      swap1\n      tag_32\n      jump\t// in\n    tag_31:\n      tag_33\n      jump\t// in\n    tag_30:\n      mload(0x40)\n      tag_34\n      swap2\n      swap1\n      tag_35\n      jump\t// in\n    tag_34:\n      mload(0x40)\n      dup1\n      swap2\n      sub\n      swap1\n      return\n        /* \"Code/CoinA.sol\":2173:2872  function mint(CoinTypes coin, uint256 _value) external onlyOwner returns (bool) {... */\n    tag_9:\n      tag_36\n      0x04\n      dup1\n      calldatasize\n      sub\n      dup2\n      add\n      swap1\n      tag_37\n      swap2\n      swap1\n      tag_38\n      jump\t// in\n    tag_37:\n      tag_39\n      jump\t// in\n    tag_36:\n      mload(0x40)\n      tag_40\n      swap2\n      swap1\n      tag_35\n      jump\t// in\n    tag_40:\n      mload(0x40)\n      dup1\n      swap2\n      sub\n      swap1\n      return\n        /* \"Code/CoinA.sol\":784:874  function name() external pure returns (string memory) {... */\n    tag_12:\n        /* \"Code/CoinA.sol\":823:836  string memory */\n      0x60\n        /* \"Code/CoinA.sol\":848:867  return \"Water Coin\" */\n      mload(0x40)\n      dup1\n      0x40\n      add\n      0x40\n      mstore\n      dup1\n      0x0a\n      dup2\n      mstore\n      0x20\n      add\n      0x576174657220436f696e00000000000000000000000000000000000000000000\n      dup2\n      mstore\n      pop\n      swap1\n      pop\n        /* \"Code/CoinA.sol\":784:874  function name() external pure returns (string memory) {... */\n      swap1\n      jump\t// out\n        /* \"Code/CoinA.sol\":1054:1145  function totalSupply() external view returns (uint256) {... */\n    tag_16:\n        /* \"Code/CoinA.sol\":1100:1107  uint256 */\n      0x00\n        /* \"Code/CoinA.sol\":1126:1138  _totalSupply */\n      sload(0x03)\n        /* \"Code/CoinA.sol\":1119:1138  return _totalSupply */\n      swap1\n      pop\n        /* \"Code/CoinA.sol\":1054:1145  function totalSupply() external view returns (uint256) {... */\n      swap1\n      jump\t// out\n        /* \"Code/CoinA.sol\":972:1048  function decimals () external pure returns (uint) {... */\n    tag_20:\n        /* \"Code/CoinA.sol\":1016:1020  uint */\n      0x00\n        /* \"Code/CoinA.sol\":1039:1041  18 */\n      0x12\n        /* \"Code/CoinA.sol\":1032:1041  return 18 */\n      swap1\n      pop\n        /* \"Code/CoinA.sol\":972:1048  function decimals () external pure returns (uint) {... */\n      swap1\n      jump\t// out\n        /* \"Code/CoinA.sol\":1151:1402  function balanceOf(CoinTypes coin, address _person) external view returns (uint256) {... */\n    tag_25:\n        /* \"Code/CoinA.sol\":1226:1233  uint256 */\n      0x00\n        /* \"Code/CoinA.sol\":1257:1268  CoinTypes.A */\n      dup1\n        /* \"Code/CoinA.sol\":1249:1268  coin == CoinTypes.A */\n      0x02\n      dup2\n      gt\n      iszero\n      tag_45\n      jumpi\n      tag_46\n      tag_47\n      jump\t// in\n    tag_46:\n    tag_45:\n        /* \"Code/CoinA.sol\":1249:1253  coin */\n      dup4\n        /* \"Code/CoinA.sol\":1249:1268  coin == CoinTypes.A */\n      0x02\n      dup2\n      gt\n      iszero\n      tag_48\n      jumpi\n      tag_49\n      tag_47\n      jump\t// in\n    tag_49:\n    tag_48:\n      eq\n        /* \"Code/CoinA.sol\":1245:1298  if (coin == CoinTypes.A){return _Abalances[_person];} */\n      iszero\n      tag_50\n      jumpi\n        /* \"Code/CoinA.sol\":1277:1287  _Abalances */\n      0x05\n        /* \"Code/CoinA.sol\":1277:1296  _Abalances[_person] */\n      0x00\n        /* \"Code/CoinA.sol\":1288:1295  _person */\n      dup4\n        /* \"Code/CoinA.sol\":1277:1296  _Abalances[_person] */\n      0xffffffffffffffffffffffffffffffffffffffff\n      and\n      0xffffffffffffffffffffffffffffffffffffffff\n      and\n      dup2\n      mstore\n      0x20\n      add\n      swap1\n      dup2\n      mstore\n      0x20\n      add\n      0x00\n      keccak256\n      sload\n        /* \"Code/CoinA.sol\":1270:1296  return _Abalances[_person] */\n      swap1\n      pop\n      jump(tag_44)\n        /* \"Code/CoinA.sol\":1245:1298  if (coin == CoinTypes.A){return _Abalances[_person];} */\n    tag_50:\n        /* \"Code/CoinA.sol\":1319:1330  CoinTypes.B */\n      0x01\n        /* \"Code/CoinA.sol\":1311:1330  coin == CoinTypes.B */\n      0x02\n      dup2\n      gt\n      iszero\n      tag_51\n      jumpi\n      tag_52\n      tag_47\n      jump\t// in\n    tag_52:\n    tag_51:\n        /* \"Code/CoinA.sol\":1311:1315  coin */\n      dup4\n        /* \"Code/CoinA.sol\":1311:1330  coin == CoinTypes.B */\n      0x02\n      dup2\n      gt\n      iszero\n      tag_53\n      jumpi\n      tag_54\n      tag_47\n      jump\t// in\n    tag_54:\n    tag_53:\n      eq\n        /* \"Code/CoinA.sol\":1307:1360  if (coin == CoinTypes.B){return _Bbalances[_person];} */\n      iszero\n      tag_55\n      jumpi\n        /* \"Code/CoinA.sol\":1339:1349  _Bbalances */\n      0x06\n        /* \"Code/CoinA.sol\":1339:1358  _Bbalances[_person] */\n      0x00\n        /* \"Code/CoinA.sol\":1350:1357  _person */\n      dup4\n        /* \"Code/CoinA.sol\":1339:1358  _Bbalances[_person] */\n      0xffffffffffffffffffffffffffffffffffffffff\n      and\n      0xffffffffffffffffffffffffffffffffffffffff\n      and\n      dup2\n      mstore\n      0x20\n      add\n      swap1\n      dup2\n      mstore\n      0x20\n      add\n      0x00\n      keccak256\n      sload\n        /* \"Code/CoinA.sol\":1332:1358  return _Bbalances[_person] */\n      swap1\n      pop\n      jump(tag_44)\n        /* \"Code/CoinA.sol\":1307:1360  if (coin == CoinTypes.B){return _Bbalances[_person];} */\n    tag_55:\n        /* \"Code/CoinA.sol\":1376:1386  _Cbalances */\n      0x07\n        /* \"Code/CoinA.sol\":1376:1395  _Cbalances[_person] */\n      0x00\n        /* \"Code/CoinA.sol\":1387:1394  _person */\n      dup4\n        /* \"Code/CoinA.sol\":1376:1395  _Cbalances[_person] */\n      0xffffffffffffffffffffffffffffffffffffffff\n      and\n      0xffffffffffffffffffffffffffffffffffffffff\n      and\n      dup2\n      mstore\n      0x20\n      add\n      swap1\n      dup2\n      mstore\n      0x20\n      add\n      0x00\n      keccak256\n      sload\n        /* \"Code/CoinA.sol\":1369:1395  return _Cbalances[_person] */\n      swap1\n      pop\n        /* \"Code/CoinA.sol\":1151:1402  function balanceOf(CoinTypes coin, address _person) external view returns (uint256) {... */\n    tag_44:\n      swap3\n      swap2\n      pop\n      pop\n      jump\t// out\n        /* \"Code/CoinA.sol\":880:966  function symbol() external pure returns (string memory) {... */\n    tag_28:\n        /* \"Code/CoinA.sol\":921:934  string memory */\n      0x60\n        /* \"Code/CoinA.sol\":947:959  return \"WAC\" */\n      mload(0x40)\n      dup1\n      0x40\n      add\n      0x40\n      mstore\n      dup1\n      0x03\n      dup2\n      mstore\n      0x20\n      add\n      0x5741430000000000000000000000000000000000000000000000000000000000\n      dup2\n      mstore\n      pop\n      swap1\n      pop\n        /* \"Code/CoinA.sol\":880:966  function symbol() external pure returns (string memory) {... */\n      swap1\n      jump\t// out\n        /* \"Code/CoinA.sol\":1408:2167  function transfer (CoinTypes coin, address _to, uint256 _value) external invariance returns (bool) {... */\n    tag_33:\n        /* \"Code/CoinA.sol\":1501:1505  bool */\n      0x00\n        /* \"Code/CoinA.sol\":604:626  uint256 oldTotalSupply */\n      dup1\n        /* \"Code/CoinA.sol\":629:641  _totalSupply */\n      sload(0x03)\n        /* \"Code/CoinA.sol\":604:641  uint256 oldTotalSupply = _totalSupply */\n      swap1\n      pop\n        /* \"Code/CoinA.sol\":1517:1529  address from */\n      0x00\n        /* \"Code/CoinA.sol\":1532:1542  msg.sender */\n      caller\n        /* \"Code/CoinA.sol\":1517:1542  address from = msg.sender */\n      swap1\n      pop\n        /* \"Code/CoinA.sol\":1565:1576  CoinTypes.A */\n      0x00\n        /* \"Code/CoinA.sol\":1557:1576  coin == CoinTypes.A */\n      0x02\n      dup2\n      gt\n      iszero\n      tag_59\n      jumpi\n      tag_60\n      tag_47\n      jump\t// in\n    tag_60:\n    tag_59:\n        /* \"Code/CoinA.sol\":1557:1561  coin */\n      dup7\n        /* \"Code/CoinA.sol\":1557:1576  coin == CoinTypes.A */\n      0x02\n      dup2\n      gt\n      iszero\n      tag_61\n      jumpi\n      tag_62\n      tag_47\n      jump\t// in\n    tag_62:\n    tag_61:\n      eq\n        /* \"Code/CoinA.sol\":1553:1716  if (coin == CoinTypes.A){... */\n      iszero\n      tag_63\n      jumpi\n        /* \"Code/CoinA.sol\":1619:1625  _value */\n      dup4\n        /* \"Code/CoinA.sol\":1599:1609  _Abalances */\n      0x05\n        /* \"Code/CoinA.sol\":1599:1615  _Abalances[from] */\n      0x00\n        /* \"Code/CoinA.sol\":1610:1614  from */\n      dup4\n        /* \"Code/CoinA.sol\":1599:1615  _Abalances[from] */\n      0xffffffffffffffffffffffffffffffffffffffff\n      and\n      0xffffffffffffffffffffffffffffffffffffffff\n      and\n      dup2\n      mstore\n      0x20\n      add\n      swap1\n      dup2\n      mstore\n      0x20\n      add\n      0x00\n      keccak256\n      sload\n        /* \"Code/CoinA.sol\":1599:1625  _Abalances[from] >= _value */\n      lt\n      iszero\n        /* \"Code/CoinA.sol\":1591:1626  require(_Abalances[from] >= _value) */\n      tag_64\n      jumpi\n      0x00\n      dup1\n      revert\n    tag_64:\n        /* \"Code/CoinA.sol\":1660:1666  _value */\n      dup4\n        /* \"Code/CoinA.sol\":1640:1650  _Abalances */\n      0x05\n        /* \"Code/CoinA.sol\":1640:1656  _Abalances[from] */\n      0x00\n        /* \"Code/CoinA.sol\":1651:1655  from */\n      dup4\n        /* \"Code/CoinA.sol\":1640:1656  _Abalances[from] */\n      0xffffffffffffffffffffffffffffffffffffffff\n      and\n      0xffffffffffffffffffffffffffffffffffffffff\n      and\n      dup2\n      mstore\n      0x20\n      add\n      swap1\n      dup2\n      mstore\n      0x20\n      add\n      0x00\n      keccak256\n      0x00\n        /* \"Code/CoinA.sol\":1640:1666  _Abalances[from] -= _value */\n      dup3\n      dup3\n      sload\n      tag_65\n      swap2\n      swap1\n      tag_66\n      jump\t// in\n    tag_65:\n      swap3\n      pop\n      pop\n      dup2\n      swap1\n      sstore\n      pop\n        /* \"Code/CoinA.sol\":1699:1705  _value */\n      dup4\n        /* \"Code/CoinA.sol\":1680:1690  _Abalances */\n      0x05\n        /* \"Code/CoinA.sol\":1680:1695  _Abalances[_to] */\n      0x00\n        /* \"Code/CoinA.sol\":1691:1694  _to */\n      dup8\n        /* \"Code/CoinA.sol\":1680:1695  _Abalances[_to] */\n      0xffffffffffffffffffffffffffffffffffffffff\n      and\n      0xffffffffffffffffffffffffffffffffffffffff\n      and\n      dup2\n      mstore\n      0x20\n      add\n      swap1\n      dup2\n      mstore\n      0x20\n      add\n      0x00\n      keccak256\n      0x00\n        /* \"Code/CoinA.sol\":1680:1705  _Abalances[_to] += _value */\n      dup3\n      dup3\n      sload\n      tag_67\n      swap2\n      swap1\n      tag_68\n      jump\t// in\n    tag_67:\n      swap3\n      pop\n      pop\n      dup2\n      swap1\n      sstore\n      pop\n        /* \"Code/CoinA.sol\":1553:1716  if (coin == CoinTypes.A){... */\n    tag_63:\n        /* \"Code/CoinA.sol\":1737:1748  CoinTypes.B */\n      0x01\n        /* \"Code/CoinA.sol\":1729:1748  coin == CoinTypes.B */\n      0x02\n      dup2\n      gt\n      iszero\n      tag_69\n      jumpi\n      tag_70\n      tag_47\n      jump\t// in\n    tag_70:\n    tag_69:\n        /* \"Code/CoinA.sol\":1729:1733  coin */\n      dup7\n        /* \"Code/CoinA.sol\":1729:1748  coin == CoinTypes.B */\n      0x02\n      dup2\n      gt\n      iszero\n      tag_71\n      jumpi\n      tag_72\n      tag_47\n      jump\t// in\n    tag_72:\n    tag_71:\n      eq\n        /* \"Code/CoinA.sol\":1725:1888  if (coin == CoinTypes.B){... */\n      iszero\n      tag_73\n      jumpi\n        /* \"Code/CoinA.sol\":1791:1797  _value */\n      dup4\n        /* \"Code/CoinA.sol\":1771:1781  _Bbalances */\n      0x06\n        /* \"Code/CoinA.sol\":1771:1787  _Bbalances[from] */\n      0x00\n        /* \"Code/CoinA.sol\":1782:1786  from */\n      dup4\n        /* \"Code/CoinA.sol\":1771:1787  _Bbalances[from] */\n      0xffffffffffffffffffffffffffffffffffffffff\n      and\n      0xffffffffffffffffffffffffffffffffffffffff\n      and\n      dup2\n      mstore\n      0x20\n      add\n      swap1\n      dup2\n      mstore\n      0x20\n      add\n      0x00\n      keccak256\n      sload\n        /* \"Code/CoinA.sol\":1771:1797  _Bbalances[from] >= _value */\n      lt\n      iszero\n        /* \"Code/CoinA.sol\":1763:1798  require(_Bbalances[from] >= _value) */\n      tag_74\n      jumpi\n      0x00\n      dup1\n      revert\n    tag_74:\n        /* \"Code/CoinA.sol\":1832:1838  _value */\n      dup4\n        /* \"Code/CoinA.sol\":1812:1822  _Bbalances */\n      0x06\n        /* \"Code/CoinA.sol\":1812:1828  _Bbalances[from] */\n      0x00\n        /* \"Code/CoinA.sol\":1823:1827  from */\n      dup4\n        /* \"Code/CoinA.sol\":1812:1828  _Bbalances[from] */\n      0xffffffffffffffffffffffffffffffffffffffff\n      and\n      0xffffffffffffffffffffffffffffffffffffffff\n      and\n      dup2\n      mstore\n      0x20\n      add\n      swap1\n      dup2\n      mstore\n      0x20\n      add\n      0x00\n      keccak256\n      0x00\n        /* \"Code/CoinA.sol\":1812:1838  _Bbalances[from] -= _value */\n      dup3\n      dup3\n      sload\n      tag_75\n      swap2\n      swap1\n      tag_66\n      jump\t// in\n    tag_75:\n      swap3\n      pop\n      pop\n      dup2\n      swap1\n      sstore\n      pop\n        /* \"Code/CoinA.sol\":1871:1877  _value */\n      dup4\n        /* \"Code/CoinA.sol\":1852:1862  _Bbalances */\n      0x06\n        /* \"Code/CoinA.sol\":1852:1867  _Bbalances[_to] */\n      0x00\n        /* \"Code/CoinA.sol\":1863:1866  _to */\n      dup8\n        /* \"Code/CoinA.sol\":1852:1867  _Bbalances[_to] */\n      0xffffffffffffffffffffffffffffffffffffffff\n      and\n      0xffffffffffffffffffffffffffffffffffffffff\n      and\n      dup2\n      mstore\n      0x20\n      add\n      swap1\n      dup2\n      mstore\n      0x20\n      add\n      0x00\n      keccak256\n      0x00\n        /* \"Code/CoinA.sol\":1852:1877  _Bbalances[_to] += _value */\n      dup3\n      dup3\n      sload\n      tag_76\n      swap2\n      swap1\n      tag_68\n      jump\t// in\n    tag_76:\n      swap3\n      pop\n      pop\n      dup2\n      swap1\n      sstore\n      pop\n        /* \"Code/CoinA.sol\":1725:1888  if (coin == CoinTypes.B){... */\n    tag_73:\n        /* \"Code/CoinA.sol\":1909:1920  CoinTypes.C */\n      0x02\n        /* \"Code/CoinA.sol\":1901:1920  coin == CoinTypes.C */\n      dup1\n      dup2\n      gt\n      iszero\n      tag_77\n      jumpi\n      tag_78\n      tag_47\n      jump\t// in\n    tag_78:\n    tag_77:\n        /* \"Code/CoinA.sol\":1901:1905  coin */\n      dup7\n        /* \"Code/CoinA.sol\":1901:1920  coin == CoinTypes.C */\n      0x02\n      dup2\n      gt\n      iszero\n      tag_79\n      jumpi\n      tag_80\n      tag_47\n      jump\t// in\n    tag_80:\n    tag_79:\n      eq\n        /* \"Code/CoinA.sol\":1897:2089  if (coin == CoinTypes.C){... */\n      iszero\n      tag_81\n      jumpi\n        /* \"Code/CoinA.sol\":1963:1969  _value */\n      dup4\n        /* \"Code/CoinA.sol\":1943:1953  _Cbalances */\n      0x07\n        /* \"Code/CoinA.sol\":1943:1959  _Cbalances[from] */\n      0x00\n        /* \"Code/CoinA.sol\":1954:1958  from */\n      dup4\n        /* \"Code/CoinA.sol\":1943:1959  _Cbalances[from] */\n      0xffffffffffffffffffffffffffffffffffffffff\n      and\n      0xffffffffffffffffffffffffffffffffffffffff\n      and\n      dup2\n      mstore\n      0x20\n      add\n      swap1\n      dup2\n      mstore\n      0x20\n      add\n      0x00\n      keccak256\n      sload\n        /* \"Code/CoinA.sol\":1943:1969  _Cbalances[from] >= _value */\n      lt\n      iszero\n        /* \"Code/CoinA.sol\":1935:1970  require(_Cbalances[from] >= _value) */\n      tag_82\n      jumpi\n      0x00\n      dup1\n      revert\n    tag_82:\n        /* \"Code/CoinA.sol\":2004:2010  _value */\n      dup4\n        /* \"Code/CoinA.sol\":1984:1994  _Cbalances */\n      0x07\n        /* \"Code/CoinA.sol\":1984:2000  _Cbalances[from] */\n      0x00\n        /* \"Code/CoinA.sol\":1995:1999  from */\n      dup4\n        /* \"Code/CoinA.sol\":1984:2000  _Cbalances[from] */\n      0xffffffffffffffffffffffffffffffffffffffff\n      and\n      0xffffffffffffffffffffffffffffffffffffffff\n      and\n      dup2\n      mstore\n      0x20\n      add\n      swap1\n      dup2\n      mstore\n      0x20\n      add\n      0x00\n      keccak256\n      0x00\n        /* \"Code/CoinA.sol\":1984:2010  _Cbalances[from] -= _value */\n      dup3\n      dup3\n      sload\n      tag_83\n      swap2\n      swap1\n      tag_66\n      jump\t// in\n    tag_83:\n      swap3\n      pop\n      pop\n      dup2\n      swap1\n      sstore\n      pop\n        /* \"Code/CoinA.sol\":2043:2049  _value */\n      dup4\n        /* \"Code/CoinA.sol\":2024:2034  _Cbalances */\n      0x07\n        /* \"Code/CoinA.sol\":2024:2039  _Cbalances[_to] */\n      0x00\n        /* \"Code/CoinA.sol\":2035:2038  _to */\n      dup8\n        /* \"Code/CoinA.sol\":2024:2039  _Cbalances[_to] */\n      0xffffffffffffffffffffffffffffffffffffffff\n      and\n      0xffffffffffffffffffffffffffffffffffffffff\n      and\n      dup2\n      mstore\n      0x20\n      add\n      swap1\n      dup2\n      mstore\n      0x20\n      add\n      0x00\n      keccak256\n      0x00\n        /* \"Code/CoinA.sol\":2024:2049  _Cbalances[_to] += _value */\n      dup3\n      dup3\n      sload\n      tag_84\n      swap2\n      swap1\n      tag_68\n      jump\t// in\n    tag_84:\n      swap3\n      pop\n      pop\n      dup2\n      swap1\n      sstore\n      pop\n        /* \"Code/CoinA.sol\":1897:2089  if (coin == CoinTypes.C){... */\n      jump(tag_85)\n    tag_81:\n        /* \"Code/CoinA.sol\":2082:2087  false */\n      0x00\n        /* \"Code/CoinA.sol\":2075:2087  return false */\n      swap3\n      pop\n      pop\n      jump(tag_58)\n        /* \"Code/CoinA.sol\":1897:2089  if (coin == CoinTypes.C){... */\n    tag_85:\n        /* \"Code/CoinA.sol\":2126:2129  _to */\n      dup5\n        /* \"Code/CoinA.sol\":2105:2138  Transfer(coin, from, _to, _value) */\n      0xffffffffffffffffffffffffffffffffffffffff\n      and\n        /* \"Code/CoinA.sol\":2120:2124  from */\n      dup2\n        /* \"Code/CoinA.sol\":2105:2138  Transfer(coin, from, _to, _value) */\n      0xffffffffffffffffffffffffffffffffffffffff\n      and\n      0xe192cba3a5eabbf7ebf40ef51fc1b6d131e88803c56e37fa6daab2f7c450743d\n        /* \"Code/CoinA.sol\":2114:2118  coin */\n      dup9\n        /* \"Code/CoinA.sol\":2131:2137  _value */\n      dup8\n        /* \"Code/CoinA.sol\":2105:2138  Transfer(coin, from, _to, _value) */\n      mload(0x40)\n      tag_86\n      swap3\n      swap2\n      swap1\n      tag_87\n      jump\t// in\n    tag_86:\n      mload(0x40)\n      dup1\n      swap2\n      sub\n      swap1\n      log3\n        /* \"Code/CoinA.sol\":2156:2160  true */\n      0x01\n        /* \"Code/CoinA.sol\":2149:2160  return true */\n      swap3\n      pop\n      pop\n        /* \"Code/CoinA.sol\":651:652  _ */\n    tag_58:\n        /* \"Code/CoinA.sol\":662:684  uint256 newTotalSupply */\n      0x00\n        /* \"Code/CoinA.sol\":687:699  _totalSupply */\n      sload(0x03)\n        /* \"Code/CoinA.sol\":662:699  uint256 newTotalSupply = _totalSupply */\n      swap1\n      pop\n        /* \"Code/CoinA.sol\":736:750  newTotalSupply */\n      dup1\n        /* \"Code/CoinA.sol\":718:732  oldTotalSupply */\n      dup3\n        /* \"Code/CoinA.sol\":718:750  oldTotalSupply == newTotalSupply */\n      eq\n        /* \"Code/CoinA.sol\":709:771  require (oldTotalSupply == newTotalSupply, \"invariance found\") */\n      tag_88\n      jumpi\n      mload(0x40)\n      0x08c379a000000000000000000000000000000000000000000000000000000000\n      dup2\n      mstore\n      0x04\n      add\n      tag_89\n      swap1\n      tag_90\n      jump\t// in\n    tag_89:\n      mload(0x40)\n      dup1\n      swap2\n      sub\n      swap1\n      revert\n    tag_88:\n        /* \"Code/CoinA.sol\":594:778  {... */\n      pop\n      pop\n        /* \"Code/CoinA.sol\":1408:2167  function transfer (CoinTypes coin, address _to, uint256 _value) external invariance returns (bool) {... */\n      swap4\n      swap3\n      pop\n      pop\n      pop\n      jump\t// out\n        /* \"Code/CoinA.sol\":2173:2872  function mint(CoinTypes coin, uint256 _value) external onlyOwner returns (bool) {... */\n    tag_39:\n        /* \"Code/CoinA.sol\":2247:2251  bool */\n      0x00\n        /* \"Code/CoinA.sol\":514:524  msg.sender */\n      caller\n        /* \"Code/CoinA.sol\":504:524  _owner == msg.sender */\n      0xffffffffffffffffffffffffffffffffffffffff\n      and\n        /* \"Code/CoinA.sol\":504:510  _owner */\n      0x04\n      0x00\n      swap1\n      sload\n      swap1\n      0x0100\n      exp\n      swap1\n      div\n      0xffffffffffffffffffffffffffffffffffffffff\n      and\n        /* \"Code/CoinA.sol\":504:524  _owner == msg.sender */\n      0xffffffffffffffffffffffffffffffffffffffff\n      and\n      eq\n        /* \"Code/CoinA.sol\":496:548  require(_owner == msg.sender, \"sender is not owner\") */\n      tag_92\n      jumpi\n      mload(0x40)\n      0x08c379a000000000000000000000000000000000000000000000000000000000\n      dup2\n      mstore\n      0x04\n      add\n      tag_93\n      swap1\n      tag_94\n      jump\t// in\n    tag_93:\n      mload(0x40)\n      dup1\n      swap2\n      sub\n      swap1\n      revert\n    tag_92:\n        /* \"Code/CoinA.sol\":2263:2275  address from */\n      0x00\n        /* \"Code/CoinA.sol\":2278:2288  msg.sender */\n      caller\n        /* \"Code/CoinA.sol\":2263:2288  address from = msg.sender */\n      swap1\n      pop\n        /* \"Code/CoinA.sol\":2317:2321  from */\n      dup1\n        /* \"Code/CoinA.sol\":2307:2321  _owner == from */\n      0xffffffffffffffffffffffffffffffffffffffff\n      and\n        /* \"Code/CoinA.sol\":2307:2313  _owner */\n      0x04\n      0x00\n      swap1\n      sload\n      swap1\n      0x0100\n      exp\n      swap1\n      div\n      0xffffffffffffffffffffffffffffffffffffffff\n      and\n        /* \"Code/CoinA.sol\":2307:2321  _owner == from */\n      0xffffffffffffffffffffffffffffffffffffffff\n      and\n      eq\n        /* \"Code/CoinA.sol\":2299:2345  require(_owner == from, \"sender is not owner\") */\n      tag_96\n      jumpi\n      mload(0x40)\n      0x08c379a000000000000000000000000000000000000000000000000000000000\n      dup2\n      mstore\n      0x04\n      add\n      tag_97\n      swap1\n      tag_94\n      jump\t// in\n    tag_97:\n      mload(0x40)\n      dup1\n      swap2\n      sub\n      swap1\n      revert\n    tag_96:\n        /* \"Code/CoinA.sol\":2367:2378  CoinTypes.A */\n      0x00\n        /* \"Code/CoinA.sol\":2359:2378  coin == CoinTypes.A */\n      0x02\n      dup2\n      gt\n      iszero\n      tag_98\n      jumpi\n      tag_99\n      tag_47\n      jump\t// in\n    tag_99:\n    tag_98:\n        /* \"Code/CoinA.sol\":2359:2363  coin */\n      dup5\n        /* \"Code/CoinA.sol\":2359:2378  coin == CoinTypes.A */\n      0x02\n      dup2\n      gt\n      iszero\n      tag_100\n      jumpi\n      tag_101\n      tag_47\n      jump\t// in\n    tag_101:\n    tag_100:\n      eq\n        /* \"Code/CoinA.sol\":2355:2502  if (coin == CoinTypes.A){... */\n      iszero\n      tag_102\n      jumpi\n        /* \"Code/CoinA.sol\":2413:2419  _value */\n      dup3\n        /* \"Code/CoinA.sol\":2393:2403  _Abalances */\n      0x05\n        /* \"Code/CoinA.sol\":2393:2409  _Abalances[from] */\n      0x00\n        /* \"Code/CoinA.sol\":2404:2408  from */\n      dup4\n        /* \"Code/CoinA.sol\":2393:2409  _Abalances[from] */\n      0xffffffffffffffffffffffffffffffffffffffff\n      and\n      0xffffffffffffffffffffffffffffffffffffffff\n      and\n      dup2\n      mstore\n      0x20\n      add\n      swap1\n      dup2\n      mstore\n      0x20\n      add\n      0x00\n      keccak256\n      0x00\n        /* \"Code/CoinA.sol\":2393:2419  _Abalances[from] += _value */\n      dup3\n      dup3\n      sload\n      tag_103\n      swap2\n      swap1\n      tag_68\n      jump\t// in\n    tag_103:\n      swap3\n      pop\n      pop\n      dup2\n      swap1\n      sstore\n      pop\n        /* \"Code/CoinA.sol\":2449:2455  _value */\n      dup3\n        /* \"Code/CoinA.sol\":2433:2445  _CoinASupply */\n      0x00\n      dup1\n        /* \"Code/CoinA.sol\":2433:2455  _CoinASupply += _value */\n      dup3\n      dup3\n      sload\n      tag_104\n      swap2\n      swap1\n      tag_68\n      jump\t// in\n    tag_104:\n      swap3\n      pop\n      pop\n      dup2\n      swap1\n      sstore\n      pop\n        /* \"Code/CoinA.sol\":2485:2491  _value */\n      dup3\n        /* \"Code/CoinA.sol\":2469:2481  _totalSupply */\n      0x03\n      0x00\n        /* \"Code/CoinA.sol\":2469:2491  _totalSupply += _value */\n      dup3\n      dup3\n      sload\n      tag_105\n      swap2\n      swap1\n      tag_68\n      jump\t// in\n    tag_105:\n      swap3\n      pop\n      pop\n      dup2\n      swap1\n      sstore\n      pop\n        /* \"Code/CoinA.sol\":2355:2502  if (coin == CoinTypes.A){... */\n    tag_102:\n        /* \"Code/CoinA.sol\":2523:2534  CoinTypes.B */\n      0x01\n        /* \"Code/CoinA.sol\":2515:2534  coin == CoinTypes.B */\n      0x02\n      dup2\n      gt\n      iszero\n      tag_106\n      jumpi\n      tag_107\n      tag_47\n      jump\t// in\n    tag_107:\n    tag_106:\n        /* \"Code/CoinA.sol\":2515:2519  coin */\n      dup5\n        /* \"Code/CoinA.sol\":2515:2534  coin == CoinTypes.B */\n      0x02\n      dup2\n      gt\n      iszero\n      tag_108\n      jumpi\n      tag_109\n      tag_47\n      jump\t// in\n    tag_109:\n    tag_108:\n      eq\n        /* \"Code/CoinA.sol\":2511:2658  if (coin == CoinTypes.B){... */\n      iszero\n      tag_110\n      jumpi\n        /* \"Code/CoinA.sol\":2569:2575  _value */\n      dup3\n        /* \"Code/CoinA.sol\":2549:2559  _Bbalances */\n      0x06\n        /* \"Code/CoinA.sol\":2549:2565  _Bbalances[from] */\n      0x00\n        /* \"Code/CoinA.sol\":2560:2564  from */\n      dup4\n        /* \"Code/CoinA.sol\":2549:2565  _Bbalances[from] */\n      0xffffffffffffffffffffffffffffffffffffffff\n      and\n      0xffffffffffffffffffffffffffffffffffffffff\n      and\n      dup2\n      mstore\n      0x20\n      add\n      swap1\n      dup2\n      mstore\n      0x20\n      add\n      0x00\n      keccak256\n      0x00\n        /* \"Code/CoinA.sol\":2549:2575  _Bbalances[from] += _value */\n      dup3\n      dup3\n      sload\n      tag_111\n      swap2\n      swap1\n      tag_68\n      jump\t// in\n    tag_111:\n      swap3\n      pop\n      pop\n      dup2\n      swap1\n      sstore\n      pop\n        /* \"Code/CoinA.sol\":2605:2611  _value */\n      dup3\n        /* \"Code/CoinA.sol\":2589:2601  _CoinBSupply */\n      0x01\n      0x00\n        /* \"Code/CoinA.sol\":2589:2611  _CoinBSupply += _value */\n      dup3\n      dup3\n      sload\n      tag_112\n      swap2\n      swap1\n      tag_68\n      jump\t// in\n    tag_112:\n      swap3\n      pop\n      pop\n      dup2\n      swap1\n      sstore\n      pop\n        /* \"Code/CoinA.sol\":2641:2647  _value */\n      dup3\n        /* \"Code/CoinA.sol\":2625:2637  _totalSupply */\n      0x03\n      0x00\n        /* \"Code/CoinA.sol\":2625:2647  _totalSupply += _value */\n      dup3\n      dup3\n      sload\n      tag_113\n      swap2\n      swap1\n      tag_68\n      jump\t// in\n    tag_113:\n      swap3\n      pop\n      pop\n      dup2\n      swap1\n      sstore\n      pop\n        /* \"Code/CoinA.sol\":2511:2658  if (coin == CoinTypes.B){... */\n    tag_110:\n        /* \"Code/CoinA.sol\":2679:2690  CoinTypes.C */\n      0x02\n        /* \"Code/CoinA.sol\":2671:2690  coin == CoinTypes.C */\n      dup1\n      dup2\n      gt\n      iszero\n      tag_114\n      jumpi\n      tag_115\n      tag_47\n      jump\t// in\n    tag_115:\n    tag_114:\n        /* \"Code/CoinA.sol\":2671:2675  coin */\n      dup5\n        /* \"Code/CoinA.sol\":2671:2690  coin == CoinTypes.C */\n      0x02\n      dup2\n      gt\n      iszero\n      tag_116\n      jumpi\n      tag_117\n      tag_47\n      jump\t// in\n    tag_117:\n    tag_116:\n      eq\n        /* \"Code/CoinA.sol\":2667:2844  if (coin == CoinTypes.C) {... */\n      iszero\n      tag_118\n      jumpi\n        /* \"Code/CoinA.sol\":2726:2732  _value */\n      dup3\n        /* \"Code/CoinA.sol\":2706:2716  _Cbalances */\n      0x07\n        /* \"Code/CoinA.sol\":2706:2722  _Cbalances[from] */\n      0x00\n        /* \"Code/CoinA.sol\":2717:2721  from */\n      dup4\n        /* \"Code/CoinA.sol\":2706:2722  _Cbalances[from] */\n      0xffffffffffffffffffffffffffffffffffffffff\n      and\n      0xffffffffffffffffffffffffffffffffffffffff\n      and\n      dup2\n      mstore\n      0x20\n      add\n      swap1\n      dup2\n      mstore\n      0x20\n      add\n      0x00\n      keccak256\n      0x00\n        /* \"Code/CoinA.sol\":2706:2732  _Cbalances[from] += _value */\n      dup3\n      dup3\n      sload\n      tag_119\n      swap2\n      swap1\n      tag_68\n      jump\t// in\n    tag_119:\n      swap3\n      pop\n      pop\n      dup2\n      swap1\n      sstore\n      pop\n        /* \"Code/CoinA.sol\":2762:2768  _value */\n      dup3\n        /* \"Code/CoinA.sol\":2746:2758  _CoinCSupply */\n      0x02\n      0x00\n        /* \"Code/CoinA.sol\":2746:2768  _CoinCSupply += _value */\n      dup3\n      dup3\n      sload\n      tag_120\n      swap2\n      swap1\n      tag_68\n      jump\t// in\n    tag_120:\n      swap3\n      pop\n      pop\n      dup2\n      swap1\n      sstore\n      pop\n        /* \"Code/CoinA.sol\":2798:2804  _value */\n      dup3\n        /* \"Code/CoinA.sol\":2782:2794  _totalSupply */\n      0x03\n      0x00\n        /* \"Code/CoinA.sol\":2782:2804  _totalSupply += _value */\n      dup3\n      dup3\n      sload\n      tag_121\n      swap2\n      swap1\n      tag_68\n      jump\t// in\n    tag_121:\n      swap3\n      pop\n      pop\n      dup2\n      swap1\n      sstore\n      pop\n        /* \"Code/CoinA.sol\":2667:2844  if (coin == CoinTypes.C) {... */\n      jump(tag_122)\n    tag_118:\n        /* \"Code/CoinA.sol\":2837:2842  false */\n      0x00\n        /* \"Code/CoinA.sol\":2830:2842  return false */\n      swap2\n      pop\n      pop\n      jump(tag_95)\n        /* \"Code/CoinA.sol\":2667:2844  if (coin == CoinTypes.C) {... */\n    tag_122:\n        /* \"Code/CoinA.sol\":2861:2865  true */\n      0x01\n        /* \"Code/CoinA.sol\":2854:2865  return true */\n      swap2\n      pop\n      pop\n        /* \"Code/CoinA.sol\":558:559  _ */\n    tag_95:\n        /* \"Code/CoinA.sol\":2173:2872  function mint(CoinTypes coin, uint256 _value) external onlyOwner returns (bool) {... */\n      swap3\n      swap2\n      pop\n      pop\n      jump\t// out\n        /* \"#utility.yul\":7:146   */\n    tag_124:\n        /* \"#utility.yul\":53:58   */\n      0x00\n        /* \"#utility.yul\":91:97   */\n      dup2\n        /* \"#utility.yul\":78:98   */\n      calldataload\n        /* \"#utility.yul\":69:98   */\n      swap1\n      pop\n        /* \"#utility.yul\":107:140   */\n      tag_126\n        /* \"#utility.yul\":134:139   */\n      dup2\n        /* \"#utility.yul\":107:140   */\n      tag_127\n      jump\t// in\n    tag_126:\n        /* \"#utility.yul\":7:146   */\n      swap3\n      swap2\n      pop\n      pop\n      jump\t// out\n        /* \"#utility.yul\":152:313   */\n    tag_128:\n        /* \"#utility.yul\":209:214   */\n      0x00\n        /* \"#utility.yul\":247:253   */\n      dup2\n        /* \"#utility.yul\":234:254   */\n      calldataload\n        /* \"#utility.yul\":225:254   */\n      swap1\n      pop\n        /* \"#utility.yul\":263:307   */\n      tag_130\n        /* \"#utility.yul\":301:306   */\n      dup2\n        /* \"#utility.yul\":263:307   */\n      tag_131\n      jump\t// in\n    tag_130:\n        /* \"#utility.yul\":152:313   */\n      swap3\n      swap2\n      pop\n      pop\n      jump\t// out\n        /* \"#utility.yul\":319:458   */\n    tag_132:\n        /* \"#utility.yul\":365:370   */\n      0x00\n        /* \"#utility.yul\":403:409   */\n      dup2\n        /* \"#utility.yul\":390:410   */\n      calldataload\n        /* \"#utility.yul\":381:410   */\n      swap1\n      pop\n        /* \"#utility.yul\":419:452   */\n      tag_134\n        /* \"#utility.yul\":446:451   */\n      dup2\n        /* \"#utility.yul\":419:452   */\n      tag_135\n      jump\t// in\n    tag_134:\n        /* \"#utility.yul\":319:458   */\n      swap3\n      swap2\n      pop\n      pop\n      jump\t// out\n        /* \"#utility.yul\":464:960   */\n    tag_24:\n        /* \"#utility.yul\":543:549   */\n      0x00\n        /* \"#utility.yul\":551:557   */\n      dup1\n        /* \"#utility.yul\":600:602   */\n      0x40\n        /* \"#utility.yul\":588:597   */\n      dup4\n        /* \"#utility.yul\":579:586   */\n      dup6\n        /* \"#utility.yul\":575:598   */\n      sub\n        /* \"#utility.yul\":571:603   */\n      slt\n        /* \"#utility.yul\":568:687   */\n      iszero\n      tag_137\n      jumpi\n        /* \"#utility.yul\":606:685   */\n      tag_138\n      tag_139\n      jump\t// in\n    tag_138:\n        /* \"#utility.yul\":568:687   */\n    tag_137:\n        /* \"#utility.yul\":726:727   */\n      0x00\n        /* \"#utility.yul\":751:815   */\n      tag_140\n        /* \"#utility.yul\":807:814   */\n      dup6\n        /* \"#utility.yul\":798:804   */\n      dup3\n        /* \"#utility.yul\":787:796   */\n      dup7\n        /* \"#utility.yul\":783:805   */\n      add\n        /* \"#utility.yul\":751:815   */\n      tag_128\n      jump\t// in\n    tag_140:\n        /* \"#utility.yul\":741:815   */\n      swap3\n      pop\n        /* \"#utility.yul\":697:825   */\n      pop\n        /* \"#utility.yul\":864:866   */\n      0x20\n        /* \"#utility.yul\":890:943   */\n      tag_141\n        /* \"#utility.yul\":935:942   */\n      dup6\n        /* \"#utility.yul\":926:932   */\n      dup3\n        /* \"#utility.yul\":915:924   */\n      dup7\n        /* \"#utility.yul\":911:933   */\n      add\n        /* \"#utility.yul\":890:943   */\n      tag_124\n      jump\t// in\n    tag_141:\n        /* \"#utility.yul\":880:943   */\n      swap2\n      pop\n        /* \"#utility.yul\":835:953   */\n      pop\n        /* \"#utility.yul\":464:960   */\n      swap3\n      pop\n      swap3\n      swap1\n      pop\n      jump\t// out\n        /* \"#utility.yul\":966:1607   */\n    tag_32:\n        /* \"#utility.yul\":1054:1060   */\n      0x00\n        /* \"#utility.yul\":1062:1068   */\n      dup1\n        /* \"#utility.yul\":1070:1076   */\n      0x00\n        /* \"#utility.yul\":1119:1121   */\n      0x60\n        /* \"#utility.yul\":1107:1116   */\n      dup5\n        /* \"#utility.yul\":1098:1105   */\n      dup7\n        /* \"#utility.yul\":1094:1117   */\n      sub\n        /* \"#utility.yul\":1090:1122   */\n      slt\n        /* \"#utility.yul\":1087:1206   */\n      iszero\n      tag_143\n      jumpi\n        /* \"#utility.yul\":1125:1204   */\n      tag_144\n      tag_139\n      jump\t// in\n    tag_144:\n        /* \"#utility.yul\":1087:1206   */\n    tag_143:\n        /* \"#utility.yul\":1245:1246   */\n      0x00\n        /* \"#utility.yul\":1270:1334   */\n      tag_145\n        /* \"#utility.yul\":1326:1333   */\n      dup7\n        /* \"#utility.yul\":1317:1323   */\n      dup3\n        /* \"#utility.yul\":1306:1315   */\n      dup8\n        /* \"#utility.yul\":1302:1324   */\n      add\n        /* \"#utility.yul\":1270:1334   */\n      tag_128\n      jump\t// in\n    tag_145:\n        /* \"#utility.yul\":1260:1334   */\n      swap4\n      pop\n        /* \"#utility.yul\":1216:1344   */\n      pop\n        /* \"#utility.yul\":1383:1385   */\n      0x20\n        /* \"#utility.yul\":1409:1462   */\n      tag_146\n        /* \"#utility.yul\":1454:1461   */\n      dup7\n        /* \"#utility.yul\":1445:1451   */\n      dup3\n        /* \"#utility.yul\":1434:1443   */\n      dup8\n        /* \"#utility.yul\":1430:1452   */\n      add\n        /* \"#utility.yul\":1409:1462   */\n      tag_124\n      jump\t// in\n    tag_146:\n        /* \"#utility.yul\":1399:1462   */\n      swap3\n      pop\n        /* \"#utility.yul\":1354:1472   */\n      pop\n        /* \"#utility.yul\":1511:1513   */\n      0x40\n        /* \"#utility.yul\":1537:1590   */\n      tag_147\n        /* \"#utility.yul\":1582:1589   */\n      dup7\n        /* \"#utility.yul\":1573:1579   */\n      dup3\n        /* \"#utility.yul\":1562:1571   */\n      dup8\n        /* \"#utility.yul\":1558:1580   */\n      add\n        /* \"#utility.yul\":1537:1590   */\n      tag_132\n      jump\t// in\n    tag_147:\n        /* \"#utility.yul\":1527:1590   */\n      swap2\n      pop\n        /* \"#utility.yul\":1482:1600   */\n      pop\n        /* \"#utility.yul\":966:1607   */\n      swap3\n      pop\n      swap3\n      pop\n      swap3\n      jump\t// out\n        /* \"#utility.yul\":1613:2109   */\n    tag_38:\n        /* \"#utility.yul\":1692:1698   */\n      0x00\n        /* \"#utility.yul\":1700:1706   */\n      dup1\n        /* \"#utility.yul\":1749:1751   */\n      0x40\n        /* \"#utility.yul\":1737:1746   */\n      dup4\n        /* \"#utility.yul\":1728:1735   */\n      dup6\n        /* \"#utility.yul\":1724:1747   */\n      sub\n        /* \"#utility.yul\":1720:1752   */\n      slt\n        /* \"#utility.yul\":1717:1836   */\n      iszero\n      tag_149\n      jumpi\n        /* \"#utility.yul\":1755:1834   */\n      tag_150\n      tag_139\n      jump\t// in\n    tag_150:\n        /* \"#utility.yul\":1717:1836   */\n    tag_149:\n        /* \"#utility.yul\":1875:1876   */\n      0x00\n        /* \"#utility.yul\":1900:1964   */\n      tag_151\n        /* \"#utility.yul\":1956:1963   */\n      dup6\n        /* \"#utility.yul\":1947:1953   */\n      dup3\n        /* \"#utility.yul\":1936:1945   */\n      dup7\n        /* \"#utility.yul\":1932:1954   */\n      add\n        /* \"#utility.yul\":1900:1964   */\n      tag_128\n      jump\t// in\n    tag_151:\n        /* \"#utility.yul\":1890:1964   */\n      swap3\n      pop\n        /* \"#utility.yul\":1846:1974   */\n      pop\n        /* \"#utility.yul\":2013:2015   */\n      0x20\n        /* \"#utility.yul\":2039:2092   */\n      tag_152\n        /* \"#utility.yul\":2084:2091   */\n      dup6\n        /* \"#utility.yul\":2075:2081   */\n      dup3\n        /* \"#utility.yul\":2064:2073   */\n      dup7\n        /* \"#utility.yul\":2060:2082   */\n      add\n        /* \"#utility.yul\":2039:2092   */\n      tag_132\n      jump\t// in\n    tag_152:\n        /* \"#utility.yul\":2029:2092   */\n      swap2\n      pop\n        /* \"#utility.yul\":1984:2102   */\n      pop\n        /* \"#utility.yul\":1613:2109   */\n      swap3\n      pop\n      swap3\n      swap1\n      pop\n      jump\t// out\n        /* \"#utility.yul\":2115:2224   */\n    tag_153:\n        /* \"#utility.yul\":2196:2217   */\n      tag_155\n        /* \"#utility.yul\":2211:2216   */\n      dup2\n        /* \"#utility.yul\":2196:2217   */\n      tag_156\n      jump\t// in\n    tag_155:\n        /* \"#utility.yul\":2191:2194   */\n      dup3\n        /* \"#utility.yul\":2184:2218   */\n      mstore\n        /* \"#utility.yul\":2115:2224   */\n      pop\n      pop\n      jump\t// out\n        /* \"#utility.yul\":2230:2379   */\n    tag_157:\n        /* \"#utility.yul\":2326:2372   */\n      tag_159\n        /* \"#utility.yul\":2366:2371   */\n      dup2\n        /* \"#utility.yul\":2326:2372   */\n      tag_160\n      jump\t// in\n    tag_159:\n        /* \"#utility.yul\":2321:2324   */\n      dup3\n        /* \"#utility.yul\":2314:2373   */\n      mstore\n        /* \"#utility.yul\":2230:2379   */\n      pop\n      pop\n      jump\t// out\n        /* \"#utility.yul\":2385:2749   */\n    tag_161:\n        /* \"#utility.yul\":2473:2476   */\n      0x00\n        /* \"#utility.yul\":2501:2540   */\n      tag_163\n        /* \"#utility.yul\":2534:2539   */\n      dup3\n        /* \"#utility.yul\":2501:2540   */\n      tag_164\n      jump\t// in\n    tag_163:\n        /* \"#utility.yul\":2556:2627   */\n      tag_165\n        /* \"#utility.yul\":2620:2626   */\n      dup2\n        /* \"#utility.yul\":2615:2618   */\n      dup6\n        /* \"#utility.yul\":2556:2627   */\n      tag_166\n      jump\t// in\n    tag_165:\n        /* \"#utility.yul\":2549:2627   */\n      swap4\n      pop\n        /* \"#utility.yul\":2636:2688   */\n      tag_167\n        /* \"#utility.yul\":2681:2687   */\n      dup2\n        /* \"#utility.yul\":2676:2679   */\n      dup6\n        /* \"#utility.yul\":2669:2673   */\n      0x20\n        /* \"#utility.yul\":2662:2667   */\n      dup7\n        /* \"#utility.yul\":2658:2674   */\n      add\n        /* \"#utility.yul\":2636:2688   */\n      tag_168\n      jump\t// in\n    tag_167:\n        /* \"#utility.yul\":2713:2742   */\n      tag_169\n        /* \"#utility.yul\":2735:2741   */\n      dup2\n        /* \"#utility.yul\":2713:2742   */\n      tag_170\n      jump\t// in\n    tag_169:\n        /* \"#utility.yul\":2708:2711   */\n      dup5\n        /* \"#utility.yul\":2704:2743   */\n      add\n        /* \"#utility.yul\":2697:2743   */\n      swap2\n      pop\n        /* \"#utility.yul\":2477:2749   */\n      pop\n        /* \"#utility.yul\":2385:2749   */\n      swap3\n      swap2\n      pop\n      pop\n      jump\t// out\n        /* \"#utility.yul\":2755:3121   */\n    tag_171:\n        /* \"#utility.yul\":2897:2900   */\n      0x00\n        /* \"#utility.yul\":2918:2985   */\n      tag_173\n        /* \"#utility.yul\":2982:2984   */\n      0x10\n        /* \"#utility.yul\":2977:2980   */\n      dup4\n        /* \"#utility.yul\":2918:2985   */\n      tag_166\n      jump\t// in\n    tag_173:\n        /* \"#utility.yul\":2911:2985   */\n      swap2\n      pop\n        /* \"#utility.yul\":2994:3087   */\n      tag_174\n        /* \"#utility.yul\":3083:3086   */\n      dup3\n        /* \"#utility.yul\":2994:3087   */\n      tag_175\n      jump\t// in\n    tag_174:\n        /* \"#utility.yul\":3112:3114   */\n      0x20\n        /* \"#utility.yul\":3107:3110   */\n      dup3\n        /* \"#utility.yul\":3103:3115   */\n      add\n        /* \"#utility.yul\":3096:3115   */\n      swap1\n      pop\n        /* \"#utility.yul\":2755:3121   */\n      swap2\n      swap1\n      pop\n      jump\t// out\n        /* \"#utility.yul\":3127:3493   */\n    tag_176:\n        /* \"#utility.yul\":3269:3272   */\n      0x00\n        /* \"#utility.yul\":3290:3357   */\n      tag_178\n        /* \"#utility.yul\":3354:3356   */\n      0x13\n        /* \"#utility.yul\":3349:3352   */\n      dup4\n        /* \"#utility.yul\":3290:3357   */\n      tag_166\n      jump\t// in\n    tag_178:\n        /* \"#utility.yul\":3283:3357   */\n      swap2\n      pop\n        /* \"#utility.yul\":3366:3459   */\n      tag_179\n        /* \"#utility.yul\":3455:3458   */\n      dup3\n        /* \"#utility.yul\":3366:3459   */\n      tag_180\n      jump\t// in\n    tag_179:\n        /* \"#utility.yul\":3484:3486   */\n      0x20\n        /* \"#utility.yul\":3479:3482   */\n      dup3\n        /* \"#utility.yul\":3475:3487   */\n      add\n        /* \"#utility.yul\":3468:3487   */\n      swap1\n      pop\n        /* \"#utility.yul\":3127:3493   */\n      swap2\n      swap1\n      pop\n      jump\t// out\n        /* \"#utility.yul\":3499:3617   */\n    tag_181:\n        /* \"#utility.yul\":3586:3610   */\n      tag_183\n        /* \"#utility.yul\":3604:3609   */\n      dup2\n        /* \"#utility.yul\":3586:3610   */\n      tag_184\n      jump\t// in\n    tag_183:\n        /* \"#utility.yul\":3581:3584   */\n      dup3\n        /* \"#utility.yul\":3574:3611   */\n      mstore\n        /* \"#utility.yul\":3499:3617   */\n      pop\n      pop\n      jump\t// out\n        /* \"#utility.yul\":3623:3833   */\n    tag_35:\n        /* \"#utility.yul\":3710:3714   */\n      0x00\n        /* \"#utility.yul\":3748:3750   */\n      0x20\n        /* \"#utility.yul\":3737:3746   */\n      dup3\n        /* \"#utility.yul\":3733:3751   */\n      add\n        /* \"#utility.yul\":3725:3751   */\n      swap1\n      pop\n        /* \"#utility.yul\":3761:3826   */\n      tag_186\n        /* \"#utility.yul\":3823:3824   */\n      0x00\n        /* \"#utility.yul\":3812:3821   */\n      dup4\n        /* \"#utility.yul\":3808:3825   */\n      add\n        /* \"#utility.yul\":3799:3805   */\n      dup5\n        /* \"#utility.yul\":3761:3826   */\n      tag_153\n      jump\t// in\n    tag_186:\n        /* \"#utility.yul\":3623:3833   */\n      swap3\n      swap2\n      pop\n      pop\n      jump\t// out\n        /* \"#utility.yul\":3839:4189   */\n    tag_87:\n        /* \"#utility.yul\":3969:3973   */\n      0x00\n        /* \"#utility.yul\":4007:4009   */\n      0x40\n        /* \"#utility.yul\":3996:4005   */\n      dup3\n        /* \"#utility.yul\":3992:4010   */\n      add\n        /* \"#utility.yul\":3984:4010   */\n      swap1\n      pop\n        /* \"#utility.yul\":4020:4100   */\n      tag_188\n        /* \"#utility.yul\":4097:4098   */\n      0x00\n        /* \"#utility.yul\":4086:4095   */\n      dup4\n        /* \"#utility.yul\":4082:4099   */\n      add\n        /* \"#utility.yul\":4073:4079   */\n      dup6\n        /* \"#utility.yul\":4020:4100   */\n      tag_157\n      jump\t// in\n    tag_188:\n        /* \"#utility.yul\":4110:4182   */\n      tag_189\n        /* \"#utility.yul\":4178:4180   */\n      0x20\n        /* \"#utility.yul\":4167:4176   */\n      dup4\n        /* \"#utility.yul\":4163:4181   */\n      add\n        /* \"#utility.yul\":4154:4160   */\n      dup5\n        /* \"#utility.yul\":4110:4182   */\n      tag_181\n      jump\t// in\n    tag_189:\n        /* \"#utility.yul\":3839:4189   */\n      swap4\n      swap3\n      pop\n      pop\n      pop\n      jump\t// out\n        /* \"#utility.yul\":4195:4508   */\n    tag_14:\n        /* \"#utility.yul\":4308:4312   */\n      0x00\n        /* \"#utility.yul\":4346:4348   */\n      0x20\n        /* \"#utility.yul\":4335:4344   */\n      dup3\n        /* \"#utility.yul\":4331:4349   */\n      add\n        /* \"#utility.yul\":4323:4349   */\n      swap1\n      pop\n        /* \"#utility.yul\":4395:4404   */\n      dup2\n        /* \"#utility.yul\":4389:4393   */\n      dup2\n        /* \"#utility.yul\":4385:4405   */\n      sub\n        /* \"#utility.yul\":4381:4382   */\n      0x00\n        /* \"#utility.yul\":4370:4379   */\n      dup4\n        /* \"#utility.yul\":4366:4383   */\n      add\n        /* \"#utility.yul\":4359:4406   */\n      mstore\n        /* \"#utility.yul\":4423:4501   */\n      tag_191\n        /* \"#utility.yul\":4496:4500   */\n      dup2\n        /* \"#utility.yul\":4487:4493   */\n      dup5\n        /* \"#utility.yul\":4423:4501   */\n      tag_161\n      jump\t// in\n    tag_191:\n        /* \"#utility.yul\":4415:4501   */\n      swap1\n      pop\n        /* \"#utility.yul\":4195:4508   */\n      swap3\n      swap2\n      pop\n      pop\n      jump\t// out\n        /* \"#utility.yul\":4514:4933   */\n    tag_90:\n        /* \"#utility.yul\":4680:4684   */\n      0x00\n        /* \"#utility.yul\":4718:4720   */\n      0x20\n        /* \"#utility.yul\":4707:4716   */\n      dup3\n        /* \"#utility.yul\":4703:4721   */\n      add\n        /* \"#utility.yul\":4695:4721   */\n      swap1\n      pop\n        /* \"#utility.yul\":4767:4776   */\n      dup2\n        /* \"#utility.yul\":4761:4765   */\n      dup2\n        /* \"#utility.yul\":4757:4777   */\n      sub\n        /* \"#utility.yul\":4753:4754   */\n      0x00\n        /* \"#utility.yul\":4742:4751   */\n      dup4\n        /* \"#utility.yul\":4738:4755   */\n      add\n        /* \"#utility.yul\":4731:4778   */\n      mstore\n        /* \"#utility.yul\":4795:4926   */\n      tag_193\n        /* \"#utility.yul\":4921:4925   */\n      dup2\n        /* \"#utility.yul\":4795:4926   */\n      tag_171\n      jump\t// in\n    tag_193:\n        /* \"#utility.yul\":4787:4926   */\n      swap1\n      pop\n        /* \"#utility.yul\":4514:4933   */\n      swap2\n      swap1\n      pop\n      jump\t// out\n        /* \"#utility.yul\":4939:5358   */\n    tag_94:\n        /* \"#utility.yul\":5105:5109   */\n      0x00\n        /* \"#utility.yul\":5143:5145   */\n      0x20\n        /* \"#utility.yul\":5132:5141   */\n      dup3\n        /* \"#utility.yul\":5128:5146   */\n      add\n        /* \"#utility.yul\":5120:5146   */\n      swap1\n      pop\n        /* \"#utility.yul\":5192:5201   */\n      dup2\n        /* \"#utility.yul\":5186:5190   */\n      dup2\n        /* \"#utility.yul\":5182:5202   */\n      sub\n        /* \"#utility.yul\":5178:5179   */\n      0x00\n        /* \"#utility.yul\":5167:5176   */\n      dup4\n        /* \"#utility.yul\":5163:5180   */\n      add\n        /* \"#utility.yul\":5156:5203   */\n      mstore\n        /* \"#utility.yul\":5220:5351   */\n      tag_195\n        /* \"#utility.yul\":5346:5350   */\n      dup2\n        /* \"#utility.yul\":5220:5351   */\n      tag_176\n      jump\t// in\n    tag_195:\n        /* \"#utility.yul\":5212:5351   */\n      swap1\n      pop\n        /* \"#utility.yul\":4939:5358   */\n      swap2\n      swap1\n      pop\n      jump\t// out\n        /* \"#utility.yul\":5364:5586   */\n    tag_18:\n        /* \"#utility.yul\":5457:5461   */\n      0x00\n        /* \"#utility.yul\":5495:5497   */\n      0x20\n        /* \"#utility.yul\":5484:5493   */\n      dup3\n        /* \"#utility.yul\":5480:5498   */\n      add\n        /* \"#utility.yul\":5472:5498   */\n      swap1\n      pop\n        /* \"#utility.yul\":5508:5579   */\n      tag_197\n        /* \"#utility.yul\":5576:5577   */\n      0x00\n        /* \"#utility.yul\":5565:5574   */\n      dup4\n        /* \"#utility.yul\":5561:5578   */\n      add\n        /* \"#utility.yul\":5552:5558   */\n      dup5\n        /* \"#utility.yul\":5508:5579   */\n      tag_181\n      jump\t// in\n    tag_197:\n        /* \"#utility.yul\":5364:5586   */\n      swap3\n      swap2\n      pop\n      pop\n      jump\t// out\n        /* \"#utility.yul\":5673:5772   */\n    tag_164:\n        /* \"#utility.yul\":5725:5731   */\n      0x00\n        /* \"#utility.yul\":5759:5764   */\n      dup2\n        /* \"#utility.yul\":5753:5765   */\n      mload\n        /* \"#utility.yul\":5743:5765   */\n      swap1\n      pop\n        /* \"#utility.yul\":5673:5772   */\n      swap2\n      swap1\n      pop\n      jump\t// out\n        /* \"#utility.yul\":5778:5947   */\n    tag_166:\n        /* \"#utility.yul\":5862:5873   */\n      0x00\n        /* \"#utility.yul\":5896:5902   */\n      dup3\n        /* \"#utility.yul\":5891:5894   */\n      dup3\n        /* \"#utility.yul\":5884:5903   */\n      mstore\n        /* \"#utility.yul\":5936:5940   */\n      0x20\n        /* \"#utility.yul\":5931:5934   */\n      dup3\n        /* \"#utility.yul\":5927:5941   */\n      add\n        /* \"#utility.yul\":5912:5941   */\n      swap1\n      pop\n        /* \"#utility.yul\":5778:5947   */\n      swap3\n      swap2\n      pop\n      pop\n      jump\t// out\n        /* \"#utility.yul\":5953:6258   */\n    tag_68:\n        /* \"#utility.yul\":5993:5996   */\n      0x00\n        /* \"#utility.yul\":6012:6032   */\n      tag_203\n        /* \"#utility.yul\":6030:6031   */\n      dup3\n        /* \"#utility.yul\":6012:6032   */\n      tag_184\n      jump\t// in\n    tag_203:\n        /* \"#utility.yul\":6007:6032   */\n      swap2\n      pop\n        /* \"#utility.yul\":6046:6066   */\n      tag_204\n        /* \"#utility.yul\":6064:6065   */\n      dup4\n        /* \"#utility.yul\":6046:6066   */\n      tag_184\n      jump\t// in\n    tag_204:\n        /* \"#utility.yul\":6041:6066   */\n      swap3\n      pop\n        /* \"#utility.yul\":6200:6201   */\n      dup3\n        /* \"#utility.yul\":6132:6198   */\n      0xffffffffffffffffffffffffffffffffffffffffffffffffffffffffffffffff\n        /* \"#utility.yul\":6128:6202   */\n      sub\n        /* \"#utility.yul\":6125:6126   */\n      dup3\n        /* \"#utility.yul\":6122:6203   */\n      gt\n        /* \"#utility.yul\":6119:6226   */\n      iszero\n      tag_205\n      jumpi\n        /* \"#utility.yul\":6206:6224   */\n      tag_206\n      tag_207\n      jump\t// in\n    tag_206:\n        /* \"#utility.yul\":6119:6226   */\n    tag_205:\n        /* \"#utility.yul\":6250:6251   */\n      dup3\n        /* \"#utility.yul\":6247:6248   */\n      dup3\n        /* \"#utility.yul\":6243:6252   */\n      add\n        /* \"#utility.yul\":6236:6252   */\n      swap1\n      pop\n        /* \"#utility.yul\":5953:6258   */\n      swap3\n      swap2\n      pop\n      pop\n      jump\t// out\n        /* \"#utility.yul\":6264:6455   */\n    tag_66:\n        /* \"#utility.yul\":6304:6308   */\n      0x00\n        /* \"#utility.yul\":6324:6344   */\n      tag_209\n        /* \"#utility.yul\":6342:6343   */\n      dup3\n        /* \"#utility.yul\":6324:6344   */\n      tag_184\n      jump\t// in\n    tag_209:\n        /* \"#utility.yul\":6319:6344   */\n      swap2\n      pop\n        /* \"#utility.yul\":6358:6378   */\n      tag_210\n        /* \"#utility.yul\":6376:6377   */\n      dup4\n        /* \"#utility.yul\":6358:6378   */\n      tag_184\n      jump\t// in\n    tag_210:\n        /* \"#utility.yul\":6353:6378   */\n      swap3\n      pop\n        /* \"#utility.yul\":6397:6398   */\n      dup3\n        /* \"#utility.yul\":6394:6395   */\n      dup3\n        /* \"#utility.yul\":6391:6399   */\n      lt\n        /* \"#utility.yul\":6388:6422   */\n      iszero\n      tag_211\n      jumpi\n        /* \"#utility.yul\":6402:6420   */\n      tag_212\n      tag_207\n      jump\t// in\n    tag_212:\n        /* \"#utility.yul\":6388:6422   */\n    tag_211:\n        /* \"#utility.yul\":6447:6448   */\n      dup3\n        /* \"#utility.yul\":6444:6445   */\n      dup3\n        /* \"#utility.yul\":6440:6449   */\n      sub\n        /* \"#utility.yul\":6432:6449   */\n      swap1\n      pop\n        /* \"#utility.yul\":6264:6455   */\n      swap3\n      swap2\n      pop\n      pop\n      jump\t// out\n        /* \"#utility.yul\":6461:6557   */\n    tag_213:\n        /* \"#utility.yul\":6498:6505   */\n      0x00\n        /* \"#utility.yul\":6527:6551   */\n      tag_215\n        /* \"#utility.yul\":6545:6550   */\n      dup3\n        /* \"#utility.yul\":6527:6551   */\n      tag_216\n      jump\t// in\n    tag_215:\n        /* \"#utility.yul\":6516:6551   */\n      swap1\n      pop\n        /* \"#utility.yul\":6461:6557   */\n      swap2\n      swap1\n      pop\n      jump\t// out\n        /* \"#utility.yul\":6563:6653   */\n    tag_156:\n        /* \"#utility.yul\":6597:6604   */\n      0x00\n        /* \"#utility.yul\":6640:6645   */\n      dup2\n        /* \"#utility.yul\":6633:6646   */\n      iszero\n        /* \"#utility.yul\":6626:6647   */\n      iszero\n        /* \"#utility.yul\":6615:6647   */\n      swap1\n      pop\n        /* \"#utility.yul\":6563:6653   */\n      swap2\n      swap1\n      pop\n      jump\t// out\n        /* \"#utility.yul\":6659:6792   */\n    tag_218:\n        /* \"#utility.yul\":6707:6714   */\n      0x00\n        /* \"#utility.yul\":6736:6741   */\n      dup2\n        /* \"#utility.yul\":6725:6741   */\n      swap1\n      pop\n        /* \"#utility.yul\":6742:6786   */\n      tag_220\n        /* \"#utility.yul\":6780:6785   */\n      dup3\n        /* \"#utility.yul\":6742:6786   */\n      tag_221\n      jump\t// in\n    tag_220:\n        /* \"#utility.yul\":6659:6792   */\n      swap2\n      swap1\n      pop\n      jump\t// out\n        /* \"#utility.yul\":6798:6924   */\n    tag_216:\n        /* \"#utility.yul\":6835:6842   */\n      0x00\n        /* \"#utility.yul\":6875:6917   */\n      0xffffffffffffffffffffffffffffffffffffffff\n        /* \"#utility.yul\":6868:6873   */\n      dup3\n        /* \"#utility.yul\":6864:6918   */\n      and\n        /* \"#utility.yul\":6853:6918   */\n      swap1\n      pop\n        /* \"#utility.yul\":6798:6924   */\n      swap2\n      swap1\n      pop\n      jump\t// out\n        /* \"#utility.yul\":6930:7007   */\n    tag_184:\n        /* \"#utility.yul\":6967:6974   */\n      0x00\n        /* \"#utility.yul\":6996:7001   */\n      dup2\n        /* \"#utility.yul\":6985:7001   */\n      swap1\n      pop\n        /* \"#utility.yul\":6930:7007   */\n      swap2\n      swap1\n      pop\n      jump\t// out\n        /* \"#utility.yul\":7013:7146   */\n    tag_160:\n        /* \"#utility.yul\":7072:7081   */\n      0x00\n        /* \"#utility.yul\":7105:7140   */\n      tag_225\n        /* \"#utility.yul\":7134:7139   */\n      dup3\n        /* \"#utility.yul\":7105:7140   */\n      tag_218\n      jump\t// in\n    tag_225:\n        /* \"#utility.yul\":7092:7140   */\n      swap1\n      pop\n        /* \"#utility.yul\":7013:7146   */\n      swap2\n      swap1\n      pop\n      jump\t// out\n        /* \"#utility.yul\":7152:7459   */\n    tag_168:\n        /* \"#utility.yul\":7220:7221   */\n      0x00\n        /* \"#utility.yul\":7230:7343   */\n    tag_227:\n        /* \"#utility.yul\":7244:7250   */\n      dup4\n        /* \"#utility.yul\":7241:7242   */\n      dup2\n        /* \"#utility.yul\":7238:7251   */\n      lt\n        /* \"#utility.yul\":7230:7343   */\n      iszero\n      tag_229\n      jumpi\n        /* \"#utility.yul\":7329:7330   */\n      dup1\n        /* \"#utility.yul\":7324:7327   */\n      dup3\n        /* \"#utility.yul\":7320:7331   */\n      add\n        /* \"#utility.yul\":7314:7332   */\n      mload\n        /* \"#utility.yul\":7310:7311   */\n      dup2\n        /* \"#utility.yul\":7305:7308   */\n      dup5\n        /* \"#utility.yul\":7301:7312   */\n      add\n        /* \"#utility.yul\":7294:7333   */\n      mstore\n        /* \"#utility.yul\":7266:7268   */\n      0x20\n        /* \"#utility.yul\":7263:7264   */\n      dup2\n        /* \"#utility.yul\":7259:7269   */\n      add\n        /* \"#utility.yul\":7254:7269   */\n      swap1\n      pop\n        /* \"#utility.yul\":7230:7343   */\n      jump(tag_227)\n    tag_229:\n        /* \"#utility.yul\":7361:7367   */\n      dup4\n        /* \"#utility.yul\":7358:7359   */\n      dup2\n        /* \"#utility.yul\":7355:7368   */\n      gt\n        /* \"#utility.yul\":7352:7453   */\n      iszero\n      tag_230\n      jumpi\n        /* \"#utility.yul\":7441:7442   */\n      0x00\n        /* \"#utility.yul\":7432:7438   */\n      dup5\n        /* \"#utility.yul\":7427:7430   */\n      dup5\n        /* \"#utility.yul\":7423:7439   */\n      add\n        /* \"#utility.yul\":7416:7443   */\n      mstore\n        /* \"#utility.yul\":7352:7453   */\n    tag_230:\n        /* \"#utility.yul\":7201:7459   */\n      pop\n        /* \"#utility.yul\":7152:7459   */\n      pop\n      pop\n      pop\n      jump\t// out\n        /* \"#utility.yul\":7465:7645   */\n    tag_207:\n        /* \"#utility.yul\":7513:7590   */\n      0x4e487b7100000000000000000000000000000000000000000000000000000000\n        /* \"#utility.yul\":7510:7511   */\n      0x00\n        /* \"#utility.yul\":7503:7591   */\n      mstore\n        /* \"#utility.yul\":7610:7614   */\n      0x11\n        /* \"#utility.yul\":7607:7608   */\n      0x04\n        /* \"#utility.yul\":7600:7615   */\n      mstore\n        /* \"#utility.yul\":7634:7638   */\n      0x24\n        /* \"#utility.yul\":7631:7632   */\n      0x00\n        /* \"#utility.yul\":7624:7639   */\n      revert\n        /* \"#utility.yul\":7651:7831   */\n    tag_47:\n        /* \"#utility.yul\":7699:7776   */\n      0x4e487b7100000000000000000000000000000000000000000000000000000000\n        /* \"#utility.yul\":7696:7697   */\n      0x00\n        /* \"#utility.yul\":7689:7777   */\n      mstore\n        /* \"#utility.yul\":7796:7800   */\n      0x21\n        /* \"#utility.yul\":7793:7794   */\n      0x04\n        /* \"#utility.yul\":7786:7801   */\n      mstore\n        /* \"#utility.yul\":7820:7824   */\n      0x24\n        /* \"#utility.yul\":7817:7818   */\n      0x00\n        /* \"#utility.yul\":7810:7825   */\n      revert\n        /* \"#utility.yul\":7960:8077   */\n    tag_139:\n        /* \"#utility.yul\":8069:8070   */\n      0x00\n        /* \"#utility.yul\":8066:8067   */\n      dup1\n        /* \"#utility.yul\":8059:8071   */\n      revert\n        /* \"#utility.yul\":8083:8185   */\n    tag_170:\n        /* \"#utility.yul\":8124:8130   */\n      0x00\n        /* \"#utility.yul\":8175:8177   */\n      0x1f\n        /* \"#utility.yul\":8171:8178   */\n      not\n        /* \"#utility.yul\":8166:8168   */\n      0x1f\n        /* \"#utility.yul\":8159:8164   */\n      dup4\n        /* \"#utility.yul\":8155:8169   */\n      add\n        /* \"#utility.yul\":8151:8179   */\n      and\n        /* \"#utility.yul\":8141:8179   */\n      swap1\n      pop\n        /* \"#utility.yul\":8083:8185   */\n      swap2\n      swap1\n      pop\n      jump\t// out\n        /* \"#utility.yul\":8191:8357   */\n    tag_175:\n        /* \"#utility.yul\":8331:8349   */\n      0x696e76617269616e636520666f756e6400000000000000000000000000000000\n        /* \"#utility.yul\":8327:8328   */\n      0x00\n        /* \"#utility.yul\":8319:8325   */\n      dup3\n        /* \"#utility.yul\":8315:8329   */\n      add\n        /* \"#utility.yul\":8308:8350   */\n      mstore\n        /* \"#utility.yul\":8191:8357   */\n      pop\n      jump\t// out\n        /* \"#utility.yul\":8363:8532   */\n    tag_180:\n        /* \"#utility.yul\":8503:8524   */\n      0x73656e646572206973206e6f74206f776e657200000000000000000000000000\n        /* \"#utility.yul\":8499:8500   */\n      0x00\n        /* \"#utility.yul\":8491:8497   */\n      dup3\n        /* \"#utility.yul\":8487:8501   */\n      add\n        /* \"#utility.yul\":8480:8525   */\n      mstore\n        /* \"#utility.yul\":8363:8532   */\n      pop\n      jump\t// out\n        /* \"#utility.yul\":8538:8654   */\n    tag_221:\n        /* \"#utility.yul\":8622:8623   */\n      0x03\n        /* \"#utility.yul\":8615:8620   */\n      dup2\n        /* \"#utility.yul\":8612:8624   */\n      lt\n        /* \"#utility.yul\":8602:8648   */\n      tag_240\n      jumpi\n        /* \"#utility.yul\":8628:8646   */\n      tag_241\n      tag_47\n      jump\t// in\n    tag_241:\n        /* \"#utility.yul\":8602:8648   */\n    tag_240:\n        /* \"#utility.yul\":8538:8654   */\n      pop\n      jump\t// out\n        /* \"#utility.yul\":8660:8782   */\n    tag_127:\n        /* \"#utility.yul\":8733:8757   */\n      tag_243\n        /* \"#utility.yul\":8751:8756   */\n      dup2\n        /* \"#utility.yul\":8733:8757   */\n      tag_213\n      jump\t// in\n    tag_243:\n        /* \"#utility.yul\":8726:8731   */\n      dup2\n        /* \"#utility.yul\":8723:8758   */\n      eq\n        /* \"#utility.yul\":8713:8776   */\n      tag_244\n      jumpi\n        /* \"#utility.yul\":8772:8773   */\n      0x00\n        /* \"#utility.yul\":8769:8770   */\n      dup1\n        /* \"#utility.yul\":8762:8774   */\n      revert\n        /* \"#utility.yul\":8713:8776   */\n    tag_244:\n        /* \"#utility.yul\":8660:8782   */\n      pop\n      jump\t// out\n        /* \"#utility.yul\":8788:8898   */\n    tag_131:\n        /* \"#utility.yul\":8872:8873   */\n      0x03\n        /* \"#utility.yul\":8865:8870   */\n      dup2\n        /* \"#utility.yul\":8862:8874   */\n      lt\n        /* \"#utility.yul\":8852:8892   */\n      tag_246\n      jumpi\n        /* \"#utility.yul\":8888:8889   */\n      0x00\n        /* \"#utility.yul\":8885:8886   */\n      dup1\n        /* \"#utility.yul\":8878:8890   */\n      revert\n        /* \"#utility.yul\":8852:8892   */\n    tag_246:\n        /* \"#utility.yul\":8788:8898   */\n      pop\n      jump\t// out\n        /* \"#utility.yul\":8904:9026   */\n    tag_135:\n        /* \"#utility.yul\":8977:9001   */\n      tag_248\n        /* \"#utility.yul\":8995:9000   */\n      dup2\n        /* \"#utility.yul\":8977:9001   */\n      tag_184\n      jump\t// in\n    tag_248:\n        /* \"#utility.yul\":8970:8975   */\n      dup2\n        /* \"#utility.yul\":8967:9002   */\n      eq\n        /* \"#utility.yul\":8957:9020   */\n      tag_249\n      jumpi\n        /* \"#utility.yul\":9016:9017   */\n      0x00\n        /* \"#utility.yul\":9013:9014   */\n      dup1\n        /* \"#utility.yul\":9006:9018   */\n      revert\n        /* \"#utility.yul\":8957:9020   */\n    tag_249:\n        /* \"#utility.yul\":8904:9026   */\n      pop\n      jump\t// out\n\n    auxdata: 0xa26469706673582212200dce2bf5f47c8fc44bd3b83b7bf4304d1eec0e12004748638698d8b2bb52ea7464736f6c63430008070033\n}\n",
				"bytecode": {
					"linkReferences": {},
					"object": "608060405234801561001057600080fd5b5033600460006101000a81548173ffffffffffffffffffffffffffffffffffffffff021916908373ffffffffffffffffffffffffffffffffffffffff160217905550611008806100616000396000f3fe608060405234801561001057600080fd5b506004361061007d5760003560e01c8063883278631161005b57806388327863146100dc57806395d89b411461010c578063b00173211461012a578063f26748e21461015a5761007d565b806306fdde031461008257806318160ddd146100a0578063313ce567146100be575b600080fd5b61008a61018a565b6040516100979190610cf7565b60405180910390f35b6100a86101c7565b6040516100b59190610d59565b60405180910390f35b6100c66101d1565b6040516100d39190610d59565b60405180910390f35b6100f660048036038101906100f19190610b34565b6101da565b6040516101039190610d59565b60405180910390f35b61011461030c565b6040516101219190610cf7565b60405180910390f35b610144600480360381019061013f9190610b74565b610349565b6040516101519190610cb3565b60405180910390f35b610174600480360381019061016f9190610bc7565b610794565b6040516101819190610cb3565b60405180910390f35b60606040518060400160405280600a81526020017f576174657220436f696e00000000000000000000000000000000000000000000815250905090565b6000600354905090565b60006012905090565b60008060028111156101ef576101ee610ee9565b5b83600281111561020257610201610ee9565b5b141561024f57600560008373ffffffffffffffffffffffffffffffffffffffff1673ffffffffffffffffffffffffffffffffffffffff168152602001908152602001600020549050610306565b6001600281111561026357610262610ee9565b5b83600281111561027657610275610ee9565b5b14156102c357600660008373ffffffffffffffffffffffffffffffffffffffff1673ffffffffffffffffffffffffffffffffffffffff168152602001908152602001600020549050610306565b600760008373ffffffffffffffffffffffffffffffffffffffff1673ffffffffffffffffffffffffffffffffffffffff1681526020019081526020016000205490505b92915050565b60606040518060400160405280600381526020017f5741430000000000000000000000000000000000000000000000000000000000815250905090565b600080600354905060003390506000600281111561036a57610369610ee9565b5b86600281111561037d5761037c610ee9565b5b141561047c5783600560008373ffffffffffffffffffffffffffffffffffffffff1673ffffffffffffffffffffffffffffffffffffffff1681526020019081526020016000205410156103cf57600080fd5b83600560008373ffffffffffffffffffffffffffffffffffffffff1673ffffffffffffffffffffffffffffffffffffffff168152602001908152602001600020600082825461041e9190610de6565b9250508190555083600560008773ffffffffffffffffffffffffffffffffffffffff1673ffffffffffffffffffffffffffffffffffffffff16815260200190815260200160002060008282546104749190610d90565b925050819055505b600160028111156104905761048f610ee9565b5b8660028111156104a3576104a2610ee9565b5b14156105a25783600660008373ffffffffffffffffffffffffffffffffffffffff1673ffffffffffffffffffffffffffffffffffffffff1681526020019081526020016000205410156104f557600080fd5b83600660008373ffffffffffffffffffffffffffffffffffffffff1673ffffffffffffffffffffffffffffffffffffffff16815260200190815260200160002060008282546105449190610de6565b9250508190555083600660008773ffffffffffffffffffffffffffffffffffffffff1673ffffffffffffffffffffffffffffffffffffffff168152602001908152602001600020600082825461059a9190610d90565b925050819055505b6002808111156105b5576105b4610ee9565b5b8660028111156105c8576105c7610ee9565b5b14156106cb5783600760008373ffffffffffffffffffffffffffffffffffffffff1673ffffffffffffffffffffffffffffffffffffffff16815260200190815260200160002054101561061a57600080fd5b83600760008373ffffffffffffffffffffffffffffffffffffffff1673ffffffffffffffffffffffffffffffffffffffff16815260200190815260200160002060008282546106699190610de6565b9250508190555083600760008773ffffffffffffffffffffffffffffffffffffffff1673ffffffffffffffffffffffffffffffffffffffff16815260200190815260200160002060008282546106bf9190610d90565b925050819055506106d5565b6000925050610742565b8473ffffffffffffffffffffffffffffffffffffffff168173ffffffffffffffffffffffffffffffffffffffff167fe192cba3a5eabbf7ebf40ef51fc1b6d131e88803c56e37fa6daab2f7c450743d8887604051610734929190610cce565b60405180910390a360019250505b6000600354905080821461078b576040517f08c379a000000000000000000000000000000000000000000000000000000000815260040161078290610d19565b60405180910390fd5b50509392505050565b60003373ffffffffffffffffffffffffffffffffffffffff16600460009054906101000a900473ffffffffffffffffffffffffffffffffffffffff1673ffffffffffffffffffffffffffffffffffffffff1614610826576040517f08c379a000000000000000000000000000000000000000000000000000000000815260040161081d90610d39565b60405180910390fd5b60003390508073ffffffffffffffffffffffffffffffffffffffff16600460009054906101000a900473ffffffffffffffffffffffffffffffffffffffff1673ffffffffffffffffffffffffffffffffffffffff16146108bb576040517f08c379a00000000000000000000000000000000000000000000000000000000081526004016108b290610d39565b60405180910390fd5b600060028111156108cf576108ce610ee9565b5b8460028111156108e2576108e1610ee9565b5b14156109705782600560008373ffffffffffffffffffffffffffffffffffffffff1673ffffffffffffffffffffffffffffffffffffffff16815260200190815260200160002060008282546109379190610d90565b925050819055508260008082825461094f9190610d90565b9250508190555082600360008282546109689190610d90565b925050819055505b6001600281111561098457610983610ee9565b5b84600281111561099757610996610ee9565b5b1415610a265782600660008373ffffffffffffffffffffffffffffffffffffffff1673ffffffffffffffffffffffffffffffffffffffff16815260200190815260200160002060008282546109ec9190610d90565b925050819055508260016000828254610a059190610d90565b925050819055508260036000828254610a1e9190610d90565b925050819055505b600280811115610a3957610a38610ee9565b5b846002811115610a4c57610a4b610ee9565b5b1415610adf5782600760008373ffffffffffffffffffffffffffffffffffffffff1673ffffffffffffffffffffffffffffffffffffffff1681526020019081526020016000206000828254610aa19190610d90565b925050819055508260026000828254610aba9190610d90565b925050819055508260036000828254610ad39190610d90565b92505081905550610ae9565b6000915050610aef565b60019150505b92915050565b600081359050610b0481610f94565b92915050565b600081359050610b1981610fab565b92915050565b600081359050610b2e81610fbb565b92915050565b60008060408385031215610b4b57610b4a610f18565b5b6000610b5985828601610b0a565b9250506020610b6a85828601610af5565b9150509250929050565b600080600060608486031215610b8d57610b8c610f18565b5b6000610b9b86828701610b0a565b9350506020610bac86828701610af5565b9250506040610bbd86828701610b1f565b9150509250925092565b60008060408385031215610bde57610bdd610f18565b5b6000610bec85828601610b0a565b9250506020610bfd85828601610b1f565b9150509250929050565b610c1081610e2c565b82525050565b610c1f81610e75565b82525050565b6000610c3082610d74565b610c3a8185610d7f565b9350610c4a818560208601610e87565b610c5381610f1d565b840191505092915050565b6000610c6b601083610d7f565b9150610c7682610f2e565b602082019050919050565b6000610c8e601383610d7f565b9150610c9982610f57565b602082019050919050565b610cad81610e6b565b82525050565b6000602082019050610cc86000830184610c07565b92915050565b6000604082019050610ce36000830185610c16565b610cf06020830184610ca4565b9392505050565b60006020820190508181036000830152610d118184610c25565b905092915050565b60006020820190508181036000830152610d3281610c5e565b9050919050565b60006020820190508181036000830152610d5281610c81565b9050919050565b6000602082019050610d6e6000830184610ca4565b92915050565b600081519050919050565b600082825260208201905092915050565b6000610d9b82610e6b565b9150610da683610e6b565b9250827fffffffffffffffffffffffffffffffffffffffffffffffffffffffffffffffff03821115610ddb57610dda610eba565b5b828201905092915050565b6000610df182610e6b565b9150610dfc83610e6b565b925082821015610e0f57610e0e610eba565b5b828203905092915050565b6000610e2582610e4b565b9050919050565b60008115159050919050565b6000819050610e4682610f80565b919050565b600073ffffffffffffffffffffffffffffffffffffffff82169050919050565b6000819050919050565b6000610e8082610e38565b9050919050565b60005b83811015610ea5578082015181840152602081019050610e8a565b83811115610eb4576000848401525b50505050565b7f4e487b7100000000000000000000000000000000000000000000000000000000600052601160045260246000fd5b7f4e487b7100000000000000000000000000000000000000000000000000000000600052602160045260246000fd5b600080fd5b6000601f19601f8301169050919050565b7f696e76617269616e636520666f756e6400000000000000000000000000000000600082015250565b7f73656e646572206973206e6f74206f776e657200000000000000000000000000600082015250565b60038110610f9157610f90610ee9565b5b50565b610f9d81610e1a565b8114610fa857600080fd5b50565b60038110610fb857600080fd5b50565b610fc481610e6b565b8114610fcf57600080fd5b5056fea26469706673582212200dce2bf5f47c8fc44bd3b83b7bf4304d1eec0e12004748638698d8b2bb52ea7464736f6c63430008070033",
					"opcodes": "PUSH1 0x80 PUSH1 0x40 MSTORE CALLVALUE DUP1 ISZERO PUSH2 0x10 JUMPI PUSH1 0x0 DUP1 REVERT JUMPDEST POP CALLER PUSH1 0x4 PUSH1 0x0 PUSH2 0x100 EXP DUP2 SLOAD DUP2 PUSH20 0xFFFFFFFFFFFFFFFFFFFFFFFFFFFFFFFFFFFFFFFF MUL NOT AND SWAP1 DUP4 PUSH20 0xFFFFFFFFFFFFFFFFFFFFFFFFFFFFFFFFFFFFFFFF AND MUL OR SWAP1 SSTORE POP PUSH2 0x1008 DUP1 PUSH2 0x61 PUSH1 0x0 CODECOPY PUSH1 0x0 RETURN INVALID PUSH1 0x80 PUSH1 0x40 MSTORE CALLVALUE DUP1 ISZERO PUSH2 0x10 JUMPI PUSH1 0x0 DUP1 REVERT JUMPDEST POP PUSH1 0x4 CALLDATASIZE LT PUSH2 0x7D JUMPI PUSH1 0x0 CALLDATALOAD PUSH1 0xE0 SHR DUP1 PUSH4 0x88327863 GT PUSH2 0x5B JUMPI DUP1 PUSH4 0x88327863 EQ PUSH2 0xDC JUMPI DUP1 PUSH4 0x95D89B41 EQ PUSH2 0x10C JUMPI DUP1 PUSH4 0xB0017321 EQ PUSH2 0x12A JUMPI DUP1 PUSH4 0xF26748E2 EQ PUSH2 0x15A JUMPI PUSH2 0x7D JUMP JUMPDEST DUP1 PUSH4 0x6FDDE03 EQ PUSH2 0x82 JUMPI DUP1 PUSH4 0x18160DDD EQ PUSH2 0xA0 JUMPI DUP1 PUSH4 0x313CE567 EQ PUSH2 0xBE JUMPI JUMPDEST PUSH1 0x0 DUP1 REVERT JUMPDEST PUSH2 0x8A PUSH2 0x18A JUMP JUMPDEST PUSH1 0x40 MLOAD PUSH2 0x97 SWAP2 SWAP1 PUSH2 0xCF7 JUMP JUMPDEST PUSH1 0x40 MLOAD DUP1 SWAP2 SUB SWAP1 RETURN JUMPDEST PUSH2 0xA8 PUSH2 0x1C7 JUMP JUMPDEST PUSH1 0x40 MLOAD PUSH2 0xB5 SWAP2 SWAP1 PUSH2 0xD59 JUMP JUMPDEST PUSH1 0x40 MLOAD DUP1 SWAP2 SUB SWAP1 RETURN JUMPDEST PUSH2 0xC6 PUSH2 0x1D1 JUMP JUMPDEST PUSH1 0x40 MLOAD PUSH2 0xD3 SWAP2 SWAP1 PUSH2 0xD59 JUMP JUMPDEST PUSH1 0x40 MLOAD DUP1 SWAP2 SUB SWAP1 RETURN JUMPDEST PUSH2 0xF6 PUSH1 0x4 DUP1 CALLDATASIZE SUB DUP2 ADD SWAP1 PUSH2 0xF1 SWAP2 SWAP1 PUSH2 0xB34 JUMP JUMPDEST PUSH2 0x1DA JUMP JUMPDEST PUSH1 0x40 MLOAD PUSH2 0x103 SWAP2 SWAP1 PUSH2 0xD59 JUMP JUMPDEST PUSH1 0x40 MLOAD DUP1 SWAP2 SUB SWAP1 RETURN JUMPDEST PUSH2 0x114 PUSH2 0x30C JUMP JUMPDEST PUSH1 0x40 MLOAD PUSH2 0x121 SWAP2 SWAP1 PUSH2 0xCF7 JUMP JUMPDEST PUSH1 0x40 MLOAD DUP1 SWAP2 SUB SWAP1 RETURN JUMPDEST PUSH2 0x144 PUSH1 0x4 DUP1 CALLDATASIZE SUB DUP2 ADD SWAP1 PUSH2 0x13F SWAP2 SWAP1 PUSH2 0xB74 JUMP JUMPDEST PUSH2 0x349 JUMP JUMPDEST PUSH1 0x40 MLOAD PUSH2 0x151 SWAP2 SWAP1 PUSH2 0xCB3 JUMP JUMPDEST PUSH1 0x40 MLOAD DUP1 SWAP2 SUB SWAP1 RETURN JUMPDEST PUSH2 0x174 PUSH1 0x4 DUP1 CALLDATASIZE SUB DUP2 ADD SWAP1 PUSH2 0x16F SWAP2 SWAP1 PUSH2 0xBC7 JUMP JUMPDEST PUSH2 0x794 JUMP JUMPDEST PUSH1 0x40 MLOAD PUSH2 0x181 SWAP2 SWAP1 PUSH2 0xCB3 JUMP JUMPDEST PUSH1 0x40 MLOAD DUP1 SWAP2 SUB SWAP1 RETURN JUMPDEST PUSH1 0x60 PUSH1 0x40 MLOAD DUP1 PUSH1 0x40 ADD PUSH1 0x40 MSTORE DUP1 PUSH1 0xA DUP2 MSTORE PUSH1 0x20 ADD PUSH32 0x576174657220436F696E00000000000000000000000000000000000000000000 DUP2 MSTORE POP SWAP1 POP SWAP1 JUMP JUMPDEST PUSH1 0x0 PUSH1 0x3 SLOAD SWAP1 POP SWAP1 JUMP JUMPDEST PUSH1 0x0 PUSH1 0x12 SWAP1 POP SWAP1 JUMP JUMPDEST PUSH1 0x0 DUP1 PUSH1 0x2 DUP2 GT ISZERO PUSH2 0x1EF JUMPI PUSH2 0x1EE PUSH2 0xEE9 JUMP JUMPDEST JUMPDEST DUP4 PUSH1 0x2 DUP2 GT ISZERO PUSH2 0x202 JUMPI PUSH2 0x201 PUSH2 0xEE9 JUMP JUMPDEST JUMPDEST EQ ISZERO PUSH2 0x24F JUMPI PUSH1 0x5 PUSH1 0x0 DUP4 PUSH20 0xFFFFFFFFFFFFFFFFFFFFFFFFFFFFFFFFFFFFFFFF AND PUSH20 0xFFFFFFFFFFFFFFFFFFFFFFFFFFFFFFFFFFFFFFFF AND DUP2 MSTORE PUSH1 0x20 ADD SWAP1 DUP2 MSTORE PUSH1 0x20 ADD PUSH1 0x0 KECCAK256 SLOAD SWAP1 POP PUSH2 0x306 JUMP JUMPDEST PUSH1 0x1 PUSH1 0x2 DUP2 GT ISZERO PUSH2 0x263 JUMPI PUSH2 0x262 PUSH2 0xEE9 JUMP JUMPDEST JUMPDEST DUP4 PUSH1 0x2 DUP2 GT ISZERO PUSH2 0x276 JUMPI PUSH2 0x275 PUSH2 0xEE9 JUMP JUMPDEST JUMPDEST EQ ISZERO PUSH2 0x2C3 JUMPI PUSH1 0x6 PUSH1 0x0 DUP4 PUSH20 0xFFFFFFFFFFFFFFFFFFFFFFFFFFFFFFFFFFFFFFFF AND PUSH20 0xFFFFFFFFFFFFFFFFFFFFFFFFFFFFFFFFFFFFFFFF AND DUP2 MSTORE PUSH1 0x20 ADD SWAP1 DUP2 MSTORE PUSH1 0x20 ADD PUSH1 0x0 KECCAK256 SLOAD SWAP1 POP PUSH2 0x306 JUMP JUMPDEST PUSH1 0x7 PUSH1 0x0 DUP4 PUSH20 0xFFFFFFFFFFFFFFFFFFFFFFFFFFFFFFFFFFFFFFFF AND PUSH20 0xFFFFFFFFFFFFFFFFFFFFFFFFFFFFFFFFFFFFFFFF AND DUP2 MSTORE PUSH1 0x20 ADD SWAP1 DUP2 MSTORE PUSH1 0x20 ADD PUSH1 0x0 KECCAK256 SLOAD SWAP1 POP JUMPDEST SWAP3 SWAP2 POP POP JUMP JUMPDEST PUSH1 0x60 PUSH1 0x40 MLOAD DUP1 PUSH1 0x40 ADD PUSH1 0x40 MSTORE DUP1 PUSH1 0x3 DUP2 MSTORE PUSH1 0x20 ADD PUSH32 0x5741430000000000000000000000000000000000000000000000000000000000 DUP2 MSTORE POP SWAP1 POP SWAP1 JUMP JUMPDEST PUSH1 0x0 DUP1 PUSH1 0x3 SLOAD SWAP1 POP PUSH1 0x0 CALLER SWAP1 POP PUSH1 0x0 PUSH1 0x2 DUP2 GT ISZERO PUSH2 0x36A JUMPI PUSH2 0x369 PUSH2 0xEE9 JUMP JUMPDEST JUMPDEST DUP7 PUSH1 0x2 DUP2 GT ISZERO PUSH2 0x37D JUMPI PUSH2 0x37C PUSH2 0xEE9 JUMP JUMPDEST JUMPDEST EQ ISZERO PUSH2 0x47C JUMPI DUP4 PUSH1 0x5 PUSH1 0x0 DUP4 PUSH20 0xFFFFFFFFFFFFFFFFFFFFFFFFFFFFFFFFFFFFFFFF AND PUSH20 0xFFFFFFFFFFFFFFFFFFFFFFFFFFFFFFFFFFFFFFFF AND DUP2 MSTORE PUSH1 0x20 ADD SWAP1 DUP2 MSTORE PUSH1 0x20 ADD PUSH1 0x0 KECCAK256 SLOAD LT ISZERO PUSH2 0x3CF JUMPI PUSH1 0x0 DUP1 REVERT JUMPDEST DUP4 PUSH1 0x5 PUSH1 0x0 DUP4 PUSH20 0xFFFFFFFFFFFFFFFFFFFFFFFFFFFFFFFFFFFFFFFF AND PUSH20 0xFFFFFFFFFFFFFFFFFFFFFFFFFFFFFFFFFFFFFFFF AND DUP2 MSTORE PUSH1 0x20 ADD SWAP1 DUP2 MSTORE PUSH1 0x20 ADD PUSH1 0x0 KECCAK256 PUSH1 0x0 DUP3 DUP3 SLOAD PUSH2 0x41E SWAP2 SWAP1 PUSH2 0xDE6 JUMP JUMPDEST SWAP3 POP POP DUP2 SWAP1 SSTORE POP DUP4 PUSH1 0x5 PUSH1 0x0 DUP8 PUSH20 0xFFFFFFFFFFFFFFFFFFFFFFFFFFFFFFFFFFFFFFFF AND PUSH20 0xFFFFFFFFFFFFFFFFFFFFFFFFFFFFFFFFFFFFFFFF AND DUP2 MSTORE PUSH1 0x20 ADD SWAP1 DUP2 MSTORE PUSH1 0x20 ADD PUSH1 0x0 KECCAK256 PUSH1 0x0 DUP3 DUP3 SLOAD PUSH2 0x474 SWAP2 SWAP1 PUSH2 0xD90 JUMP JUMPDEST SWAP3 POP POP DUP2 SWAP1 SSTORE POP JUMPDEST PUSH1 0x1 PUSH1 0x2 DUP2 GT ISZERO PUSH2 0x490 JUMPI PUSH2 0x48F PUSH2 0xEE9 JUMP JUMPDEST JUMPDEST DUP7 PUSH1 0x2 DUP2 GT ISZERO PUSH2 0x4A3 JUMPI PUSH2 0x4A2 PUSH2 0xEE9 JUMP JUMPDEST JUMPDEST EQ ISZERO PUSH2 0x5A2 JUMPI DUP4 PUSH1 0x6 PUSH1 0x0 DUP4 PUSH20 0xFFFFFFFFFFFFFFFFFFFFFFFFFFFFFFFFFFFFFFFF AND PUSH20 0xFFFFFFFFFFFFFFFFFFFFFFFFFFFFFFFFFFFFFFFF AND DUP2 MSTORE PUSH1 0x20 ADD SWAP1 DUP2 MSTORE PUSH1 0x20 ADD PUSH1 0x0 KECCAK256 SLOAD LT ISZERO PUSH2 0x4F5 JUMPI PUSH1 0x0 DUP1 REVERT JUMPDEST DUP4 PUSH1 0x6 PUSH1 0x0 DUP4 PUSH20 0xFFFFFFFFFFFFFFFFFFFFFFFFFFFFFFFFFFFFFFFF AND PUSH20 0xFFFFFFFFFFFFFFFFFFFFFFFFFFFFFFFFFFFFFFFF AND DUP2 MSTORE PUSH1 0x20 ADD SWAP1 DUP2 MSTORE PUSH1 0x20 ADD PUSH1 0x0 KECCAK256 PUSH1 0x0 DUP3 DUP3 SLOAD PUSH2 0x544 SWAP2 SWAP1 PUSH2 0xDE6 JUMP JUMPDEST SWAP3 POP POP DUP2 SWAP1 SSTORE POP DUP4 PUSH1 0x6 PUSH1 0x0 DUP8 PUSH20 0xFFFFFFFFFFFFFFFFFFFFFFFFFFFFFFFFFFFFFFFF AND PUSH20 0xFFFFFFFFFFFFFFFFFFFFFFFFFFFFFFFFFFFFFFFF AND DUP2 MSTORE PUSH1 0x20 ADD SWAP1 DUP2 MSTORE PUSH1 0x20 ADD PUSH1 0x0 KECCAK256 PUSH1 0x0 DUP3 DUP3 SLOAD PUSH2 0x59A SWAP2 SWAP1 PUSH2 0xD90 JUMP JUMPDEST SWAP3 POP POP DUP2 SWAP1 SSTORE POP JUMPDEST PUSH1 0x2 DUP1 DUP2 GT ISZERO PUSH2 0x5B5 JUMPI PUSH2 0x5B4 PUSH2 0xEE9 JUMP JUMPDEST JUMPDEST DUP7 PUSH1 0x2 DUP2 GT ISZERO PUSH2 0x5C8 JUMPI PUSH2 0x5C7 PUSH2 0xEE9 JUMP JUMPDEST JUMPDEST EQ ISZERO PUSH2 0x6CB JUMPI DUP4 PUSH1 0x7 PUSH1 0x0 DUP4 PUSH20 0xFFFFFFFFFFFFFFFFFFFFFFFFFFFFFFFFFFFFFFFF AND PUSH20 0xFFFFFFFFFFFFFFFFFFFFFFFFFFFFFFFFFFFFFFFF AND DUP2 MSTORE PUSH1 0x20 ADD SWAP1 DUP2 MSTORE PUSH1 0x20 ADD PUSH1 0x0 KECCAK256 SLOAD LT ISZERO PUSH2 0x61A JUMPI PUSH1 0x0 DUP1 REVERT JUMPDEST DUP4 PUSH1 0x7 PUSH1 0x0 DUP4 PUSH20 0xFFFFFFFFFFFFFFFFFFFFFFFFFFFFFFFFFFFFFFFF AND PUSH20 0xFFFFFFFFFFFFFFFFFFFFFFFFFFFFFFFFFFFFFFFF AND DUP2 MSTORE PUSH1 0x20 ADD SWAP1 DUP2 MSTORE PUSH1 0x20 ADD PUSH1 0x0 KECCAK256 PUSH1 0x0 DUP3 DUP3 SLOAD PUSH2 0x669 SWAP2 SWAP1 PUSH2 0xDE6 JUMP JUMPDEST SWAP3 POP POP DUP2 SWAP1 SSTORE POP DUP4 PUSH1 0x7 PUSH1 0x0 DUP8 PUSH20 0xFFFFFFFFFFFFFFFFFFFFFFFFFFFFFFFFFFFFFFFF AND PUSH20 0xFFFFFFFFFFFFFFFFFFFFFFFFFFFFFFFFFFFFFFFF AND DUP2 MSTORE PUSH1 0x20 ADD SWAP1 DUP2 MSTORE PUSH1 0x20 ADD PUSH1 0x0 KECCAK256 PUSH1 0x0 DUP3 DUP3 SLOAD PUSH2 0x6BF SWAP2 SWAP1 PUSH2 0xD90 JUMP JUMPDEST SWAP3 POP POP DUP2 SWAP1 SSTORE POP PUSH2 0x6D5 JUMP JUMPDEST PUSH1 0x0 SWAP3 POP POP PUSH2 0x742 JUMP JUMPDEST DUP5 PUSH20 0xFFFFFFFFFFFFFFFFFFFFFFFFFFFFFFFFFFFFFFFF AND DUP2 PUSH20 0xFFFFFFFFFFFFFFFFFFFFFFFFFFFFFFFFFFFFFFFF AND PUSH32 0xE192CBA3A5EABBF7EBF40EF51FC1B6D131E88803C56E37FA6DAAB2F7C450743D DUP9 DUP8 PUSH1 0x40 MLOAD PUSH2 0x734 SWAP3 SWAP2 SWAP1 PUSH2 0xCCE JUMP JUMPDEST PUSH1 0x40 MLOAD DUP1 SWAP2 SUB SWAP1 LOG3 PUSH1 0x1 SWAP3 POP POP JUMPDEST PUSH1 0x0 PUSH1 0x3 SLOAD SWAP1 POP DUP1 DUP3 EQ PUSH2 0x78B JUMPI PUSH1 0x40 MLOAD PUSH32 0x8C379A000000000000000000000000000000000000000000000000000000000 DUP2 MSTORE PUSH1 0x4 ADD PUSH2 0x782 SWAP1 PUSH2 0xD19 JUMP JUMPDEST PUSH1 0x40 MLOAD DUP1 SWAP2 SUB SWAP1 REVERT JUMPDEST POP POP SWAP4 SWAP3 POP POP POP JUMP JUMPDEST PUSH1 0x0 CALLER PUSH20 0xFFFFFFFFFFFFFFFFFFFFFFFFFFFFFFFFFFFFFFFF AND PUSH1 0x4 PUSH1 0x0 SWAP1 SLOAD SWAP1 PUSH2 0x100 EXP SWAP1 DIV PUSH20 0xFFFFFFFFFFFFFFFFFFFFFFFFFFFFFFFFFFFFFFFF AND PUSH20 0xFFFFFFFFFFFFFFFFFFFFFFFFFFFFFFFFFFFFFFFF AND EQ PUSH2 0x826 JUMPI PUSH1 0x40 MLOAD PUSH32 0x8C379A000000000000000000000000000000000000000000000000000000000 DUP2 MSTORE PUSH1 0x4 ADD PUSH2 0x81D SWAP1 PUSH2 0xD39 JUMP JUMPDEST PUSH1 0x40 MLOAD DUP1 SWAP2 SUB SWAP1 REVERT JUMPDEST PUSH1 0x0 CALLER SWAP1 POP DUP1 PUSH20 0xFFFFFFFFFFFFFFFFFFFFFFFFFFFFFFFFFFFFFFFF AND PUSH1 0x4 PUSH1 0x0 SWAP1 SLOAD SWAP1 PUSH2 0x100 EXP SWAP1 DIV PUSH20 0xFFFFFFFFFFFFFFFFFFFFFFFFFFFFFFFFFFFFFFFF AND PUSH20 0xFFFFFFFFFFFFFFFFFFFFFFFFFFFFFFFFFFFFFFFF AND EQ PUSH2 0x8BB JUMPI PUSH1 0x40 MLOAD PUSH32 0x8C379A000000000000000000000000000000000000000000000000000000000 DUP2 MSTORE PUSH1 0x4 ADD PUSH2 0x8B2 SWAP1 PUSH2 0xD39 JUMP JUMPDEST PUSH1 0x40 MLOAD DUP1 SWAP2 SUB SWAP1 REVERT JUMPDEST PUSH1 0x0 PUSH1 0x2 DUP2 GT ISZERO PUSH2 0x8CF JUMPI PUSH2 0x8CE PUSH2 0xEE9 JUMP JUMPDEST JUMPDEST DUP5 PUSH1 0x2 DUP2 GT ISZERO PUSH2 0x8E2 JUMPI PUSH2 0x8E1 PUSH2 0xEE9 JUMP JUMPDEST JUMPDEST EQ ISZERO PUSH2 0x970 JUMPI DUP3 PUSH1 0x5 PUSH1 0x0 DUP4 PUSH20 0xFFFFFFFFFFFFFFFFFFFFFFFFFFFFFFFFFFFFFFFF AND PUSH20 0xFFFFFFFFFFFFFFFFFFFFFFFFFFFFFFFFFFFFFFFF AND DUP2 MSTORE PUSH1 0x20 ADD SWAP1 DUP2 MSTORE PUSH1 0x20 ADD PUSH1 0x0 KECCAK256 PUSH1 0x0 DUP3 DUP3 SLOAD PUSH2 0x937 SWAP2 SWAP1 PUSH2 0xD90 JUMP JUMPDEST SWAP3 POP POP DUP2 SWAP1 SSTORE POP DUP3 PUSH1 0x0 DUP1 DUP3 DUP3 SLOAD PUSH2 0x94F SWAP2 SWAP1 PUSH2 0xD90 JUMP JUMPDEST SWAP3 POP POP DUP2 SWAP1 SSTORE POP DUP3 PUSH1 0x3 PUSH1 0x0 DUP3 DUP3 SLOAD PUSH2 0x968 SWAP2 SWAP1 PUSH2 0xD90 JUMP JUMPDEST SWAP3 POP POP DUP2 SWAP1 SSTORE POP JUMPDEST PUSH1 0x1 PUSH1 0x2 DUP2 GT ISZERO PUSH2 0x984 JUMPI PUSH2 0x983 PUSH2 0xEE9 JUMP JUMPDEST JUMPDEST DUP5 PUSH1 0x2 DUP2 GT ISZERO PUSH2 0x997 JUMPI PUSH2 0x996 PUSH2 0xEE9 JUMP JUMPDEST JUMPDEST EQ ISZERO PUSH2 0xA26 JUMPI DUP3 PUSH1 0x6 PUSH1 0x0 DUP4 PUSH20 0xFFFFFFFFFFFFFFFFFFFFFFFFFFFFFFFFFFFFFFFF AND PUSH20 0xFFFFFFFFFFFFFFFFFFFFFFFFFFFFFFFFFFFFFFFF AND DUP2 MSTORE PUSH1 0x20 ADD SWAP1 DUP2 MSTORE PUSH1 0x20 ADD PUSH1 0x0 KECCAK256 PUSH1 0x0 DUP3 DUP3 SLOAD PUSH2 0x9EC SWAP2 SWAP1 PUSH2 0xD90 JUMP JUMPDEST SWAP3 POP POP DUP2 SWAP1 SSTORE POP DUP3 PUSH1 0x1 PUSH1 0x0 DUP3 DUP3 SLOAD PUSH2 0xA05 SWAP2 SWAP1 PUSH2 0xD90 JUMP JUMPDEST SWAP3 POP POP DUP2 SWAP1 SSTORE POP DUP3 PUSH1 0x3 PUSH1 0x0 DUP3 DUP3 SLOAD PUSH2 0xA1E SWAP2 SWAP1 PUSH2 0xD90 JUMP JUMPDEST SWAP3 POP POP DUP2 SWAP1 SSTORE POP JUMPDEST PUSH1 0x2 DUP1 DUP2 GT ISZERO PUSH2 0xA39 JUMPI PUSH2 0xA38 PUSH2 0xEE9 JUMP JUMPDEST JUMPDEST DUP5 PUSH1 0x2 DUP2 GT ISZERO PUSH2 0xA4C JUMPI PUSH2 0xA4B PUSH2 0xEE9 JUMP JUMPDEST JUMPDEST EQ ISZERO PUSH2 0xADF JUMPI DUP3 PUSH1 0x7 PUSH1 0x0 DUP4 PUSH20 0xFFFFFFFFFFFFFFFFFFFFFFFFFFFFFFFFFFFFFFFF AND PUSH20 0xFFFFFFFFFFFFFFFFFFFFFFFFFFFFFFFFFFFFFFFF AND DUP2 MSTORE PUSH1 0x20 ADD SWAP1 DUP2 MSTORE PUSH1 0x20 ADD PUSH1 0x0 KECCAK256 PUSH1 0x0 DUP3 DUP3 SLOAD PUSH2 0xAA1 SWAP2 SWAP1 PUSH2 0xD90 JUMP JUMPDEST SWAP3 POP POP DUP2 SWAP1 SSTORE POP DUP3 PUSH1 0x2 PUSH1 0x0 DUP3 DUP3 SLOAD PUSH2 0xABA SWAP2 SWAP1 PUSH2 0xD90 JUMP JUMPDEST SWAP3 POP POP DUP2 SWAP1 SSTORE POP DUP3 PUSH1 0x3 PUSH1 0x0 DUP3 DUP3 SLOAD PUSH2 0xAD3 SWAP2 SWAP1 PUSH2 0xD90 JUMP JUMPDEST SWAP3 POP POP DUP2 SWAP1 SSTORE POP PUSH2 0xAE9 JUMP JUMPDEST PUSH1 0x0 SWAP2 POP POP PUSH2 0xAEF JUMP JUMPDEST PUSH1 0x1 SWAP2 POP POP JUMPDEST SWAP3 SWAP2 POP POP JUMP JUMPDEST PUSH1 0x0 DUP2 CALLDATALOAD SWAP1 POP PUSH2 0xB04 DUP2 PUSH2 0xF94 JUMP JUMPDEST SWAP3 SWAP2 POP POP JUMP JUMPDEST PUSH1 0x0 DUP2 CALLDATALOAD SWAP1 POP PUSH2 0xB19 DUP2 PUSH2 0xFAB JUMP JUMPDEST SWAP3 SWAP2 POP POP JUMP JUMPDEST PUSH1 0x0 DUP2 CALLDATALOAD SWAP1 POP PUSH2 0xB2E DUP2 PUSH2 0xFBB JUMP JUMPDEST SWAP3 SWAP2 POP POP JUMP JUMPDEST PUSH1 0x0 DUP1 PUSH1 0x40 DUP4 DUP6 SUB SLT ISZERO PUSH2 0xB4B JUMPI PUSH2 0xB4A PUSH2 0xF18 JUMP JUMPDEST JUMPDEST PUSH1 0x0 PUSH2 0xB59 DUP6 DUP3 DUP7 ADD PUSH2 0xB0A JUMP JUMPDEST SWAP3 POP POP PUSH1 0x20 PUSH2 0xB6A DUP6 DUP3 DUP7 ADD PUSH2 0xAF5 JUMP JUMPDEST SWAP2 POP POP SWAP3 POP SWAP3 SWAP1 POP JUMP JUMPDEST PUSH1 0x0 DUP1 PUSH1 0x0 PUSH1 0x60 DUP5 DUP7 SUB SLT ISZERO PUSH2 0xB8D JUMPI PUSH2 0xB8C PUSH2 0xF18 JUMP JUMPDEST JUMPDEST PUSH1 0x0 PUSH2 0xB9B DUP7 DUP3 DUP8 ADD PUSH2 0xB0A JUMP JUMPDEST SWAP4 POP POP PUSH1 0x20 PUSH2 0xBAC DUP7 DUP3 DUP8 ADD PUSH2 0xAF5 JUMP JUMPDEST SWAP3 POP POP PUSH1 0x40 PUSH2 0xBBD DUP7 DUP3 DUP8 ADD PUSH2 0xB1F JUMP JUMPDEST SWAP2 POP POP SWAP3 POP SWAP3 POP SWAP3 JUMP JUMPDEST PUSH1 0x0 DUP1 PUSH1 0x40 DUP4 DUP6 SUB SLT ISZERO PUSH2 0xBDE JUMPI PUSH2 0xBDD PUSH2 0xF18 JUMP JUMPDEST JUMPDEST PUSH1 0x0 PUSH2 0xBEC DUP6 DUP3 DUP7 ADD PUSH2 0xB0A JUMP JUMPDEST SWAP3 POP POP PUSH1 0x20 PUSH2 0xBFD DUP6 DUP3 DUP7 ADD PUSH2 0xB1F JUMP JUMPDEST SWAP2 POP POP SWAP3 POP SWAP3 SWAP1 POP JUMP JUMPDEST PUSH2 0xC10 DUP2 PUSH2 0xE2C JUMP JUMPDEST DUP3 MSTORE POP POP JUMP JUMPDEST PUSH2 0xC1F DUP2 PUSH2 0xE75 JUMP JUMPDEST DUP3 MSTORE POP POP JUMP JUMPDEST PUSH1 0x0 PUSH2 0xC30 DUP3 PUSH2 0xD74 JUMP JUMPDEST PUSH2 0xC3A DUP2 DUP6 PUSH2 0xD7F JUMP JUMPDEST SWAP4 POP PUSH2 0xC4A DUP2 DUP6 PUSH1 0x20 DUP7 ADD PUSH2 0xE87 JUMP JUMPDEST PUSH2 0xC53 DUP2 PUSH2 0xF1D JUMP JUMPDEST DUP5 ADD SWAP2 POP POP SWAP3 SWAP2 POP POP JUMP JUMPDEST PUSH1 0x0 PUSH2 0xC6B PUSH1 0x10 DUP4 PUSH2 0xD7F JUMP JUMPDEST SWAP2 POP PUSH2 0xC76 DUP3 PUSH2 0xF2E JUMP JUMPDEST PUSH1 0x20 DUP3 ADD SWAP1 POP SWAP2 SWAP1 POP JUMP JUMPDEST PUSH1 0x0 PUSH2 0xC8E PUSH1 0x13 DUP4 PUSH2 0xD7F JUMP JUMPDEST SWAP2 POP PUSH2 0xC99 DUP3 PUSH2 0xF57 JUMP JUMPDEST PUSH1 0x20 DUP3 ADD SWAP1 POP SWAP2 SWAP1 POP JUMP JUMPDEST PUSH2 0xCAD DUP2 PUSH2 0xE6B JUMP JUMPDEST DUP3 MSTORE POP POP JUMP JUMPDEST PUSH1 0x0 PUSH1 0x20 DUP3 ADD SWAP1 POP PUSH2 0xCC8 PUSH1 0x0 DUP4 ADD DUP5 PUSH2 0xC07 JUMP JUMPDEST SWAP3 SWAP2 POP POP JUMP JUMPDEST PUSH1 0x0 PUSH1 0x40 DUP3 ADD SWAP1 POP PUSH2 0xCE3 PUSH1 0x0 DUP4 ADD DUP6 PUSH2 0xC16 JUMP JUMPDEST PUSH2 0xCF0 PUSH1 0x20 DUP4 ADD DUP5 PUSH2 0xCA4 JUMP JUMPDEST SWAP4 SWAP3 POP POP POP JUMP JUMPDEST PUSH1 0x0 PUSH1 0x20 DUP3 ADD SWAP1 POP DUP2 DUP2 SUB PUSH1 0x0 DUP4 ADD MSTORE PUSH2 0xD11 DUP2 DUP5 PUSH2 0xC25 JUMP JUMPDEST SWAP1 POP SWAP3 SWAP2 POP POP JUMP JUMPDEST PUSH1 0x0 PUSH1 0x20 DUP3 ADD SWAP1 POP DUP2 DUP2 SUB PUSH1 0x0 DUP4 ADD MSTORE PUSH2 0xD32 DUP2 PUSH2 0xC5E JUMP JUMPDEST SWAP1 POP SWAP2 SWAP1 POP JUMP JUMPDEST PUSH1 0x0 PUSH1 0x20 DUP3 ADD SWAP1 POP DUP2 DUP2 SUB PUSH1 0x0 DUP4 ADD MSTORE PUSH2 0xD52 DUP2 PUSH2 0xC81 JUMP JUMPDEST SWAP1 POP SWAP2 SWAP1 POP JUMP JUMPDEST PUSH1 0x0 PUSH1 0x20 DUP3 ADD SWAP1 POP PUSH2 0xD6E PUSH1 0x0 DUP4 ADD DUP5 PUSH2 0xCA4 JUMP JUMPDEST SWAP3 SWAP2 POP POP JUMP JUMPDEST PUSH1 0x0 DUP2 MLOAD SWAP1 POP SWAP2 SWAP1 POP JUMP JUMPDEST PUSH1 0x0 DUP3 DUP3 MSTORE PUSH1 0x20 DUP3 ADD SWAP1 POP SWAP3 SWAP2 POP POP JUMP JUMPDEST PUSH1 0x0 PUSH2 0xD9B DUP3 PUSH2 0xE6B JUMP JUMPDEST SWAP2 POP PUSH2 0xDA6 DUP4 PUSH2 0xE6B JUMP JUMPDEST SWAP3 POP DUP3 PUSH32 0xFFFFFFFFFFFFFFFFFFFFFFFFFFFFFFFFFFFFFFFFFFFFFFFFFFFFFFFFFFFFFFFF SUB DUP3 GT ISZERO PUSH2 0xDDB JUMPI PUSH2 0xDDA PUSH2 0xEBA JUMP JUMPDEST JUMPDEST DUP3 DUP3 ADD SWAP1 POP SWAP3 SWAP2 POP POP JUMP JUMPDEST PUSH1 0x0 PUSH2 0xDF1 DUP3 PUSH2 0xE6B JUMP JUMPDEST SWAP2 POP PUSH2 0xDFC DUP4 PUSH2 0xE6B JUMP JUMPDEST SWAP3 POP DUP3 DUP3 LT ISZERO PUSH2 0xE0F JUMPI PUSH2 0xE0E PUSH2 0xEBA JUMP JUMPDEST JUMPDEST DUP3 DUP3 SUB SWAP1 POP SWAP3 SWAP2 POP POP JUMP JUMPDEST PUSH1 0x0 PUSH2 0xE25 DUP3 PUSH2 0xE4B JUMP JUMPDEST SWAP1 POP SWAP2 SWAP1 POP JUMP JUMPDEST PUSH1 0x0 DUP2 ISZERO ISZERO SWAP1 POP SWAP2 SWAP1 POP JUMP JUMPDEST PUSH1 0x0 DUP2 SWAP1 POP PUSH2 0xE46 DUP3 PUSH2 0xF80 JUMP JUMPDEST SWAP2 SWAP1 POP JUMP JUMPDEST PUSH1 0x0 PUSH20 0xFFFFFFFFFFFFFFFFFFFFFFFFFFFFFFFFFFFFFFFF DUP3 AND SWAP1 POP SWAP2 SWAP1 POP JUMP JUMPDEST PUSH1 0x0 DUP2 SWAP1 POP SWAP2 SWAP1 POP JUMP JUMPDEST PUSH1 0x0 PUSH2 0xE80 DUP3 PUSH2 0xE38 JUMP JUMPDEST SWAP1 POP SWAP2 SWAP1 POP JUMP JUMPDEST PUSH1 0x0 JUMPDEST DUP4 DUP2 LT ISZERO PUSH2 0xEA5 JUMPI DUP1 DUP3 ADD MLOAD DUP2 DUP5 ADD MSTORE PUSH1 0x20 DUP2 ADD SWAP1 POP PUSH2 0xE8A JUMP JUMPDEST DUP4 DUP2 GT ISZERO PUSH2 0xEB4 JUMPI PUSH1 0x0 DUP5 DUP5 ADD MSTORE JUMPDEST POP POP POP POP JUMP JUMPDEST PUSH32 0x4E487B7100000000000000000000000000000000000000000000000000000000 PUSH1 0x0 MSTORE PUSH1 0x11 PUSH1 0x4 MSTORE PUSH1 0x24 PUSH1 0x0 REVERT JUMPDEST PUSH32 0x4E487B7100000000000000000000000000000000000000000000000000000000 PUSH1 0x0 MSTORE PUSH1 0x21 PUSH1 0x4 MSTORE PUSH1 0x24 PUSH1 0x0 REVERT JUMPDEST PUSH1 0x0 DUP1 REVERT JUMPDEST PUSH1 0x0 PUSH1 0x1F NOT PUSH1 0x1F DUP4 ADD AND SWAP1 POP SWAP2 SWAP1 POP JUMP JUMPDEST PUSH32 0x696E76617269616E636520666F756E6400000000000000000000000000000000 PUSH1 0x0 DUP3 ADD MSTORE POP JUMP JUMPDEST PUSH32 0x73656E646572206973206E6F74206F776E657200000000000000000000000000 PUSH1 0x0 DUP3 ADD MSTORE POP JUMP JUMPDEST PUSH1 0x3 DUP2 LT PUSH2 0xF91 JUMPI PUSH2 0xF90 PUSH2 0xEE9 JUMP JUMPDEST JUMPDEST POP JUMP JUMPDEST PUSH2 0xF9D DUP2 PUSH2 0xE1A JUMP JUMPDEST DUP2 EQ PUSH2 0xFA8 JUMPI PUSH1 0x0 DUP1 REVERT JUMPDEST POP JUMP JUMPDEST PUSH1 0x3 DUP2 LT PUSH2 0xFB8 JUMPI PUSH1 0x0 DUP1 REVERT JUMPDEST POP JUMP JUMPDEST PUSH2 0xFC4 DUP2 PUSH2 0xE6B JUMP JUMPDEST DUP2 EQ PUSH2 0xFCF JUMPI PUSH1 0x0 DUP1 REVERT JUMPDEST POP JUMP INVALID LOG2 PUSH5 0x6970667358 0x22 SLT KECCAK256 0xD 0xCE 0x2B CREATE2 DELEGATECALL PUSH29 0x8FC44BD3B83B7BF4304D1EEC0E12004748638698D8B2BB52EA7464736F PUSH13 0x63430008070033000000000000 "
				},
				"gasEstimates": {
					"creation": {
						"codeDepositCost": "820800",
						"executionCost": "25123",
						"totalCost": "845923"
					},
					"external": {
						"balanceOf(uint8,address)": "3138",
						"decimals()": "382",
						"mint(uint8,uint256)": "infinite",
						"name()": "infinite",
						"symbol()": "infinite",
						"totalSupply()": "2460",
						"transfer(uint8,address,uint256)": "infinite"
					}
				},
				"methodIdentifiers": {
					"balanceOf(uint8,address)": "88327863",
					"decimals()": "313ce567",
					"mint(uint8,uint256)": "f26748e2",
					"name()": "06fdde03",
					"symbol()": "95d89b41",
					"totalSupply()": "18160ddd",
					"transfer(uint8,address,uint256)": "b0017321"
				}
			},
			"storageLayout": {
				"storage": [
					{
						"astId": 6,
						"contract": "Code/CoinA.sol:ERC20",
						"label": "_CoinASupply",
						"offset": 0,
						"slot": "0",
						"type": "t_uint256"
					},
					{
						"astId": 8,
						"contract": "Code/CoinA.sol:ERC20",
						"label": "_CoinBSupply",
						"offset": 0,
						"slot": "1",
						"type": "t_uint256"
					},
					{
						"astId": 10,
						"contract": "Code/CoinA.sol:ERC20",
						"label": "_CoinCSupply",
						"offset": 0,
						"slot": "2",
						"type": "t_uint256"
					},
					{
						"astId": 12,
						"contract": "Code/CoinA.sol:ERC20",
						"label": "_totalSupply",
						"offset": 0,
						"slot": "3",
						"type": "t_uint256"
					},
					{
						"astId": 14,
						"contract": "Code/CoinA.sol:ERC20",
						"label": "_owner",
						"offset": 0,
						"slot": "4",
						"type": "t_address"
					},
					{
						"astId": 18,
						"contract": "Code/CoinA.sol:ERC20",
						"label": "_Abalances",
						"offset": 0,
						"slot": "5",
						"type": "t_mapping(t_address,t_uint256)"
					},
					{
						"astId": 22,
						"contract": "Code/CoinA.sol:ERC20",
						"label": "_Bbalances",
						"offset": 0,
						"slot": "6",
						"type": "t_mapping(t_address,t_uint256)"
					},
					{
						"astId": 26,
						"contract": "Code/CoinA.sol:ERC20",
						"label": "_Cbalances",
						"offset": 0,
						"slot": "7",
						"type": "t_mapping(t_address,t_uint256)"
					}
				],
				"types": {
					"t_address": {
						"encoding": "inplace",
						"label": "address",
						"numberOfBytes": "20"
					},
					"t_mapping(t_address,t_uint256)": {
						"encoding": "mapping",
						"key": "t_address",
						"label": "mapping(address => uint256)",
						"numberOfBytes": "32",
						"value": "t_uint256"
					},
					"t_uint256": {
						"encoding": "inplace",
						"label": "uint256",
						"numberOfBytes": "32"
					}
				}
			},
			"userdoc": {
				"kind": "user",
				"methods": {},
				"version": 1
			}
		}
	}
}