{
	"Code/CoinA.sol": {
		"ERC20": {
			"abi": [
				{
					"inputs": [],
					"stateMutability": "nonpayable",
					"type": "constructor"
				},
				{
					"anonymous": false,
					"inputs": [
						{
							"indexed": true,
							"internalType": "address",
							"name": "from",
							"type": "address"
						},
						{
							"indexed": true,
							"internalType": "address",
							"name": "to",
							"type": "address"
						},
						{
							"indexed": false,
							"internalType": "uint256",
							"name": "value",
							"type": "uint256"
						}
					],
					"name": "Transfer",
					"type": "event"
				},
				{
					"inputs": [
						{
							"internalType": "address",
							"name": "_person",
							"type": "address"
						}
					],
					"name": "balanceDf",
					"outputs": [
						{
							"internalType": "uint256",
							"name": "",
							"type": "uint256"
						}
					],
					"stateMutability": "view",
					"type": "function"
				},
				{
					"inputs": [],
					"name": "decimals",
					"outputs": [
						{
							"internalType": "uint256",
							"name": "",
							"type": "uint256"
						}
					],
					"stateMutability": "pure",
					"type": "function"
				},
				{
					"inputs": [
						{
							"internalType": "uint256",
							"name": "_value",
							"type": "uint256"
						}
					],
					"name": "mint",
					"outputs": [
						{
							"internalType": "bool",
							"name": "",
							"type": "bool"
						}
					],
					"stateMutability": "nonpayable",
					"type": "function"
				},
				{
					"inputs": [],
					"name": "name",
					"outputs": [
						{
							"internalType": "string",
							"name": "",
							"type": "string"
						}
					],
					"stateMutability": "pure",
					"type": "function"
				},
				{
					"inputs": [],
					"name": "symbol",
					"outputs": [
						{
							"internalType": "string",
							"name": "",
							"type": "string"
						}
					],
					"stateMutability": "pure",
					"type": "function"
				},
				{
					"inputs": [],
					"name": "totalSupply",
					"outputs": [
						{
							"internalType": "uint256",
							"name": "",
							"type": "uint256"
						}
					],
					"stateMutability": "view",
					"type": "function"
				},
				{
					"inputs": [
						{
							"internalType": "address",
							"name": "_to",
							"type": "address"
						},
						{
							"internalType": "uint256",
							"name": "_value",
							"type": "uint256"
						}
					],
					"name": "transfer",
					"outputs": [
						{
							"internalType": "bool",
							"name": "",
							"type": "bool"
						}
					],
					"stateMutability": "nonpayable",
					"type": "function"
				}
			],
			"devdoc": {
				"kind": "dev",
				"methods": {},
				"version": 1
			},
			"evm": {
				"assembly": "    /* \"Code/CoinA.sol\":1:1730  contract ERC20 {... */\n  mstore(0x40, 0x80)\n    /* \"Code/CoinA.sol\":298:348  constructor() {... */\n  callvalue\n  dup1\n  iszero\n  tag_1\n  jumpi\n  0x00\n  dup1\n  revert\ntag_1:\n  pop\n    /* \"Code/CoinA.sol\":331:341  msg.sender */\n  caller\n    /* \"Code/CoinA.sol\":322:328  _owner */\n  0x04\n  0x00\n    /* \"Code/CoinA.sol\":322:341  _owner = msg.sender */\n  0x0100\n  exp\n  dup2\n  sload\n  dup2\n  0xffffffffffffffffffffffffffffffffffffffff\n  mul\n  not\n  and\n  swap1\n  dup4\n  0xffffffffffffffffffffffffffffffffffffffff\n  and\n  mul\n  or\n  swap1\n  sstore\n  pop\n    /* \"Code/CoinA.sol\":1:1730  contract ERC20 {... */\n  dataSize(sub_0)\n  dup1\n  dataOffset(sub_0)\n  0x00\n  codecopy\n  0x00\n  return\nstop\n\nsub_0: assembly {\n        /* \"Code/CoinA.sol\":1:1730  contract ERC20 {... */\n      mstore(0x40, 0x80)\n      callvalue\n      dup1\n      iszero\n      tag_1\n      jumpi\n      0x00\n      dup1\n      revert\n    tag_1:\n      pop\n      jumpi(tag_2, lt(calldatasize, 0x04))\n      shr(0xe0, calldataload(0x00))\n      dup1\n      0x566b1a27\n      gt\n      tag_10\n      jumpi\n      dup1\n      0x566b1a27\n      eq\n      tag_6\n      jumpi\n      dup1\n      0x95d89b41\n      eq\n      tag_7\n      jumpi\n      dup1\n      0xa0712d68\n      eq\n      tag_8\n      jumpi\n      dup1\n      0xa9059cbb\n      eq\n      tag_9\n      jumpi\n      jump(tag_2)\n    tag_10:\n      dup1\n      0x06fdde03\n      eq\n      tag_3\n      jumpi\n      dup1\n      0x18160ddd\n      eq\n      tag_4\n      jumpi\n      dup1\n      0x313ce567\n      eq\n      tag_5\n      jumpi\n    tag_2:\n      0x00\n      dup1\n      revert\n        /* \"Code/CoinA.sol\":673:763  function name() external pure returns (string memory) {... */\n    tag_3:\n      tag_11\n      tag_12\n      jump\t// in\n    tag_11:\n      mload(0x40)\n      tag_13\n      swap2\n      swap1\n      tag_14\n      jump\t// in\n    tag_13:\n      mload(0x40)\n      dup1\n      swap2\n      sub\n      swap1\n      return\n        /* \"Code/CoinA.sol\":943:1034  function totalSupply() external view returns (uint256) {... */\n    tag_4:\n      tag_15\n      tag_16\n      jump\t// in\n    tag_15:\n      mload(0x40)\n      tag_17\n      swap2\n      swap1\n      tag_18\n      jump\t// in\n    tag_17:\n      mload(0x40)\n      dup1\n      swap2\n      sub\n      swap1\n      return\n        /* \"Code/CoinA.sol\":861:937  function decimals () external pure returns (uint) {... */\n    tag_5:\n      tag_19\n      tag_20\n      jump\t// in\n    tag_19:\n      mload(0x40)\n      tag_21\n      swap2\n      swap1\n      tag_18\n      jump\t// in\n    tag_21:\n      mload(0x40)\n      dup1\n      swap2\n      sub\n      swap1\n      return\n        /* \"Code/CoinA.sol\":1040:1150  function balanceDf(address _person) external view returns (uint256) {... */\n    tag_6:\n      tag_22\n      0x04\n      dup1\n      calldatasize\n      sub\n      dup2\n      add\n      swap1\n      tag_23\n      swap2\n      swap1\n      tag_24\n      jump\t// in\n    tag_23:\n      tag_25\n      jump\t// in\n    tag_22:\n      mload(0x40)\n      tag_26\n      swap2\n      swap1\n      tag_18\n      jump\t// in\n    tag_26:\n      mload(0x40)\n      dup1\n      swap2\n      sub\n      swap1\n      return\n        /* \"Code/CoinA.sol\":769:855  function symbol() external pure returns (string memory) {... */\n    tag_7:\n      tag_27\n      tag_28\n      jump\t// in\n    tag_27:\n      mload(0x40)\n      tag_29\n      swap2\n      swap1\n      tag_14\n      jump\t// in\n    tag_29:\n      mload(0x40)\n      dup1\n      swap2\n      sub\n      swap1\n      return\n        /* \"Code/CoinA.sol\":1475:1727  function mint(uint256 _value) external onlyOwner returns (bool) {... */\n    tag_8:\n      tag_30\n      0x04\n      dup1\n      calldatasize\n      sub\n      dup2\n      add\n      swap1\n      tag_31\n      swap2\n      swap1\n      tag_32\n      jump\t// in\n    tag_31:\n      tag_33\n      jump\t// in\n    tag_30:\n      mload(0x40)\n      tag_34\n      swap2\n      swap1\n      tag_35\n      jump\t// in\n    tag_34:\n      mload(0x40)\n      dup1\n      swap2\n      sub\n      swap1\n      return\n        /* \"Code/CoinA.sol\":1156:1469  function transfer (address _to, uint256 _value) external invariance returns (bool) {... */\n    tag_9:\n      tag_36\n      0x04\n      dup1\n      calldatasize\n      sub\n      dup2\n      add\n      swap1\n      tag_37\n      swap2\n      swap1\n      tag_38\n      jump\t// in\n    tag_37:\n      tag_39\n      jump\t// in\n    tag_36:\n      mload(0x40)\n      tag_40\n      swap2\n      swap1\n      tag_35\n      jump\t// in\n    tag_40:\n      mload(0x40)\n      dup1\n      swap2\n      sub\n      swap1\n      return\n        /* \"Code/CoinA.sol\":673:763  function name() external pure returns (string memory) {... */\n    tag_12:\n        /* \"Code/CoinA.sol\":712:725  string memory */\n      0x60\n        /* \"Code/CoinA.sol\":737:756  return \"Water Coin\" */\n      mload(0x40)\n      dup1\n      0x40\n      add\n      0x40\n      mstore\n      dup1\n      0x0a\n      dup2\n      mstore\n      0x20\n      add\n      0x576174657220436f696e00000000000000000000000000000000000000000000\n      dup2\n      mstore\n      pop\n      swap1\n      pop\n        /* \"Code/CoinA.sol\":673:763  function name() external pure returns (string memory) {... */\n      swap1\n      jump\t// out\n        /* \"Code/CoinA.sol\":943:1034  function totalSupply() external view returns (uint256) {... */\n    tag_16:\n        /* \"Code/CoinA.sol\":989:996  uint256 */\n      0x00\n        /* \"Code/CoinA.sol\":1015:1027  _totalSupply */\n      sload(0x03)\n        /* \"Code/CoinA.sol\":1008:1027  return _totalSupply */\n      swap1\n      pop\n        /* \"Code/CoinA.sol\":943:1034  function totalSupply() external view returns (uint256) {... */\n      swap1\n      jump\t// out\n        /* \"Code/CoinA.sol\":861:937  function decimals () external pure returns (uint) {... */\n    tag_20:\n        /* \"Code/CoinA.sol\":905:909  uint */\n      0x00\n        /* \"Code/CoinA.sol\":928:930  18 */\n      0x12\n        /* \"Code/CoinA.sol\":921:930  return 18 */\n      swap1\n      pop\n        /* \"Code/CoinA.sol\":861:937  function decimals () external pure returns (uint) {... */\n      swap1\n      jump\t// out\n        /* \"Code/CoinA.sol\":1040:1150  function balanceDf(address _person) external view returns (uint256) {... */\n    tag_25:\n        /* \"Code/CoinA.sol\":1099:1106  uint256 */\n      0x00\n        /* \"Code/CoinA.sol\":1125:1134  _balances */\n      0x05\n        /* \"Code/CoinA.sol\":1125:1143  _balances[_person] */\n      0x00\n        /* \"Code/CoinA.sol\":1135:1142  _person */\n      dup4\n        /* \"Code/CoinA.sol\":1125:1143  _balances[_person] */\n      0xffffffffffffffffffffffffffffffffffffffff\n      and\n      0xffffffffffffffffffffffffffffffffffffffff\n      and\n      dup2\n      mstore\n      0x20\n      add\n      swap1\n      dup2\n      mstore\n      0x20\n      add\n      0x00\n      keccak256\n      sload\n        /* \"Code/CoinA.sol\":1118:1143  return _balances[_person] */\n      swap1\n      pop\n        /* \"Code/CoinA.sol\":1040:1150  function balanceDf(address _person) external view returns (uint256) {... */\n      swap2\n      swap1\n      pop\n      jump\t// out\n        /* \"Code/CoinA.sol\":769:855  function symbol() external pure returns (string memory) {... */\n    tag_28:\n        /* \"Code/CoinA.sol\":810:823  string memory */\n      0x60\n        /* \"Code/CoinA.sol\":836:848  return \"WAC\" */\n      mload(0x40)\n      dup1\n      0x40\n      add\n      0x40\n      mstore\n      dup1\n      0x03\n      dup2\n      mstore\n      0x20\n      add\n      0x5741430000000000000000000000000000000000000000000000000000000000\n      dup2\n      mstore\n      pop\n      swap1\n      pop\n        /* \"Code/CoinA.sol\":769:855  function symbol() external pure returns (string memory) {... */\n      swap1\n      jump\t// out\n        /* \"Code/CoinA.sol\":1475:1727  function mint(uint256 _value) external onlyOwner returns (bool) {... */\n    tag_33:\n        /* \"Code/CoinA.sol\":1533:1537  bool */\n      0x00\n        /* \"Code/CoinA.sol\":403:413  msg.sender */\n      caller\n        /* \"Code/CoinA.sol\":393:413  _owner == msg.sender */\n      0xffffffffffffffffffffffffffffffffffffffff\n      and\n        /* \"Code/CoinA.sol\":393:399  _owner */\n      0x04\n      0x00\n      swap1\n      sload\n      swap1\n      0x0100\n      exp\n      swap1\n      div\n      0xffffffffffffffffffffffffffffffffffffffff\n      and\n        /* \"Code/CoinA.sol\":393:413  _owner == msg.sender */\n      0xffffffffffffffffffffffffffffffffffffffff\n      and\n      eq\n        /* \"Code/CoinA.sol\":385:437  require(_owner == msg.sender, \"sender is not owner\") */\n      tag_47\n      jumpi\n      mload(0x40)\n      0x08c379a000000000000000000000000000000000000000000000000000000000\n      dup2\n      mstore\n      0x04\n      add\n      tag_48\n      swap1\n      tag_49\n      jump\t// in\n    tag_48:\n      mload(0x40)\n      dup1\n      swap2\n      sub\n      swap1\n      revert\n    tag_47:\n        /* \"Code/CoinA.sol\":1549:1561  address from */\n      0x00\n        /* \"Code/CoinA.sol\":1564:1574  msg.sender */\n      caller\n        /* \"Code/CoinA.sol\":1549:1574  address from = msg.sender */\n      swap1\n      pop\n        /* \"Code/CoinA.sol\":1603:1607  from */\n      dup1\n        /* \"Code/CoinA.sol\":1593:1607  _owner == from */\n      0xffffffffffffffffffffffffffffffffffffffff\n      and\n        /* \"Code/CoinA.sol\":1593:1599  _owner */\n      0x04\n      0x00\n      swap1\n      sload\n      swap1\n      0x0100\n      exp\n      swap1\n      div\n      0xffffffffffffffffffffffffffffffffffffffff\n      and\n        /* \"Code/CoinA.sol\":1593:1607  _owner == from */\n      0xffffffffffffffffffffffffffffffffffffffff\n      and\n      eq\n        /* \"Code/CoinA.sol\":1585:1631  require(_owner == from, \"sender is not owner\") */\n      tag_51\n      jumpi\n      mload(0x40)\n      0x08c379a000000000000000000000000000000000000000000000000000000000\n      dup2\n      mstore\n      0x04\n      add\n      tag_52\n      swap1\n      tag_49\n      jump\t// in\n    tag_52:\n      mload(0x40)\n      dup1\n      swap2\n      sub\n      swap1\n      revert\n    tag_51:\n        /* \"Code/CoinA.sol\":1660:1666  _value */\n      dup3\n        /* \"Code/CoinA.sol\":1641:1650  _balances */\n      0x05\n        /* \"Code/CoinA.sol\":1641:1656  _balances[from] */\n      0x00\n        /* \"Code/CoinA.sol\":1651:1655  from */\n      dup4\n        /* \"Code/CoinA.sol\":1641:1656  _balances[from] */\n      0xffffffffffffffffffffffffffffffffffffffff\n      and\n      0xffffffffffffffffffffffffffffffffffffffff\n      and\n      dup2\n      mstore\n      0x20\n      add\n      swap1\n      dup2\n      mstore\n      0x20\n      add\n      0x00\n      keccak256\n      0x00\n        /* \"Code/CoinA.sol\":1641:1666  _balances[from] += _value */\n      dup3\n      dup3\n      sload\n      tag_53\n      swap2\n      swap1\n      tag_54\n      jump\t// in\n    tag_53:\n      swap3\n      pop\n      pop\n      dup2\n      swap1\n      sstore\n      pop\n        /* \"Code/CoinA.sol\":1692:1698  _value */\n      dup3\n        /* \"Code/CoinA.sol\":1676:1688  _totalSupply */\n      0x03\n      0x00\n        /* \"Code/CoinA.sol\":1676:1698  _totalSupply += _value */\n      dup3\n      dup3\n      sload\n      tag_55\n      swap2\n      swap1\n      tag_54\n      jump\t// in\n    tag_55:\n      swap3\n      pop\n      pop\n      dup2\n      swap1\n      sstore\n      pop\n        /* \"Code/CoinA.sol\":1716:1720  true */\n      0x01\n        /* \"Code/CoinA.sol\":1709:1720  return true */\n      swap2\n      pop\n      pop\n        /* \"Code/CoinA.sol\":1475:1727  function mint(uint256 _value) external onlyOwner returns (bool) {... */\n      swap2\n      swap1\n      pop\n      jump\t// out\n        /* \"Code/CoinA.sol\":1156:1469  function transfer (address _to, uint256 _value) external invariance returns (bool) {... */\n    tag_39:\n        /* \"Code/CoinA.sol\":1233:1237  bool */\n      0x00\n        /* \"Code/CoinA.sol\":493:515  uint256 oldTotalSupply */\n      dup1\n        /* \"Code/CoinA.sol\":518:530  _totalSupply */\n      sload(0x03)\n        /* \"Code/CoinA.sol\":493:530  uint256 oldTotalSupply = _totalSupply */\n      swap1\n      pop\n        /* \"Code/CoinA.sol\":1249:1261  address from */\n      0x00\n        /* \"Code/CoinA.sol\":1264:1274  msg.sender */\n      caller\n        /* \"Code/CoinA.sol\":1249:1274  address from = msg.sender */\n      swap1\n      pop\n        /* \"Code/CoinA.sol\":1312:1318  _value */\n      dup4\n        /* \"Code/CoinA.sol\":1293:1302  _balances */\n      0x05\n        /* \"Code/CoinA.sol\":1293:1308  _balances[from] */\n      0x00\n        /* \"Code/CoinA.sol\":1303:1307  from */\n      dup4\n        /* \"Code/CoinA.sol\":1293:1308  _balances[from] */\n      0xffffffffffffffffffffffffffffffffffffffff\n      and\n      0xffffffffffffffffffffffffffffffffffffffff\n      and\n      dup2\n      mstore\n      0x20\n      add\n      swap1\n      dup2\n      mstore\n      0x20\n      add\n      0x00\n      keccak256\n      sload\n        /* \"Code/CoinA.sol\":1293:1318  _balances[from] >= _value */\n      lt\n      iszero\n        /* \"Code/CoinA.sol\":1285:1319  require(_balances[from] >= _value) */\n      tag_58\n      jumpi\n      0x00\n      dup1\n      revert\n    tag_58:\n        /* \"Code/CoinA.sol\":1349:1355  _value */\n      dup4\n        /* \"Code/CoinA.sol\":1330:1339  _balances */\n      0x05\n        /* \"Code/CoinA.sol\":1330:1345  _balances[from] */\n      0x00\n        /* \"Code/CoinA.sol\":1340:1344  from */\n      dup4\n        /* \"Code/CoinA.sol\":1330:1345  _balances[from] */\n      0xffffffffffffffffffffffffffffffffffffffff\n      and\n      0xffffffffffffffffffffffffffffffffffffffff\n      and\n      dup2\n      mstore\n      0x20\n      add\n      swap1\n      dup2\n      mstore\n      0x20\n      add\n      0x00\n      keccak256\n      0x00\n        /* \"Code/CoinA.sol\":1330:1355  _balances[from] -= _value */\n      dup3\n      dup3\n      sload\n      tag_59\n      swap2\n      swap1\n      tag_60\n      jump\t// in\n    tag_59:\n      swap3\n      pop\n      pop\n      dup2\n      swap1\n      sstore\n      pop\n        /* \"Code/CoinA.sol\":1383:1389  _value */\n      dup4\n        /* \"Code/CoinA.sol\":1365:1374  _balances */\n      0x05\n        /* \"Code/CoinA.sol\":1365:1379  _balances[_to] */\n      0x00\n        /* \"Code/CoinA.sol\":1375:1378  _to */\n      dup8\n        /* \"Code/CoinA.sol\":1365:1379  _balances[_to] */\n      0xffffffffffffffffffffffffffffffffffffffff\n      and\n      0xffffffffffffffffffffffffffffffffffffffff\n      and\n      dup2\n      mstore\n      0x20\n      add\n      swap1\n      dup2\n      mstore\n      0x20\n      add\n      0x00\n      keccak256\n      0x00\n        /* \"Code/CoinA.sol\":1365:1389  _balances[_to] += _value */\n      dup3\n      dup3\n      sload\n      tag_61\n      swap2\n      swap1\n      tag_54\n      jump\t// in\n    tag_61:\n      swap3\n      pop\n      pop\n      dup2\n      swap1\n      sstore\n      pop\n        /* \"Code/CoinA.sol\":1428:1431  _to */\n      dup5\n        /* \"Code/CoinA.sol\":1413:1440  Transfer(from, _to, _value) */\n      0xffffffffffffffffffffffffffffffffffffffff\n      and\n        /* \"Code/CoinA.sol\":1422:1426  from */\n      dup2\n        /* \"Code/CoinA.sol\":1413:1440  Transfer(from, _to, _value) */\n      0xffffffffffffffffffffffffffffffffffffffff\n      and\n      0xddf252ad1be2c89b69c2b068fc378daa952ba7f163c4a11628f55a4df523b3ef\n        /* \"Code/CoinA.sol\":1433:1439  _value */\n      dup7\n        /* \"Code/CoinA.sol\":1413:1440  Transfer(from, _to, _value) */\n      mload(0x40)\n      tag_62\n      swap2\n      swap1\n      tag_18\n      jump\t// in\n    tag_62:\n      mload(0x40)\n      dup1\n      swap2\n      sub\n      swap1\n      log3\n        /* \"Code/CoinA.sol\":1458:1462  true */\n      0x01\n        /* \"Code/CoinA.sol\":1451:1462  return true */\n      swap3\n      pop\n      pop\n        /* \"Code/CoinA.sol\":551:573  uint256 newTotalSupply */\n      0x00\n        /* \"Code/CoinA.sol\":576:588  _totalSupply */\n      sload(0x03)\n        /* \"Code/CoinA.sol\":551:588  uint256 newTotalSupply = _totalSupply */\n      swap1\n      pop\n        /* \"Code/CoinA.sol\":625:639  newTotalSupply */\n      dup1\n        /* \"Code/CoinA.sol\":607:621  oldTotalSupply */\n      dup3\n        /* \"Code/CoinA.sol\":607:639  oldTotalSupply == newTotalSupply */\n      eq\n        /* \"Code/CoinA.sol\":598:660  require (oldTotalSupply == newTotalSupply, \"invariance found\") */\n      tag_63\n      jumpi\n      mload(0x40)\n      0x08c379a000000000000000000000000000000000000000000000000000000000\n      dup2\n      mstore\n      0x04\n      add\n      tag_64\n      swap1\n      tag_65\n      jump\t// in\n    tag_64:\n      mload(0x40)\n      dup1\n      swap2\n      sub\n      swap1\n      revert\n    tag_63:\n        /* \"Code/CoinA.sol\":483:667  {... */\n      pop\n      pop\n        /* \"Code/CoinA.sol\":1156:1469  function transfer (address _to, uint256 _value) external invariance returns (bool) {... */\n      swap3\n      swap2\n      pop\n      pop\n      jump\t// out\n        /* \"#utility.yul\":7:146   */\n    tag_67:\n        /* \"#utility.yul\":53:58   */\n      0x00\n        /* \"#utility.yul\":91:97   */\n      dup2\n        /* \"#utility.yul\":78:98   */\n      calldataload\n        /* \"#utility.yul\":69:98   */\n      swap1\n      pop\n        /* \"#utility.yul\":107:140   */\n      tag_69\n        /* \"#utility.yul\":134:139   */\n      dup2\n        /* \"#utility.yul\":107:140   */\n      tag_70\n      jump\t// in\n    tag_69:\n        /* \"#utility.yul\":7:146   */\n      swap3\n      swap2\n      pop\n      pop\n      jump\t// out\n        /* \"#utility.yul\":152:291   */\n    tag_71:\n        /* \"#utility.yul\":198:203   */\n      0x00\n        /* \"#utility.yul\":236:242   */\n      dup2\n        /* \"#utility.yul\":223:243   */\n      calldataload\n        /* \"#utility.yul\":214:243   */\n      swap1\n      pop\n        /* \"#utility.yul\":252:285   */\n      tag_73\n        /* \"#utility.yul\":279:284   */\n      dup2\n        /* \"#utility.yul\":252:285   */\n      tag_74\n      jump\t// in\n    tag_73:\n        /* \"#utility.yul\":152:291   */\n      swap3\n      swap2\n      pop\n      pop\n      jump\t// out\n        /* \"#utility.yul\":297:626   */\n    tag_24:\n        /* \"#utility.yul\":356:362   */\n      0x00\n        /* \"#utility.yul\":405:407   */\n      0x20\n        /* \"#utility.yul\":393:402   */\n      dup3\n        /* \"#utility.yul\":384:391   */\n      dup5\n        /* \"#utility.yul\":380:403   */\n      sub\n        /* \"#utility.yul\":376:408   */\n      slt\n        /* \"#utility.yul\":373:492   */\n      iszero\n      tag_76\n      jumpi\n        /* \"#utility.yul\":411:490   */\n      tag_77\n      tag_78\n      jump\t// in\n    tag_77:\n        /* \"#utility.yul\":373:492   */\n    tag_76:\n        /* \"#utility.yul\":531:532   */\n      0x00\n        /* \"#utility.yul\":556:609   */\n      tag_79\n        /* \"#utility.yul\":601:608   */\n      dup5\n        /* \"#utility.yul\":592:598   */\n      dup3\n        /* \"#utility.yul\":581:590   */\n      dup6\n        /* \"#utility.yul\":577:599   */\n      add\n        /* \"#utility.yul\":556:609   */\n      tag_67\n      jump\t// in\n    tag_79:\n        /* \"#utility.yul\":546:609   */\n      swap2\n      pop\n        /* \"#utility.yul\":502:619   */\n      pop\n        /* \"#utility.yul\":297:626   */\n      swap3\n      swap2\n      pop\n      pop\n      jump\t// out\n        /* \"#utility.yul\":632:1106   */\n    tag_38:\n        /* \"#utility.yul\":700:706   */\n      0x00\n        /* \"#utility.yul\":708:714   */\n      dup1\n        /* \"#utility.yul\":757:759   */\n      0x40\n        /* \"#utility.yul\":745:754   */\n      dup4\n        /* \"#utility.yul\":736:743   */\n      dup6\n        /* \"#utility.yul\":732:755   */\n      sub\n        /* \"#utility.yul\":728:760   */\n      slt\n        /* \"#utility.yul\":725:844   */\n      iszero\n      tag_81\n      jumpi\n        /* \"#utility.yul\":763:842   */\n      tag_82\n      tag_78\n      jump\t// in\n    tag_82:\n        /* \"#utility.yul\":725:844   */\n    tag_81:\n        /* \"#utility.yul\":883:884   */\n      0x00\n        /* \"#utility.yul\":908:961   */\n      tag_83\n        /* \"#utility.yul\":953:960   */\n      dup6\n        /* \"#utility.yul\":944:950   */\n      dup3\n        /* \"#utility.yul\":933:942   */\n      dup7\n        /* \"#utility.yul\":929:951   */\n      add\n        /* \"#utility.yul\":908:961   */\n      tag_67\n      jump\t// in\n    tag_83:\n        /* \"#utility.yul\":898:961   */\n      swap3\n      pop\n        /* \"#utility.yul\":854:971   */\n      pop\n        /* \"#utility.yul\":1010:1012   */\n      0x20\n        /* \"#utility.yul\":1036:1089   */\n      tag_84\n        /* \"#utility.yul\":1081:1088   */\n      dup6\n        /* \"#utility.yul\":1072:1078   */\n      dup3\n        /* \"#utility.yul\":1061:1070   */\n      dup7\n        /* \"#utility.yul\":1057:1079   */\n      add\n        /* \"#utility.yul\":1036:1089   */\n      tag_71\n      jump\t// in\n    tag_84:\n        /* \"#utility.yul\":1026:1089   */\n      swap2\n      pop\n        /* \"#utility.yul\":981:1099   */\n      pop\n        /* \"#utility.yul\":632:1106   */\n      swap3\n      pop\n      swap3\n      swap1\n      pop\n      jump\t// out\n        /* \"#utility.yul\":1112:1441   */\n    tag_32:\n        /* \"#utility.yul\":1171:1177   */\n      0x00\n        /* \"#utility.yul\":1220:1222   */\n      0x20\n        /* \"#utility.yul\":1208:1217   */\n      dup3\n        /* \"#utility.yul\":1199:1206   */\n      dup5\n        /* \"#utility.yul\":1195:1218   */\n      sub\n        /* \"#utility.yul\":1191:1223   */\n      slt\n        /* \"#utility.yul\":1188:1307   */\n      iszero\n      tag_86\n      jumpi\n        /* \"#utility.yul\":1226:1305   */\n      tag_87\n      tag_78\n      jump\t// in\n    tag_87:\n        /* \"#utility.yul\":1188:1307   */\n    tag_86:\n        /* \"#utility.yul\":1346:1347   */\n      0x00\n        /* \"#utility.yul\":1371:1424   */\n      tag_88\n        /* \"#utility.yul\":1416:1423   */\n      dup5\n        /* \"#utility.yul\":1407:1413   */\n      dup3\n        /* \"#utility.yul\":1396:1405   */\n      dup6\n        /* \"#utility.yul\":1392:1414   */\n      add\n        /* \"#utility.yul\":1371:1424   */\n      tag_71\n      jump\t// in\n    tag_88:\n        /* \"#utility.yul\":1361:1424   */\n      swap2\n      pop\n        /* \"#utility.yul\":1317:1434   */\n      pop\n        /* \"#utility.yul\":1112:1441   */\n      swap3\n      swap2\n      pop\n      pop\n      jump\t// out\n        /* \"#utility.yul\":1447:1556   */\n    tag_89:\n        /* \"#utility.yul\":1528:1549   */\n      tag_91\n        /* \"#utility.yul\":1543:1548   */\n      dup2\n        /* \"#utility.yul\":1528:1549   */\n      tag_92\n      jump\t// in\n    tag_91:\n        /* \"#utility.yul\":1523:1526   */\n      dup3\n        /* \"#utility.yul\":1516:1550   */\n      mstore\n        /* \"#utility.yul\":1447:1556   */\n      pop\n      pop\n      jump\t// out\n        /* \"#utility.yul\":1562:1926   */\n    tag_93:\n        /* \"#utility.yul\":1650:1653   */\n      0x00\n        /* \"#utility.yul\":1678:1717   */\n      tag_95\n        /* \"#utility.yul\":1711:1716   */\n      dup3\n        /* \"#utility.yul\":1678:1717   */\n      tag_96\n      jump\t// in\n    tag_95:\n        /* \"#utility.yul\":1733:1804   */\n      tag_97\n        /* \"#utility.yul\":1797:1803   */\n      dup2\n        /* \"#utility.yul\":1792:1795   */\n      dup6\n        /* \"#utility.yul\":1733:1804   */\n      tag_98\n      jump\t// in\n    tag_97:\n        /* \"#utility.yul\":1726:1804   */\n      swap4\n      pop\n        /* \"#utility.yul\":1813:1865   */\n      tag_99\n        /* \"#utility.yul\":1858:1864   */\n      dup2\n        /* \"#utility.yul\":1853:1856   */\n      dup6\n        /* \"#utility.yul\":1846:1850   */\n      0x20\n        /* \"#utility.yul\":1839:1844   */\n      dup7\n        /* \"#utility.yul\":1835:1851   */\n      add\n        /* \"#utility.yul\":1813:1865   */\n      tag_100\n      jump\t// in\n    tag_99:\n        /* \"#utility.yul\":1890:1919   */\n      tag_101\n        /* \"#utility.yul\":1912:1918   */\n      dup2\n        /* \"#utility.yul\":1890:1919   */\n      tag_102\n      jump\t// in\n    tag_101:\n        /* \"#utility.yul\":1885:1888   */\n      dup5\n        /* \"#utility.yul\":1881:1920   */\n      add\n        /* \"#utility.yul\":1874:1920   */\n      swap2\n      pop\n        /* \"#utility.yul\":1654:1926   */\n      pop\n        /* \"#utility.yul\":1562:1926   */\n      swap3\n      swap2\n      pop\n      pop\n      jump\t// out\n        /* \"#utility.yul\":1932:2298   */\n    tag_103:\n        /* \"#utility.yul\":2074:2077   */\n      0x00\n        /* \"#utility.yul\":2095:2162   */\n      tag_105\n        /* \"#utility.yul\":2159:2161   */\n      0x10\n        /* \"#utility.yul\":2154:2157   */\n      dup4\n        /* \"#utility.yul\":2095:2162   */\n      tag_98\n      jump\t// in\n    tag_105:\n        /* \"#utility.yul\":2088:2162   */\n      swap2\n      pop\n        /* \"#utility.yul\":2171:2264   */\n      tag_106\n        /* \"#utility.yul\":2260:2263   */\n      dup3\n        /* \"#utility.yul\":2171:2264   */\n      tag_107\n      jump\t// in\n    tag_106:\n        /* \"#utility.yul\":2289:2291   */\n      0x20\n        /* \"#utility.yul\":2284:2287   */\n      dup3\n        /* \"#utility.yul\":2280:2292   */\n      add\n        /* \"#utility.yul\":2273:2292   */\n      swap1\n      pop\n        /* \"#utility.yul\":1932:2298   */\n      swap2\n      swap1\n      pop\n      jump\t// out\n        /* \"#utility.yul\":2304:2670   */\n    tag_108:\n        /* \"#utility.yul\":2446:2449   */\n      0x00\n        /* \"#utility.yul\":2467:2534   */\n      tag_110\n        /* \"#utility.yul\":2531:2533   */\n      0x13\n        /* \"#utility.yul\":2526:2529   */\n      dup4\n        /* \"#utility.yul\":2467:2534   */\n      tag_98\n      jump\t// in\n    tag_110:\n        /* \"#utility.yul\":2460:2534   */\n      swap2\n      pop\n        /* \"#utility.yul\":2543:2636   */\n      tag_111\n        /* \"#utility.yul\":2632:2635   */\n      dup3\n        /* \"#utility.yul\":2543:2636   */\n      tag_112\n      jump\t// in\n    tag_111:\n        /* \"#utility.yul\":2661:2663   */\n      0x20\n        /* \"#utility.yul\":2656:2659   */\n      dup3\n        /* \"#utility.yul\":2652:2664   */\n      add\n        /* \"#utility.yul\":2645:2664   */\n      swap1\n      pop\n        /* \"#utility.yul\":2304:2670   */\n      swap2\n      swap1\n      pop\n      jump\t// out\n        /* \"#utility.yul\":2676:2794   */\n    tag_113:\n        /* \"#utility.yul\":2763:2787   */\n      tag_115\n        /* \"#utility.yul\":2781:2786   */\n      dup2\n        /* \"#utility.yul\":2763:2787   */\n      tag_116\n      jump\t// in\n    tag_115:\n        /* \"#utility.yul\":2758:2761   */\n      dup3\n        /* \"#utility.yul\":2751:2788   */\n      mstore\n        /* \"#utility.yul\":2676:2794   */\n      pop\n      pop\n      jump\t// out\n        /* \"#utility.yul\":2800:3010   */\n    tag_35:\n        /* \"#utility.yul\":2887:2891   */\n      0x00\n        /* \"#utility.yul\":2925:2927   */\n      0x20\n        /* \"#utility.yul\":2914:2923   */\n      dup3\n        /* \"#utility.yul\":2910:2928   */\n      add\n        /* \"#utility.yul\":2902:2928   */\n      swap1\n      pop\n        /* \"#utility.yul\":2938:3003   */\n      tag_118\n        /* \"#utility.yul\":3000:3001   */\n      0x00\n        /* \"#utility.yul\":2989:2998   */\n      dup4\n        /* \"#utility.yul\":2985:3002   */\n      add\n        /* \"#utility.yul\":2976:2982   */\n      dup5\n        /* \"#utility.yul\":2938:3003   */\n      tag_89\n      jump\t// in\n    tag_118:\n        /* \"#utility.yul\":2800:3010   */\n      swap3\n      swap2\n      pop\n      pop\n      jump\t// out\n        /* \"#utility.yul\":3016:3329   */\n    tag_14:\n        /* \"#utility.yul\":3129:3133   */\n      0x00\n        /* \"#utility.yul\":3167:3169   */\n      0x20\n        /* \"#utility.yul\":3156:3165   */\n      dup3\n        /* \"#utility.yul\":3152:3170   */\n      add\n        /* \"#utility.yul\":3144:3170   */\n      swap1\n      pop\n        /* \"#utility.yul\":3216:3225   */\n      dup2\n        /* \"#utility.yul\":3210:3214   */\n      dup2\n        /* \"#utility.yul\":3206:3226   */\n      sub\n        /* \"#utility.yul\":3202:3203   */\n      0x00\n        /* \"#utility.yul\":3191:3200   */\n      dup4\n        /* \"#utility.yul\":3187:3204   */\n      add\n        /* \"#utility.yul\":3180:3227   */\n      mstore\n        /* \"#utility.yul\":3244:3322   */\n      tag_120\n        /* \"#utility.yul\":3317:3321   */\n      dup2\n        /* \"#utility.yul\":3308:3314   */\n      dup5\n        /* \"#utility.yul\":3244:3322   */\n      tag_93\n      jump\t// in\n    tag_120:\n        /* \"#utility.yul\":3236:3322   */\n      swap1\n      pop\n        /* \"#utility.yul\":3016:3329   */\n      swap3\n      swap2\n      pop\n      pop\n      jump\t// out\n        /* \"#utility.yul\":3335:3754   */\n    tag_65:\n        /* \"#utility.yul\":3501:3505   */\n      0x00\n        /* \"#utility.yul\":3539:3541   */\n      0x20\n        /* \"#utility.yul\":3528:3537   */\n      dup3\n        /* \"#utility.yul\":3524:3542   */\n      add\n        /* \"#utility.yul\":3516:3542   */\n      swap1\n      pop\n        /* \"#utility.yul\":3588:3597   */\n      dup2\n        /* \"#utility.yul\":3582:3586   */\n      dup2\n        /* \"#utility.yul\":3578:3598   */\n      sub\n        /* \"#utility.yul\":3574:3575   */\n      0x00\n        /* \"#utility.yul\":3563:3572   */\n      dup4\n        /* \"#utility.yul\":3559:3576   */\n      add\n        /* \"#utility.yul\":3552:3599   */\n      mstore\n        /* \"#utility.yul\":3616:3747   */\n      tag_122\n        /* \"#utility.yul\":3742:3746   */\n      dup2\n        /* \"#utility.yul\":3616:3747   */\n      tag_103\n      jump\t// in\n    tag_122:\n        /* \"#utility.yul\":3608:3747   */\n      swap1\n      pop\n        /* \"#utility.yul\":3335:3754   */\n      swap2\n      swap1\n      pop\n      jump\t// out\n        /* \"#utility.yul\":3760:4179   */\n    tag_49:\n        /* \"#utility.yul\":3926:3930   */\n      0x00\n        /* \"#utility.yul\":3964:3966   */\n      0x20\n        /* \"#utility.yul\":3953:3962   */\n      dup3\n        /* \"#utility.yul\":3949:3967   */\n      add\n        /* \"#utility.yul\":3941:3967   */\n      swap1\n      pop\n        /* \"#utility.yul\":4013:4022   */\n      dup2\n        /* \"#utility.yul\":4007:4011   */\n      dup2\n        /* \"#utility.yul\":4003:4023   */\n      sub\n        /* \"#utility.yul\":3999:4000   */\n      0x00\n        /* \"#utility.yul\":3988:3997   */\n      dup4\n        /* \"#utility.yul\":3984:4001   */\n      add\n        /* \"#utility.yul\":3977:4024   */\n      mstore\n        /* \"#utility.yul\":4041:4172   */\n      tag_124\n        /* \"#utility.yul\":4167:4171   */\n      dup2\n        /* \"#utility.yul\":4041:4172   */\n      tag_108\n      jump\t// in\n    tag_124:\n        /* \"#utility.yul\":4033:4172   */\n      swap1\n      pop\n        /* \"#utility.yul\":3760:4179   */\n      swap2\n      swap1\n      pop\n      jump\t// out\n        /* \"#utility.yul\":4185:4407   */\n    tag_18:\n        /* \"#utility.yul\":4278:4282   */\n      0x00\n        /* \"#utility.yul\":4316:4318   */\n      0x20\n        /* \"#utility.yul\":4305:4314   */\n      dup3\n        /* \"#utility.yul\":4301:4319   */\n      add\n        /* \"#utility.yul\":4293:4319   */\n      swap1\n      pop\n        /* \"#utility.yul\":4329:4400   */\n      tag_126\n        /* \"#utility.yul\":4397:4398   */\n      0x00\n        /* \"#utility.yul\":4386:4395   */\n      dup4\n        /* \"#utility.yul\":4382:4399   */\n      add\n        /* \"#utility.yul\":4373:4379   */\n      dup5\n        /* \"#utility.yul\":4329:4400   */\n      tag_113\n      jump\t// in\n    tag_126:\n        /* \"#utility.yul\":4185:4407   */\n      swap3\n      swap2\n      pop\n      pop\n      jump\t// out\n        /* \"#utility.yul\":4494:4593   */\n    tag_96:\n        /* \"#utility.yul\":4546:4552   */\n      0x00\n        /* \"#utility.yul\":4580:4585   */\n      dup2\n        /* \"#utility.yul\":4574:4586   */\n      mload\n        /* \"#utility.yul\":4564:4586   */\n      swap1\n      pop\n        /* \"#utility.yul\":4494:4593   */\n      swap2\n      swap1\n      pop\n      jump\t// out\n        /* \"#utility.yul\":4599:4768   */\n    tag_98:\n        /* \"#utility.yul\":4683:4694   */\n      0x00\n        /* \"#utility.yul\":4717:4723   */\n      dup3\n        /* \"#utility.yul\":4712:4715   */\n      dup3\n        /* \"#utility.yul\":4705:4724   */\n      mstore\n        /* \"#utility.yul\":4757:4761   */\n      0x20\n        /* \"#utility.yul\":4752:4755   */\n      dup3\n        /* \"#utility.yul\":4748:4762   */\n      add\n        /* \"#utility.yul\":4733:4762   */\n      swap1\n      pop\n        /* \"#utility.yul\":4599:4768   */\n      swap3\n      swap2\n      pop\n      pop\n      jump\t// out\n        /* \"#utility.yul\":4774:5079   */\n    tag_54:\n        /* \"#utility.yul\":4814:4817   */\n      0x00\n        /* \"#utility.yul\":4833:4853   */\n      tag_132\n        /* \"#utility.yul\":4851:4852   */\n      dup3\n        /* \"#utility.yul\":4833:4853   */\n      tag_116\n      jump\t// in\n    tag_132:\n        /* \"#utility.yul\":4828:4853   */\n      swap2\n      pop\n        /* \"#utility.yul\":4867:4887   */\n      tag_133\n        /* \"#utility.yul\":4885:4886   */\n      dup4\n        /* \"#utility.yul\":4867:4887   */\n      tag_116\n      jump\t// in\n    tag_133:\n        /* \"#utility.yul\":4862:4887   */\n      swap3\n      pop\n        /* \"#utility.yul\":5021:5022   */\n      dup3\n        /* \"#utility.yul\":4953:5019   */\n      0xffffffffffffffffffffffffffffffffffffffffffffffffffffffffffffffff\n        /* \"#utility.yul\":4949:5023   */\n      sub\n        /* \"#utility.yul\":4946:4947   */\n      dup3\n        /* \"#utility.yul\":4943:5024   */\n      gt\n        /* \"#utility.yul\":4940:5047   */\n      iszero\n      tag_134\n      jumpi\n        /* \"#utility.yul\":5027:5045   */\n      tag_135\n      tag_136\n      jump\t// in\n    tag_135:\n        /* \"#utility.yul\":4940:5047   */\n    tag_134:\n        /* \"#utility.yul\":5071:5072   */\n      dup3\n        /* \"#utility.yul\":5068:5069   */\n      dup3\n        /* \"#utility.yul\":5064:5073   */\n      add\n        /* \"#utility.yul\":5057:5073   */\n      swap1\n      pop\n        /* \"#utility.yul\":4774:5079   */\n      swap3\n      swap2\n      pop\n      pop\n      jump\t// out\n        /* \"#utility.yul\":5085:5276   */\n    tag_60:\n        /* \"#utility.yul\":5125:5129   */\n      0x00\n        /* \"#utility.yul\":5145:5165   */\n      tag_138\n        /* \"#utility.yul\":5163:5164   */\n      dup3\n        /* \"#utility.yul\":5145:5165   */\n      tag_116\n      jump\t// in\n    tag_138:\n        /* \"#utility.yul\":5140:5165   */\n      swap2\n      pop\n        /* \"#utility.yul\":5179:5199   */\n      tag_139\n        /* \"#utility.yul\":5197:5198   */\n      dup4\n        /* \"#utility.yul\":5179:5199   */\n      tag_116\n      jump\t// in\n    tag_139:\n        /* \"#utility.yul\":5174:5199   */\n      swap3\n      pop\n        /* \"#utility.yul\":5218:5219   */\n      dup3\n        /* \"#utility.yul\":5215:5216   */\n      dup3\n        /* \"#utility.yul\":5212:5220   */\n      lt\n        /* \"#utility.yul\":5209:5243   */\n      iszero\n      tag_140\n      jumpi\n        /* \"#utility.yul\":5223:5241   */\n      tag_141\n      tag_136\n      jump\t// in\n    tag_141:\n        /* \"#utility.yul\":5209:5243   */\n    tag_140:\n        /* \"#utility.yul\":5268:5269   */\n      dup3\n        /* \"#utility.yul\":5265:5266   */\n      dup3\n        /* \"#utility.yul\":5261:5270   */\n      sub\n        /* \"#utility.yul\":5253:5270   */\n      swap1\n      pop\n        /* \"#utility.yul\":5085:5276   */\n      swap3\n      swap2\n      pop\n      pop\n      jump\t// out\n        /* \"#utility.yul\":5282:5378   */\n    tag_142:\n        /* \"#utility.yul\":5319:5326   */\n      0x00\n        /* \"#utility.yul\":5348:5372   */\n      tag_144\n        /* \"#utility.yul\":5366:5371   */\n      dup3\n        /* \"#utility.yul\":5348:5372   */\n      tag_145\n      jump\t// in\n    tag_144:\n        /* \"#utility.yul\":5337:5372   */\n      swap1\n      pop\n        /* \"#utility.yul\":5282:5378   */\n      swap2\n      swap1\n      pop\n      jump\t// out\n        /* \"#utility.yul\":5384:5474   */\n    tag_92:\n        /* \"#utility.yul\":5418:5425   */\n      0x00\n        /* \"#utility.yul\":5461:5466   */\n      dup2\n        /* \"#utility.yul\":5454:5467   */\n      iszero\n        /* \"#utility.yul\":5447:5468   */\n      iszero\n        /* \"#utility.yul\":5436:5468   */\n      swap1\n      pop\n        /* \"#utility.yul\":5384:5474   */\n      swap2\n      swap1\n      pop\n      jump\t// out\n        /* \"#utility.yul\":5480:5606   */\n    tag_145:\n        /* \"#utility.yul\":5517:5524   */\n      0x00\n        /* \"#utility.yul\":5557:5599   */\n      0xffffffffffffffffffffffffffffffffffffffff\n        /* \"#utility.yul\":5550:5555   */\n      dup3\n        /* \"#utility.yul\":5546:5600   */\n      and\n        /* \"#utility.yul\":5535:5600   */\n      swap1\n      pop\n        /* \"#utility.yul\":5480:5606   */\n      swap2\n      swap1\n      pop\n      jump\t// out\n        /* \"#utility.yul\":5612:5689   */\n    tag_116:\n        /* \"#utility.yul\":5649:5656   */\n      0x00\n        /* \"#utility.yul\":5678:5683   */\n      dup2\n        /* \"#utility.yul\":5667:5683   */\n      swap1\n      pop\n        /* \"#utility.yul\":5612:5689   */\n      swap2\n      swap1\n      pop\n      jump\t// out\n        /* \"#utility.yul\":5695:6002   */\n    tag_100:\n        /* \"#utility.yul\":5763:5764   */\n      0x00\n        /* \"#utility.yul\":5773:5886   */\n    tag_150:\n        /* \"#utility.yul\":5787:5793   */\n      dup4\n        /* \"#utility.yul\":5784:5785   */\n      dup2\n        /* \"#utility.yul\":5781:5794   */\n      lt\n        /* \"#utility.yul\":5773:5886   */\n      iszero\n      tag_152\n      jumpi\n        /* \"#utility.yul\":5872:5873   */\n      dup1\n        /* \"#utility.yul\":5867:5870   */\n      dup3\n        /* \"#utility.yul\":5863:5874   */\n      add\n        /* \"#utility.yul\":5857:5875   */\n      mload\n        /* \"#utility.yul\":5853:5854   */\n      dup2\n        /* \"#utility.yul\":5848:5851   */\n      dup5\n        /* \"#utility.yul\":5844:5855   */\n      add\n        /* \"#utility.yul\":5837:5876   */\n      mstore\n        /* \"#utility.yul\":5809:5811   */\n      0x20\n        /* \"#utility.yul\":5806:5807   */\n      dup2\n        /* \"#utility.yul\":5802:5812   */\n      add\n        /* \"#utility.yul\":5797:5812   */\n      swap1\n      pop\n        /* \"#utility.yul\":5773:5886   */\n      jump(tag_150)\n    tag_152:\n        /* \"#utility.yul\":5904:5910   */\n      dup4\n        /* \"#utility.yul\":5901:5902   */\n      dup2\n        /* \"#utility.yul\":5898:5911   */\n      gt\n        /* \"#utility.yul\":5895:5996   */\n      iszero\n      tag_153\n      jumpi\n        /* \"#utility.yul\":5984:5985   */\n      0x00\n        /* \"#utility.yul\":5975:5981   */\n      dup5\n        /* \"#utility.yul\":5970:5973   */\n      dup5\n        /* \"#utility.yul\":5966:5982   */\n      add\n        /* \"#utility.yul\":5959:5986   */\n      mstore\n        /* \"#utility.yul\":5895:5996   */\n    tag_153:\n        /* \"#utility.yul\":5744:6002   */\n      pop\n        /* \"#utility.yul\":5695:6002   */\n      pop\n      pop\n      pop\n      jump\t// out\n        /* \"#utility.yul\":6008:6188   */\n    tag_136:\n        /* \"#utility.yul\":6056:6133   */\n      0x4e487b7100000000000000000000000000000000000000000000000000000000\n        /* \"#utility.yul\":6053:6054   */\n      0x00\n        /* \"#utility.yul\":6046:6134   */\n      mstore\n        /* \"#utility.yul\":6153:6157   */\n      0x11\n        /* \"#utility.yul\":6150:6151   */\n      0x04\n        /* \"#utility.yul\":6143:6158   */\n      mstore\n        /* \"#utility.yul\":6177:6181   */\n      0x24\n        /* \"#utility.yul\":6174:6175   */\n      0x00\n        /* \"#utility.yul\":6167:6182   */\n      revert\n        /* \"#utility.yul\":6317:6434   */\n    tag_78:\n        /* \"#utility.yul\":6426:6427   */\n      0x00\n        /* \"#utility.yul\":6423:6424   */\n      dup1\n        /* \"#utility.yul\":6416:6428   */\n      revert\n        /* \"#utility.yul\":6440:6542   */\n    tag_102:\n        /* \"#utility.yul\":6481:6487   */\n      0x00\n        /* \"#utility.yul\":6532:6534   */\n      0x1f\n        /* \"#utility.yul\":6528:6535   */\n      not\n        /* \"#utility.yul\":6523:6525   */\n      0x1f\n        /* \"#utility.yul\":6516:6521   */\n      dup4\n        /* \"#utility.yul\":6512:6526   */\n      add\n        /* \"#utility.yul\":6508:6536   */\n      and\n        /* \"#utility.yul\":6498:6536   */\n      swap1\n      pop\n        /* \"#utility.yul\":6440:6542   */\n      swap2\n      swap1\n      pop\n      jump\t// out\n        /* \"#utility.yul\":6548:6714   */\n    tag_107:\n        /* \"#utility.yul\":6688:6706   */\n      0x696e76617269616e636520666f756e6400000000000000000000000000000000\n        /* \"#utility.yul\":6684:6685   */\n      0x00\n        /* \"#utility.yul\":6676:6682   */\n      dup3\n        /* \"#utility.yul\":6672:6686   */\n      add\n        /* \"#utility.yul\":6665:6707   */\n      mstore\n        /* \"#utility.yul\":6548:6714   */\n      pop\n      jump\t// out\n        /* \"#utility.yul\":6720:6889   */\n    tag_112:\n        /* \"#utility.yul\":6860:6881   */\n      0x73656e646572206973206e6f74206f776e657200000000000000000000000000\n        /* \"#utility.yul\":6856:6857   */\n      0x00\n        /* \"#utility.yul\":6848:6854   */\n      dup3\n        /* \"#utility.yul\":6844:6858   */\n      add\n        /* \"#utility.yul\":6837:6882   */\n      mstore\n        /* \"#utility.yul\":6720:6889   */\n      pop\n      jump\t// out\n        /* \"#utility.yul\":6895:7017   */\n    tag_70:\n        /* \"#utility.yul\":6968:6992   */\n      tag_162\n        /* \"#utility.yul\":6986:6991   */\n      dup2\n        /* \"#utility.yul\":6968:6992   */\n      tag_142\n      jump\t// in\n    tag_162:\n        /* \"#utility.yul\":6961:6966   */\n      dup2\n        /* \"#utility.yul\":6958:6993   */\n      eq\n        /* \"#utility.yul\":6948:7011   */\n      tag_163\n      jumpi\n        /* \"#utility.yul\":7007:7008   */\n      0x00\n        /* \"#utility.yul\":7004:7005   */\n      dup1\n        /* \"#utility.yul\":6997:7009   */\n      revert\n        /* \"#utility.yul\":6948:7011   */\n    tag_163:\n        /* \"#utility.yul\":6895:7017   */\n      pop\n      jump\t// out\n        /* \"#utility.yul\":7023:7145   */\n    tag_74:\n        /* \"#utility.yul\":7096:7120   */\n      tag_165\n        /* \"#utility.yul\":7114:7119   */\n      dup2\n        /* \"#utility.yul\":7096:7120   */\n      tag_116\n      jump\t// in\n    tag_165:\n        /* \"#utility.yul\":7089:7094   */\n      dup2\n        /* \"#utility.yul\":7086:7121   */\n      eq\n        /* \"#utility.yul\":7076:7139   */\n      tag_166\n      jumpi\n        /* \"#utility.yul\":7135:7136   */\n      0x00\n        /* \"#utility.yul\":7132:7133   */\n      dup1\n        /* \"#utility.yul\":7125:7137   */\n      revert\n        /* \"#utility.yul\":7076:7139   */\n    tag_166:\n        /* \"#utility.yul\":7023:7145   */\n      pop\n      jump\t// out\n\n    auxdata: 0xa2646970667358221220638ba65bc8e2c418c8ae3d41f966c707fe26c95072dd14bd288d03726eabe78264736f6c63430008070033\n}\n",
				"bytecode": {
					"linkReferences": {},
					"object": "608060405234801561001057600080fd5b5033600460006101000a81548173ffffffffffffffffffffffffffffffffffffffff021916908373ffffffffffffffffffffffffffffffffffffffff1602179055506109d5806100616000396000f3fe608060405234801561001057600080fd5b506004361061007d5760003560e01c8063566b1a271161005b578063566b1a27146100dc57806395d89b411461010c578063a0712d681461012a578063a9059cbb1461015a5761007d565b806306fdde031461008257806318160ddd146100a0578063313ce567146100be575b600080fd5b61008a61018a565b604051610097919061073c565b60405180910390f35b6100a86101c7565b6040516100b5919061079e565b60405180910390f35b6100c66101d1565b6040516100d3919061079e565b60405180910390f35b6100f660048036038101906100f191906105ea565b6101da565b604051610103919061079e565b60405180910390f35b610114610223565b604051610121919061073c565b60405180910390f35b610144600480360381019061013f9190610657565b610260565b6040516101519190610721565b60405180910390f35b610174600480360381019061016f9190610617565b610400565b6040516101819190610721565b60405180910390f35b60606040518060400160405280600a81526020017f576174657220436f696e00000000000000000000000000000000000000000000815250905090565b6000600354905090565b60006012905090565b6000600560008373ffffffffffffffffffffffffffffffffffffffff1673ffffffffffffffffffffffffffffffffffffffff168152602001908152602001600020549050919050565b60606040518060400160405280600381526020017f5741430000000000000000000000000000000000000000000000000000000000815250905090565b60003373ffffffffffffffffffffffffffffffffffffffff16600460009054906101000a900473ffffffffffffffffffffffffffffffffffffffff1673ffffffffffffffffffffffffffffffffffffffff16146102f2576040517f08c379a00000000000000000000000000000000000000000000000000000000081526004016102e99061077e565b60405180910390fd5b60003390508073ffffffffffffffffffffffffffffffffffffffff16600460009054906101000a900473ffffffffffffffffffffffffffffffffffffffff1673ffffffffffffffffffffffffffffffffffffffff1614610387576040517f08c379a000000000000000000000000000000000000000000000000000000000815260040161037e9061077e565b60405180910390fd5b82600560008373ffffffffffffffffffffffffffffffffffffffff1673ffffffffffffffffffffffffffffffffffffffff16815260200190815260200160002060008282546103d691906107d5565b9250508190555082600360008282546103ef91906107d5565b925050819055506001915050919050565b6000806003549050600033905083600560008373ffffffffffffffffffffffffffffffffffffffff1673ffffffffffffffffffffffffffffffffffffffff16815260200190815260200160002054101561045957600080fd5b83600560008373ffffffffffffffffffffffffffffffffffffffff1673ffffffffffffffffffffffffffffffffffffffff16815260200190815260200160002060008282546104a8919061082b565b9250508190555083600560008773ffffffffffffffffffffffffffffffffffffffff1673ffffffffffffffffffffffffffffffffffffffff16815260200190815260200160002060008282546104fe91906107d5565b925050819055508473ffffffffffffffffffffffffffffffffffffffff168173ffffffffffffffffffffffffffffffffffffffff167fddf252ad1be2c89b69c2b068fc378daa952ba7f163c4a11628f55a4df523b3ef86604051610562919061079e565b60405180910390a36001925050600060035490508082146105b8576040517f08c379a00000000000000000000000000000000000000000000000000000000081526004016105af9061075e565b60405180910390fd5b505092915050565b6000813590506105cf81610971565b92915050565b6000813590506105e481610988565b92915050565b600060208284031215610600576105ff610909565b5b600061060e848285016105c0565b91505092915050565b6000806040838503121561062e5761062d610909565b5b600061063c858286016105c0565b925050602061064d858286016105d5565b9150509250929050565b60006020828403121561066d5761066c610909565b5b600061067b848285016105d5565b91505092915050565b61068d81610871565b82525050565b600061069e826107b9565b6106a881856107c4565b93506106b88185602086016108a7565b6106c18161090e565b840191505092915050565b60006106d96010836107c4565b91506106e48261091f565b602082019050919050565b60006106fc6013836107c4565b915061070782610948565b602082019050919050565b61071b8161089d565b82525050565b60006020820190506107366000830184610684565b92915050565b600060208201905081810360008301526107568184610693565b905092915050565b60006020820190508181036000830152610777816106cc565b9050919050565b60006020820190508181036000830152610797816106ef565b9050919050565b60006020820190506107b36000830184610712565b92915050565b600081519050919050565b600082825260208201905092915050565b60006107e08261089d565b91506107eb8361089d565b9250827fffffffffffffffffffffffffffffffffffffffffffffffffffffffffffffffff038211156108205761081f6108da565b5b828201905092915050565b60006108368261089d565b91506108418361089d565b925082821015610854576108536108da565b5b828203905092915050565b600061086a8261087d565b9050919050565b60008115159050919050565b600073ffffffffffffffffffffffffffffffffffffffff82169050919050565b6000819050919050565b60005b838110156108c55780820151818401526020810190506108aa565b838111156108d4576000848401525b50505050565b7f4e487b7100000000000000000000000000000000000000000000000000000000600052601160045260246000fd5b600080fd5b6000601f19601f8301169050919050565b7f696e76617269616e636520666f756e6400000000000000000000000000000000600082015250565b7f73656e646572206973206e6f74206f776e657200000000000000000000000000600082015250565b61097a8161085f565b811461098557600080fd5b50565b6109918161089d565b811461099c57600080fd5b5056fea2646970667358221220638ba65bc8e2c418c8ae3d41f966c707fe26c95072dd14bd288d03726eabe78264736f6c63430008070033",
					"opcodes": "PUSH1 0x80 PUSH1 0x40 MSTORE CALLVALUE DUP1 ISZERO PUSH2 0x10 JUMPI PUSH1 0x0 DUP1 REVERT JUMPDEST POP CALLER PUSH1 0x4 PUSH1 0x0 PUSH2 0x100 EXP DUP2 SLOAD DUP2 PUSH20 0xFFFFFFFFFFFFFFFFFFFFFFFFFFFFFFFFFFFFFFFF MUL NOT AND SWAP1 DUP4 PUSH20 0xFFFFFFFFFFFFFFFFFFFFFFFFFFFFFFFFFFFFFFFF AND MUL OR SWAP1 SSTORE POP PUSH2 0x9D5 DUP1 PUSH2 0x61 PUSH1 0x0 CODECOPY PUSH1 0x0 RETURN INVALID PUSH1 0x80 PUSH1 0x40 MSTORE CALLVALUE DUP1 ISZERO PUSH2 0x10 JUMPI PUSH1 0x0 DUP1 REVERT JUMPDEST POP PUSH1 0x4 CALLDATASIZE LT PUSH2 0x7D JUMPI PUSH1 0x0 CALLDATALOAD PUSH1 0xE0 SHR DUP1 PUSH4 0x566B1A27 GT PUSH2 0x5B JUMPI DUP1 PUSH4 0x566B1A27 EQ PUSH2 0xDC JUMPI DUP1 PUSH4 0x95D89B41 EQ PUSH2 0x10C JUMPI DUP1 PUSH4 0xA0712D68 EQ PUSH2 0x12A JUMPI DUP1 PUSH4 0xA9059CBB EQ PUSH2 0x15A JUMPI PUSH2 0x7D JUMP JUMPDEST DUP1 PUSH4 0x6FDDE03 EQ PUSH2 0x82 JUMPI DUP1 PUSH4 0x18160DDD EQ PUSH2 0xA0 JUMPI DUP1 PUSH4 0x313CE567 EQ PUSH2 0xBE JUMPI JUMPDEST PUSH1 0x0 DUP1 REVERT JUMPDEST PUSH2 0x8A PUSH2 0x18A JUMP JUMPDEST PUSH1 0x40 MLOAD PUSH2 0x97 SWAP2 SWAP1 PUSH2 0x73C JUMP JUMPDEST PUSH1 0x40 MLOAD DUP1 SWAP2 SUB SWAP1 RETURN JUMPDEST PUSH2 0xA8 PUSH2 0x1C7 JUMP JUMPDEST PUSH1 0x40 MLOAD PUSH2 0xB5 SWAP2 SWAP1 PUSH2 0x79E JUMP JUMPDEST PUSH1 0x40 MLOAD DUP1 SWAP2 SUB SWAP1 RETURN JUMPDEST PUSH2 0xC6 PUSH2 0x1D1 JUMP JUMPDEST PUSH1 0x40 MLOAD PUSH2 0xD3 SWAP2 SWAP1 PUSH2 0x79E JUMP JUMPDEST PUSH1 0x40 MLOAD DUP1 SWAP2 SUB SWAP1 RETURN JUMPDEST PUSH2 0xF6 PUSH1 0x4 DUP1 CALLDATASIZE SUB DUP2 ADD SWAP1 PUSH2 0xF1 SWAP2 SWAP1 PUSH2 0x5EA JUMP JUMPDEST PUSH2 0x1DA JUMP JUMPDEST PUSH1 0x40 MLOAD PUSH2 0x103 SWAP2 SWAP1 PUSH2 0x79E JUMP JUMPDEST PUSH1 0x40 MLOAD DUP1 SWAP2 SUB SWAP1 RETURN JUMPDEST PUSH2 0x114 PUSH2 0x223 JUMP JUMPDEST PUSH1 0x40 MLOAD PUSH2 0x121 SWAP2 SWAP1 PUSH2 0x73C JUMP JUMPDEST PUSH1 0x40 MLOAD DUP1 SWAP2 SUB SWAP1 RETURN JUMPDEST PUSH2 0x144 PUSH1 0x4 DUP1 CALLDATASIZE SUB DUP2 ADD SWAP1 PUSH2 0x13F SWAP2 SWAP1 PUSH2 0x657 JUMP JUMPDEST PUSH2 0x260 JUMP JUMPDEST PUSH1 0x40 MLOAD PUSH2 0x151 SWAP2 SWAP1 PUSH2 0x721 JUMP JUMPDEST PUSH1 0x40 MLOAD DUP1 SWAP2 SUB SWAP1 RETURN JUMPDEST PUSH2 0x174 PUSH1 0x4 DUP1 CALLDATASIZE SUB DUP2 ADD SWAP1 PUSH2 0x16F SWAP2 SWAP1 PUSH2 0x617 JUMP JUMPDEST PUSH2 0x400 JUMP JUMPDEST PUSH1 0x40 MLOAD PUSH2 0x181 SWAP2 SWAP1 PUSH2 0x721 JUMP JUMPDEST PUSH1 0x40 MLOAD DUP1 SWAP2 SUB SWAP1 RETURN JUMPDEST PUSH1 0x60 PUSH1 0x40 MLOAD DUP1 PUSH1 0x40 ADD PUSH1 0x40 MSTORE DUP1 PUSH1 0xA DUP2 MSTORE PUSH1 0x20 ADD PUSH32 0x576174657220436F696E00000000000000000000000000000000000000000000 DUP2 MSTORE POP SWAP1 POP SWAP1 JUMP JUMPDEST PUSH1 0x0 PUSH1 0x3 SLOAD SWAP1 POP SWAP1 JUMP JUMPDEST PUSH1 0x0 PUSH1 0x12 SWAP1 POP SWAP1 JUMP JUMPDEST PUSH1 0x0 PUSH1 0x5 PUSH1 0x0 DUP4 PUSH20 0xFFFFFFFFFFFFFFFFFFFFFFFFFFFFFFFFFFFFFFFF AND PUSH20 0xFFFFFFFFFFFFFFFFFFFFFFFFFFFFFFFFFFFFFFFF AND DUP2 MSTORE PUSH1 0x20 ADD SWAP1 DUP2 MSTORE PUSH1 0x20 ADD PUSH1 0x0 KECCAK256 SLOAD SWAP1 POP SWAP2 SWAP1 POP JUMP JUMPDEST PUSH1 0x60 PUSH1 0x40 MLOAD DUP1 PUSH1 0x40 ADD PUSH1 0x40 MSTORE DUP1 PUSH1 0x3 DUP2 MSTORE PUSH1 0x20 ADD PUSH32 0x5741430000000000000000000000000000000000000000000000000000000000 DUP2 MSTORE POP SWAP1 POP SWAP1 JUMP JUMPDEST PUSH1 0x0 CALLER PUSH20 0xFFFFFFFFFFFFFFFFFFFFFFFFFFFFFFFFFFFFFFFF AND PUSH1 0x4 PUSH1 0x0 SWAP1 SLOAD SWAP1 PUSH2 0x100 EXP SWAP1 DIV PUSH20 0xFFFFFFFFFFFFFFFFFFFFFFFFFFFFFFFFFFFFFFFF AND PUSH20 0xFFFFFFFFFFFFFFFFFFFFFFFFFFFFFFFFFFFFFFFF AND EQ PUSH2 0x2F2 JUMPI PUSH1 0x40 MLOAD PUSH32 0x8C379A000000000000000000000000000000000000000000000000000000000 DUP2 MSTORE PUSH1 0x4 ADD PUSH2 0x2E9 SWAP1 PUSH2 0x77E JUMP JUMPDEST PUSH1 0x40 MLOAD DUP1 SWAP2 SUB SWAP1 REVERT JUMPDEST PUSH1 0x0 CALLER SWAP1 POP DUP1 PUSH20 0xFFFFFFFFFFFFFFFFFFFFFFFFFFFFFFFFFFFFFFFF AND PUSH1 0x4 PUSH1 0x0 SWAP1 SLOAD SWAP1 PUSH2 0x100 EXP SWAP1 DIV PUSH20 0xFFFFFFFFFFFFFFFFFFFFFFFFFFFFFFFFFFFFFFFF AND PUSH20 0xFFFFFFFFFFFFFFFFFFFFFFFFFFFFFFFFFFFFFFFF AND EQ PUSH2 0x387 JUMPI PUSH1 0x40 MLOAD PUSH32 0x8C379A000000000000000000000000000000000000000000000000000000000 DUP2 MSTORE PUSH1 0x4 ADD PUSH2 0x37E SWAP1 PUSH2 0x77E JUMP JUMPDEST PUSH1 0x40 MLOAD DUP1 SWAP2 SUB SWAP1 REVERT JUMPDEST DUP3 PUSH1 0x5 PUSH1 0x0 DUP4 PUSH20 0xFFFFFFFFFFFFFFFFFFFFFFFFFFFFFFFFFFFFFFFF AND PUSH20 0xFFFFFFFFFFFFFFFFFFFFFFFFFFFFFFFFFFFFFFFF AND DUP2 MSTORE PUSH1 0x20 ADD SWAP1 DUP2 MSTORE PUSH1 0x20 ADD PUSH1 0x0 KECCAK256 PUSH1 0x0 DUP3 DUP3 SLOAD PUSH2 0x3D6 SWAP2 SWAP1 PUSH2 0x7D5 JUMP JUMPDEST SWAP3 POP POP DUP2 SWAP1 SSTORE POP DUP3 PUSH1 0x3 PUSH1 0x0 DUP3 DUP3 SLOAD PUSH2 0x3EF SWAP2 SWAP1 PUSH2 0x7D5 JUMP JUMPDEST SWAP3 POP POP DUP2 SWAP1 SSTORE POP PUSH1 0x1 SWAP2 POP POP SWAP2 SWAP1 POP JUMP JUMPDEST PUSH1 0x0 DUP1 PUSH1 0x3 SLOAD SWAP1 POP PUSH1 0x0 CALLER SWAP1 POP DUP4 PUSH1 0x5 PUSH1 0x0 DUP4 PUSH20 0xFFFFFFFFFFFFFFFFFFFFFFFFFFFFFFFFFFFFFFFF AND PUSH20 0xFFFFFFFFFFFFFFFFFFFFFFFFFFFFFFFFFFFFFFFF AND DUP2 MSTORE PUSH1 0x20 ADD SWAP1 DUP2 MSTORE PUSH1 0x20 ADD PUSH1 0x0 KECCAK256 SLOAD LT ISZERO PUSH2 0x459 JUMPI PUSH1 0x0 DUP1 REVERT JUMPDEST DUP4 PUSH1 0x5 PUSH1 0x0 DUP4 PUSH20 0xFFFFFFFFFFFFFFFFFFFFFFFFFFFFFFFFFFFFFFFF AND PUSH20 0xFFFFFFFFFFFFFFFFFFFFFFFFFFFFFFFFFFFFFFFF AND DUP2 MSTORE PUSH1 0x20 ADD SWAP1 DUP2 MSTORE PUSH1 0x20 ADD PUSH1 0x0 KECCAK256 PUSH1 0x0 DUP3 DUP3 SLOAD PUSH2 0x4A8 SWAP2 SWAP1 PUSH2 0x82B JUMP JUMPDEST SWAP3 POP POP DUP2 SWAP1 SSTORE POP DUP4 PUSH1 0x5 PUSH1 0x0 DUP8 PUSH20 0xFFFFFFFFFFFFFFFFFFFFFFFFFFFFFFFFFFFFFFFF AND PUSH20 0xFFFFFFFFFFFFFFFFFFFFFFFFFFFFFFFFFFFFFFFF AND DUP2 MSTORE PUSH1 0x20 ADD SWAP1 DUP2 MSTORE PUSH1 0x20 ADD PUSH1 0x0 KECCAK256 PUSH1 0x0 DUP3 DUP3 SLOAD PUSH2 0x4FE SWAP2 SWAP1 PUSH2 0x7D5 JUMP JUMPDEST SWAP3 POP POP DUP2 SWAP1 SSTORE POP DUP5 PUSH20 0xFFFFFFFFFFFFFFFFFFFFFFFFFFFFFFFFFFFFFFFF AND DUP2 PUSH20 0xFFFFFFFFFFFFFFFFFFFFFFFFFFFFFFFFFFFFFFFF AND PUSH32 0xDDF252AD1BE2C89B69C2B068FC378DAA952BA7F163C4A11628F55A4DF523B3EF DUP7 PUSH1 0x40 MLOAD PUSH2 0x562 SWAP2 SWAP1 PUSH2 0x79E JUMP JUMPDEST PUSH1 0x40 MLOAD DUP1 SWAP2 SUB SWAP1 LOG3 PUSH1 0x1 SWAP3 POP POP PUSH1 0x0 PUSH1 0x3 SLOAD SWAP1 POP DUP1 DUP3 EQ PUSH2 0x5B8 JUMPI PUSH1 0x40 MLOAD PUSH32 0x8C379A000000000000000000000000000000000000000000000000000000000 DUP2 MSTORE PUSH1 0x4 ADD PUSH2 0x5AF SWAP1 PUSH2 0x75E JUMP JUMPDEST PUSH1 0x40 MLOAD DUP1 SWAP2 SUB SWAP1 REVERT JUMPDEST POP POP SWAP3 SWAP2 POP POP JUMP JUMPDEST PUSH1 0x0 DUP2 CALLDATALOAD SWAP1 POP PUSH2 0x5CF DUP2 PUSH2 0x971 JUMP JUMPDEST SWAP3 SWAP2 POP POP JUMP JUMPDEST PUSH1 0x0 DUP2 CALLDATALOAD SWAP1 POP PUSH2 0x5E4 DUP2 PUSH2 0x988 JUMP JUMPDEST SWAP3 SWAP2 POP POP JUMP JUMPDEST PUSH1 0x0 PUSH1 0x20 DUP3 DUP5 SUB SLT ISZERO PUSH2 0x600 JUMPI PUSH2 0x5FF PUSH2 0x909 JUMP JUMPDEST JUMPDEST PUSH1 0x0 PUSH2 0x60E DUP5 DUP3 DUP6 ADD PUSH2 0x5C0 JUMP JUMPDEST SWAP2 POP POP SWAP3 SWAP2 POP POP JUMP JUMPDEST PUSH1 0x0 DUP1 PUSH1 0x40 DUP4 DUP6 SUB SLT ISZERO PUSH2 0x62E JUMPI PUSH2 0x62D PUSH2 0x909 JUMP JUMPDEST JUMPDEST PUSH1 0x0 PUSH2 0x63C DUP6 DUP3 DUP7 ADD PUSH2 0x5C0 JUMP JUMPDEST SWAP3 POP POP PUSH1 0x20 PUSH2 0x64D DUP6 DUP3 DUP7 ADD PUSH2 0x5D5 JUMP JUMPDEST SWAP2 POP POP SWAP3 POP SWAP3 SWAP1 POP JUMP JUMPDEST PUSH1 0x0 PUSH1 0x20 DUP3 DUP5 SUB SLT ISZERO PUSH2 0x66D JUMPI PUSH2 0x66C PUSH2 0x909 JUMP JUMPDEST JUMPDEST PUSH1 0x0 PUSH2 0x67B DUP5 DUP3 DUP6 ADD PUSH2 0x5D5 JUMP JUMPDEST SWAP2 POP POP SWAP3 SWAP2 POP POP JUMP JUMPDEST PUSH2 0x68D DUP2 PUSH2 0x871 JUMP JUMPDEST DUP3 MSTORE POP POP JUMP JUMPDEST PUSH1 0x0 PUSH2 0x69E DUP3 PUSH2 0x7B9 JUMP JUMPDEST PUSH2 0x6A8 DUP2 DUP6 PUSH2 0x7C4 JUMP JUMPDEST SWAP4 POP PUSH2 0x6B8 DUP2 DUP6 PUSH1 0x20 DUP7 ADD PUSH2 0x8A7 JUMP JUMPDEST PUSH2 0x6C1 DUP2 PUSH2 0x90E JUMP JUMPDEST DUP5 ADD SWAP2 POP POP SWAP3 SWAP2 POP POP JUMP JUMPDEST PUSH1 0x0 PUSH2 0x6D9 PUSH1 0x10 DUP4 PUSH2 0x7C4 JUMP JUMPDEST SWAP2 POP PUSH2 0x6E4 DUP3 PUSH2 0x91F JUMP JUMPDEST PUSH1 0x20 DUP3 ADD SWAP1 POP SWAP2 SWAP1 POP JUMP JUMPDEST PUSH1 0x0 PUSH2 0x6FC PUSH1 0x13 DUP4 PUSH2 0x7C4 JUMP JUMPDEST SWAP2 POP PUSH2 0x707 DUP3 PUSH2 0x948 JUMP JUMPDEST PUSH1 0x20 DUP3 ADD SWAP1 POP SWAP2 SWAP1 POP JUMP JUMPDEST PUSH2 0x71B DUP2 PUSH2 0x89D JUMP JUMPDEST DUP3 MSTORE POP POP JUMP JUMPDEST PUSH1 0x0 PUSH1 0x20 DUP3 ADD SWAP1 POP PUSH2 0x736 PUSH1 0x0 DUP4 ADD DUP5 PUSH2 0x684 JUMP JUMPDEST SWAP3 SWAP2 POP POP JUMP JUMPDEST PUSH1 0x0 PUSH1 0x20 DUP3 ADD SWAP1 POP DUP2 DUP2 SUB PUSH1 0x0 DUP4 ADD MSTORE PUSH2 0x756 DUP2 DUP5 PUSH2 0x693 JUMP JUMPDEST SWAP1 POP SWAP3 SWAP2 POP POP JUMP JUMPDEST PUSH1 0x0 PUSH1 0x20 DUP3 ADD SWAP1 POP DUP2 DUP2 SUB PUSH1 0x0 DUP4 ADD MSTORE PUSH2 0x777 DUP2 PUSH2 0x6CC JUMP JUMPDEST SWAP1 POP SWAP2 SWAP1 POP JUMP JUMPDEST PUSH1 0x0 PUSH1 0x20 DUP3 ADD SWAP1 POP DUP2 DUP2 SUB PUSH1 0x0 DUP4 ADD MSTORE PUSH2 0x797 DUP2 PUSH2 0x6EF JUMP JUMPDEST SWAP1 POP SWAP2 SWAP1 POP JUMP JUMPDEST PUSH1 0x0 PUSH1 0x20 DUP3 ADD SWAP1 POP PUSH2 0x7B3 PUSH1 0x0 DUP4 ADD DUP5 PUSH2 0x712 JUMP JUMPDEST SWAP3 SWAP2 POP POP JUMP JUMPDEST PUSH1 0x0 DUP2 MLOAD SWAP1 POP SWAP2 SWAP1 POP JUMP JUMPDEST PUSH1 0x0 DUP3 DUP3 MSTORE PUSH1 0x20 DUP3 ADD SWAP1 POP SWAP3 SWAP2 POP POP JUMP JUMPDEST PUSH1 0x0 PUSH2 0x7E0 DUP3 PUSH2 0x89D JUMP JUMPDEST SWAP2 POP PUSH2 0x7EB DUP4 PUSH2 0x89D JUMP JUMPDEST SWAP3 POP DUP3 PUSH32 0xFFFFFFFFFFFFFFFFFFFFFFFFFFFFFFFFFFFFFFFFFFFFFFFFFFFFFFFFFFFFFFFF SUB DUP3 GT ISZERO PUSH2 0x820 JUMPI PUSH2 0x81F PUSH2 0x8DA JUMP JUMPDEST JUMPDEST DUP3 DUP3 ADD SWAP1 POP SWAP3 SWAP2 POP POP JUMP JUMPDEST PUSH1 0x0 PUSH2 0x836 DUP3 PUSH2 0x89D JUMP JUMPDEST SWAP2 POP PUSH2 0x841 DUP4 PUSH2 0x89D JUMP JUMPDEST SWAP3 POP DUP3 DUP3 LT ISZERO PUSH2 0x854 JUMPI PUSH2 0x853 PUSH2 0x8DA JUMP JUMPDEST JUMPDEST DUP3 DUP3 SUB SWAP1 POP SWAP3 SWAP2 POP POP JUMP JUMPDEST PUSH1 0x0 PUSH2 0x86A DUP3 PUSH2 0x87D JUMP JUMPDEST SWAP1 POP SWAP2 SWAP1 POP JUMP JUMPDEST PUSH1 0x0 DUP2 ISZERO ISZERO SWAP1 POP SWAP2 SWAP1 POP JUMP JUMPDEST PUSH1 0x0 PUSH20 0xFFFFFFFFFFFFFFFFFFFFFFFFFFFFFFFFFFFFFFFF DUP3 AND SWAP1 POP SWAP2 SWAP1 POP JUMP JUMPDEST PUSH1 0x0 DUP2 SWAP1 POP SWAP2 SWAP1 POP JUMP JUMPDEST PUSH1 0x0 JUMPDEST DUP4 DUP2 LT ISZERO PUSH2 0x8C5 JUMPI DUP1 DUP3 ADD MLOAD DUP2 DUP5 ADD MSTORE PUSH1 0x20 DUP2 ADD SWAP1 POP PUSH2 0x8AA JUMP JUMPDEST DUP4 DUP2 GT ISZERO PUSH2 0x8D4 JUMPI PUSH1 0x0 DUP5 DUP5 ADD MSTORE JUMPDEST POP POP POP POP JUMP JUMPDEST PUSH32 0x4E487B7100000000000000000000000000000000000000000000000000000000 PUSH1 0x0 MSTORE PUSH1 0x11 PUSH1 0x4 MSTORE PUSH1 0x24 PUSH1 0x0 REVERT JUMPDEST PUSH1 0x0 DUP1 REVERT JUMPDEST PUSH1 0x0 PUSH1 0x1F NOT PUSH1 0x1F DUP4 ADD AND SWAP1 POP SWAP2 SWAP1 POP JUMP JUMPDEST PUSH32 0x696E76617269616E636520666F756E6400000000000000000000000000000000 PUSH1 0x0 DUP3 ADD MSTORE POP JUMP JUMPDEST PUSH32 0x73656E646572206973206E6F74206F776E657200000000000000000000000000 PUSH1 0x0 DUP3 ADD MSTORE POP JUMP JUMPDEST PUSH2 0x97A DUP2 PUSH2 0x85F JUMP JUMPDEST DUP2 EQ PUSH2 0x985 JUMPI PUSH1 0x0 DUP1 REVERT JUMPDEST POP JUMP JUMPDEST PUSH2 0x991 DUP2 PUSH2 0x89D JUMP JUMPDEST DUP2 EQ PUSH2 0x99C JUMPI PUSH1 0x0 DUP1 REVERT JUMPDEST POP JUMP INVALID LOG2 PUSH5 0x6970667358 0x22 SLT KECCAK256 PUSH4 0x8BA65BC8 0xE2 0xC4 XOR 0xC8 0xAE RETURNDATASIZE COINBASE 0xF9 PUSH7 0xC707FE26C95072 0xDD EQ 0xBD 0x28 DUP14 SUB PUSH19 0x6EABE78264736F6C6343000807003300000000 "
				},
				"gasEstimates": {
					"creation": {
						"codeDepositCost": "503400",
						"executionCost": "24803",
						"totalCost": "528203"
					},
					"external": {
						"balanceDf(address)": "2841",
						"decimals()": "382",
						"mint(uint256)": "infinite",
						"name()": "infinite",
						"symbol()": "infinite",
						"totalSupply()": "2460",
						"transfer(address,uint256)": "infinite"
					}
				},
				"methodIdentifiers": {
					"balanceDf(address)": "566b1a27",
					"decimals()": "313ce567",
					"mint(uint256)": "a0712d68",
					"name()": "06fdde03",
					"symbol()": "95d89b41",
					"totalSupply()": "18160ddd",
					"transfer(address,uint256)": "a9059cbb"
				}
			},
			"storageLayout": {
				"storage": [
					{
						"astId": 6,
						"contract": "Code/CoinA.sol:ERC20",
						"label": "_CoinASupply",
						"offset": 0,
						"slot": "0",
						"type": "t_uint256"
					},
					{
						"astId": 8,
						"contract": "Code/CoinA.sol:ERC20",
						"label": "_CoinBSupply",
						"offset": 0,
						"slot": "1",
						"type": "t_uint256"
					},
					{
						"astId": 10,
						"contract": "Code/CoinA.sol:ERC20",
						"label": "_CoinCSupply",
						"offset": 0,
						"slot": "2",
						"type": "t_uint256"
					},
					{
						"astId": 12,
						"contract": "Code/CoinA.sol:ERC20",
						"label": "_totalSupply",
						"offset": 0,
						"slot": "3",
						"type": "t_uint256"
					},
					{
						"astId": 14,
						"contract": "Code/CoinA.sol:ERC20",
						"label": "_owner",
						"offset": 0,
						"slot": "4",
						"type": "t_address"
					},
					{
						"astId": 18,
						"contract": "Code/CoinA.sol:ERC20",
						"label": "_balances",
						"offset": 0,
						"slot": "5",
						"type": "t_mapping(t_address,t_uint256)"
					}
				],
				"types": {
					"t_address": {
						"encoding": "inplace",
						"label": "address",
						"numberOfBytes": "20"
					},
					"t_mapping(t_address,t_uint256)": {
						"encoding": "mapping",
						"key": "t_address",
						"label": "mapping(address => uint256)",
						"numberOfBytes": "32",
						"value": "t_uint256"
					},
					"t_uint256": {
						"encoding": "inplace",
						"label": "uint256",
						"numberOfBytes": "32"
					}
				}
			},
			"userdoc": {
				"kind": "user",
				"methods": {},
				"version": 1
			}
		}
	}
}